:020000041004E6
:100000000060002045060410F7050410E9050410FF
:10001000AA5555AA45554C420000000000000000BA
:10002000000000000000000000000000A70604100F
:100030000000000000000000410604101108041038
:10004000A10304103D0604100000000000000000A1
:10005000D9080410A506041039020410DB080410A6
:100060000000000000000000000000000000000090
:1000700000000000F7010410ED050410EB0504106A
:1000800000000000EF050410F1050410F305041052
:10009000F5050410650604103F0604103B02041029
:1000A0000000000000000000000000000000000050
:1000B0000000000000000000000000000000000040
:1000C000EFF31482EFF309811C4880F31488BFF327
:1000D0006F8FF0B543464C4655465E466746F8B4CA
:1000E000174CEFF30883236006B4164C2068164CB7
:1000F0002060164C2068164C2060164C2068164C68
:100100002060164C276800202060BFF34F8F30BF5F
:1001100027600B4C246884F3088882B003BCF8BCC9
:100120009846A146AA46B346BC46F0BC04BC80F340
:10013000098881F31488BFF36F8F10470000000017
:100140000800002004ED00E0D002002024ED00E0D3
:10015000D402002000E200E0D80200200800204085
:100160000348854600F018F8004800474D09041080
:100170000060002003460B439B0703D009E008C939
:10018000121F08C0042AFAD203E00B780370401C47
:10019000491C521EF9D27047064C0125064E05E057
:1001A000E36807CC2B430C3C98471034B442F7D398
:1001B000FFF7DAFF000B0410900B041030B58C1819
:1001C0000278401C13071B0F01D10378401C120951
:1001D00006D10278401C03E005780D70401C491CD4
:1001E0005B1EF9D101E00B70491C521EFBD1A142EC
:1001F000E6D3002030BD704770B500210C4A03E003
:10020000535C491C5918C9B2535C002BF8D1CE1C61
:1002100002243525202E04D2545451184D70887074
:10022000CB7004490C704D708870CB7070BD0000AD
:10023000E8020020DC02002070477047F3B58BB065
:1002400005461C2248A103A8FFF794FF684600F06A
:10025000A5F909240126E406002D67D0442069464B
:1002600088764848017A314301724C206946C87546
:1002700020200875B22048775B2008A90870424A00
:10028000906A4249030C8B420AD108AFFB788F2752
:100290003B4008AFFB70FB784007400E0343FB7008
:1002A000506A020C8A420AD16B465A7CCF231A400C
:1002B0006B465A745A7C8007800E02435A74324847
:1002C0004038006B020C8A4209D108AAD17889080B
:1002D0008900D170D1788007800F0143D1706946C1
:1002E000C87DFB2108406946C875487889780001B7
:1002F0000843122808D308A9C8780421084308A98C
:10030000C870C878FFF778FF03A8012180B20904FC
:100310004018E060E068C003FCD4694648788978FA
:1003200000010843122801D300F0E0F91849088BB6
:100330000028FCD00E8317208881002008610C98CB
:10034000002806D0216910200140226902408A421B
:10035000FBD0002D02D00F49152008700F490E4820
:1003600008600DB0F0BD0000023F00023E30023CCC
:1003700020023B4C023A400239B202345B02350B98
:100380000000000000002040C007001055AA000037
:10039000000010480000C040CCBCECFC1400002061
:1003A00070470000F8B504460068800103D17A2147
:1003B0004F4800F0CAFA207900280BD0062809D04F
:1003C000012807D0042805D0052803D07B21484800
:1003D00000F0BBFAA079002805D0012803D07C21C9
:1003E000434800F0B2FA6079002805D0012803D014
:1003F0007D213F4800F0A9FA2088C00406D5207965
:10040000062803D180213A4800F09FFA2088800412
:1004100006D52079062803D18121354800F095FAC8
:10042000207901229207002802D0062804D008E093
:1004300051682368994303E05168002023681943F9
:10044000516000210F232568CD40ED07ED0F37D017
:10045000082909D2D66A8D001F46AF40BE43074621
:10046000AF403E43D6622BE00D46083D082D0AD230
:100470008D001E46203D176BAE40B7430646AE408A
:10048000374317631CE00D46103D082D0AD28D003E
:100490001E46403D576BAE40B7430646AE4037431D
:1004A00057630DE017290BD9124E8D001F46603D92
:1004B000368BAF40BE430746AF400E4D3E432E83C2
:1004C000491CC9B21A29BED360790128D0682168B5
:1004D00009D08843D060A07901289068216804D0B1
:1004E00088439060F8BD0843F4E70843F9E700004B
:1004F000700A04102000004010B50446800104D1A9
:10050000FF218531044800F020FA012080070168AE
:100510006140016010BD0000700A041070B504460F
:100520000D46800104D1FF216F31094800F00DFA1A
:10053000002D06D0012D07D0FF217031044800F0B6
:1005400004FA0448046070BD01208007C46370BDD4
:10055000700A04104000004010B50F4C002803D072
:10056000012809D002280FD000F0B4F80C2148432C
:1005700000198038406F10BD00F0ACF80C214843E2
:1005800000198038806F10BD00F0A4F80C2148439A
:1005900000198038C06F10BD640A04100F4910B5EF
:1005A00028390E4BCA691206120F4270C969090731
:1005B000090F817019680A4C01234160A14202D1E0
:1005C0000221017000E00370002A00D14370054948
:1005D000898A491C8900816010BD00002800904074
:1005E00041A0000200001040FEE7704770477047CE
:1005F000704770477047FEE78307FF22DB0E9A4083
:100600008907090E994000280BDA0007000F083807
:10061000830808489B001818C36993430B43C361C0
:100620007047830804489B001818036893430B43E2
:100630000360704700ED00E000E400E070477047A1
:100640007047000010B500F049F9012805D00448B2
:1006500080F3088800F07AF910BDFFF781FD10BD26
:1006600000600020704700000D49012289B2120489
:100670008A1830B50921C906002804D0CA60C868A4
:10068000C003FCD430BD064B9C789878FB252840ED
:100690009870CA60C868C003FCD49C7030BD00006C
:1006A000DC0200207047704701B509490868009ACC
:1006B000C043904205D20A68521CFCD1009A101A1D
:1006C00001E0C04310180A688242FCD108BD000056
:1006D000E40200200148007870470000CC020020AE
:1006E0000149012008707047CC0200200020104909
:1006F00003E00A5C401C1018C0B20A5C002AF8D162
:10070000C21C202A12D202220A5421220818427046
:10071000082181700021C170012180B209044118B3
:100720000920C006C160C168C903FCD4704700003D
:10073000E80200202348017A23480089002906D0D6
:10074000022938D0042938D0082938D01FE00928D8
:1007500010D381280ED8092181431AD01121814359
:1007600019D02121814318D04121814317D0812103
:10077000814316D0FF210231814314D013498143B4
:1007800013D00521814312D0C043800711D000202F
:1007900070470620704707207047082070470920DF
:1007A00070470A2070470B2070470C2070470520C7
:1007B00070470420704701207047022070470320D3
:1007C0007047000000009040000010480104000045
:1007D00070B50D460B490446084203D187210A48EB
:1007E00000F0B3F8094E002D05D0012D07D0882167
:1007F000054800F0AAF8306AA043306270BD306A44
:100800002043FAE79F3F0F00B80A04100000904011
:1008100002480168491C016070470000E4020020A2
:1008200010B52A49082088800321481FFFF7E4FEFD
:100830000321081FFFF7E0FE03210020FFF7DCFE85
:1008400003210120FFF7D8FE03210420FFF7D4FE87
:1008500003210520FFF7D0FE00210620FFF7CCFE84
:1008600003210720FFF7C8FE03210D20FFF7C4FE78
:1008700003210E20FFF7C0FE03210F20FFF7BCFE6F
:1008800003211120FFF7B8FE03211220FFF7B4FE69
:1008900003211320FFF7B0FE03211420FFF7ACFE65
:1008A00003211520FFF7A8FE03211620FFF7A4FE61
:1008B00003211720FFF7A0FE01210846FFF7BEFC29
:1008C00004490348086262B610BD000000001040F1
:1008D00066000E00000090407047704738B5104821
:1008E000017A0125294301720E490020086004465F
:1008F000FFF720FF694608700878002803D1641CC0
:10090000E4B2032CF4D30878062807D3087800F063
:1009100079F805480570FFF7FCFBFEE7012038BDBC
:1009200000002040140000200C00002002E008C855
:10093000121F08C1002AFAD170477047002001E059
:1009400001C1121F002AFBD17047FEE71CB5FFF75B
:1009500067FFFFF7C5FE01210846FFF739FF0020BA
:10096000FFF7FAFD04460120FFF7F6FD04430220DD
:10097000FFF7F2FD04430620694600940871012048
:10098000887148716846FFF70DFD0020FFF7E4FD10
:1009900004460120FFF7E0FD04430220FFF7DCFDE1
:1009A00020430021FFF7BAFD14481349416114495F
:1009B0000722CB691B021B0A44042343CB6100219D
:1009C000816102610020FFF7C7FDFFF795FDFA2066
:1009D000FFF76AFE0120FFF7BFFDFFF78DFDFA204C
:1009E000FFF762FE0220FFF7B7FDFFF785FDFA2053
:1009F000FFF75AFEE6E70000FE7C000000E000E0A2
:100A000004ED00E0FEB501240B2813D06846FFF783
:100A1000C5FD69464878897800010843122800D24C
:100A200000240E480068000705D4002C02D00120E5
:100A3000FFF71AFEFEBD0925ED062869084E31684C
:100A40002830081A000200120028F3DD002C02D022
:100A50000120FFF709FE30686860FEBDC00000207D
:100A6000180000204000000080000000004000004E
:100A70002E2E2F2E2E2F2E2E2F2E2E2F2E2E2F2E91
:100A80002E2F4C6962726172792F426C75654E52DD
:100A900047315F5065726970685F4472697665724C
:100AA0002F7372632F426C75654E5247315F6770CA
:100AB000696F2E63000000002E2E2F2E2E2F2E2E5B
:100AC0002F2E2E2F2E2E2F2E2E2F4C6962726172FA
:100AD000792F426C75654E5247315F50657269706F
:100AE000685F4472697665722F7372632F426C750A
:100AF000654E5247315F7379734374726C2E630095
:100B0000900B041008000020040000002C090410C1
:100B1000940B04100C000020040000002C090410A9
:100B2000980B041010000020040000002C09041091
:100B30009C0B041014000020040000002C09041079
:100B4000A00B041018000020040000002C09041061
:100B5000A40B041030000020040000002C09041035
:100B6000A80B0410C00000200C020000BC010410FF
:100B7000B00B0410CC0200201C0000002C09041053
:100B8000CC0B0410E8020020200000003C090410F7
:100B90000000000000000000000004100000000041
:100BA000000000000000000001FF01FF0111000033
:100BB0000000000000000000000000000000000035
:0C0BC00000000000000000000000000029
:040000051004016181
:00000001FF
