:020000041005E5
:10F8000000600020358B0610DF77061029490610AE
:10F81000AA5555AA45554C420000000000000000C2
:10F82000000000000000000000000000A5A5061078
:10F830000000000000000000BD8306102DAF061080
:10F840007D2D0610AD7806100000000000000000BD
:10F850006DB30610B1A4061049110610C1B406100C
:10F860000000000000000000000000000000000098
:10F87000000000006FFD05102D4906102B490610F1
:10F880000000000057730610597306105B730610D2
:10F890005D730610558B0610497F061099160610E9
:10F8A0000000000000000000000000000000000058
:10F8B0000000000000000000000000000000000048
:10F8C000EFF31482EFF309811C4880F31488BFF32F
:10F8D0006F8FF0B543464C4655465E466746F8B4D2
:10F8E000174CEFF30883236006B4164C2068164CBF
:10F8F0002060164C2068164C2060164C2068164C70
:10F900002060164C276800202060BFF34F8F30BF67
:10F9100027600B4C246884F3088882B003BCF8BCD1
:10F920009846A146AA46B346BC46F0BC04BC80F348
:10F93000098881F31488BFF36F8F1047000000001F
:10F940000800002004ED00E0B403002024ED00E0F6
:10F95000B803002000E200E0BC03002008002040C3
:10F960000348854600F0C6F900480047F10107103A
:10F970000060002030B50B46014600202022012403
:10F9800009E00D46D5409D4205D31D469540491BD3
:10F990002546954040191546521E002DF1DC30BD1C
:10F9A00070B500242546002801DA012440420029D0
:10F9B00001DA01254942FFF7DDFFAC4200D04042A9
:10F9C000002C00D0494270BD10B5441A0346944241
:10F9D00009D28318891803E0491E0C785B1E1C703D
:10F9E000521EF9D210BD0C460443A40703D009E00F
:10F9F00010C9121F10C3042AFAD203E00C781C703D
:10FA0000491C5B1C521EF9D210BDD2B201E002703B
:10FA1000401C491EFBD270470022F6E710B5134682
:10FA20000A4604461946FFF7F0FF204610BD30B5E0
:10FA300004460020034600E05B1C934203D2E05CD6
:10FA4000CD5C401BF8D030BD0321001D401E037863
:10FA500012021A43491EF9D510467047F8B50246FE
:10FA60004A40D40F42004B0052085B089A4202D22F
:10FA70000246084611464A0023D0C30D4A00DDB2B3
:10FA8000120EAD1A202D35DA49020126490AF60573
:10FA90008A19002C00D0524220214F1B1146B94038
:10FAA0002A411018C20D9A4221D0002C17D0012DE6
:10FAB00008DCDA05801AD20F8019D207DBB200F019
:10FAC000E0F8F8BDDA05801A012340001B06C018D3
:10FAD00080185A428018CA0F1043490007E04908AD
:10FAE000C2071143DA05801A80194008801800F017
:10FAF000C0F8F8BD61000122511A001BF7E701228E
:10FB0000D2075140AAE70122D2075040A6E7024699
:10FB100070B54A40D30FDB0740002DD04A002AD0F1
:10FB2000010E140E000212020919400A520A84182A
:10FB3000E50104465443000A120A2E045043A41956
:10FB40004219200CC543AA18120C0125AD03521C02
:10FB5000521912047F39240400D0521C104301D4DE
:10FB60004000491EC2B20C06C0092018401C4008C3
:10FB7000802A02D003E0002070BD40084000002928
:10FB800000DA0020184370BD70B502464A40D50F18
:10FB900040004A00ED0740085208002814D0002A0F
:10FBA00012D0C40DD30D41020120C0055202490AF2
:10FBB000520AE41A091812187D34914201D3641CC8
:10FBC00000E04900002C01DA002070BD00239142C2
:10FBD00001D3891A0343400849000028F7D10029BE
:10FBE0000AD0914202D10121C90705E0914201D218
:10FBF000012101E00121C943E005C018401900F0CE
:10FC000038F870BD420005D04200120E52428A42BE
:10FC100001DB00207047C90508187047C217C10FE3
:10FC2000504010B54018CA079623002100F029F86B
:10FC300010BD10B500229623114600F022F810BD29
:10FC4000C20F410040020123400ADB05D207090E22
:10FC5000C0187F2901DA00207047962903DC96231B
:10FC6000591AC84001E096398840002AF4D0404231
:10FC70007047002904DA401C490001D140084000C7
:10FC8000704770B40024050C05D11024000402D183
:10FC9000002921D01124050E01D100020834050FDE
:10FCA00001D10001241D850F01D18000A41C002872
:10FCB00001DB4000641C002908D020252E1B0D46C6
:10FCC000F540A14000D001212943084301061B1B38
:10FCD000000ADB1D02D5002070BC7047DB05181838
:10FCE00080180029F8DA401C4900F5D170BC4008A2
:10FCF00040007047064C0125064E05E0E36807CC3E
:10FD00002B430C3C98471034B442F7D3FFF72CFE3A
:10FD1000C42507105426071070B58C180578401CB0
:10FD20006B075B0F01D10378401C2A1106D10278C2
:10FD3000401C03E006780E70401C491C5B1EF9D184
:10FD40002B0705D40023521E0DD40B70491CFAE773
:10FD50000378401CCB1A921C03E01D780D70491CDF
:10FD60005B1C521EF9D5A142D8D3002070BD70474C
:10FD70003EB5154C20780025002802D00AF0E0FF9F
:10FD800025706078002818D06570E188012004F0A3
:10FD9000BAFC002801D001206070A06800280CD0B7
:10FDA00000200AF010FE684604F0BEFB002802D1D5
:10FDB000684600F089F804F0BDFBA078012802D164
:10FDC000A57002F007FC3EBDD40300207FB50546B8
:10FDD0009868012202739A681C465173986802223F
:10FDE00002A90E3008F0A8F8A16805200D74E08083
:10FDF0007FBD70B5064608881D460C46001D81B2C1
:10FE000013460222304608F0FFF921882B46891C50
:10FE10002180091D89B20222304608F0F5F92088B8
:10FE2000801C208070BDFEB500240E462746056864
:10FE300045E028680290A968022230460D3108F09A
:10FE40007BF83088B84209D087B2384603F086FC88
:10FE5000014601AA384604F0FDFA019CA968022275
:10FE600068460F3108F068F8E888401F81B2222008
:10FE7000005D002806D001280BD0002811D00128F1
:10FE800014D01BE0E08B6A461288401E904206D3D5
:10FE900007E0208C6A461288401E904206D2072056
:10FEA000FEBD684600880818E18B03E068460088BC
:10FEB0000818218C884201D90D20FEBD029D002D1D
:10FEC000B7D100203080FEBD00B5818887B049429F
:10FED0006A461174091251740178917401880123E2
:10FEE0000912D174017A49421175008906214042F4
:10FEF000001250750020019004AA07480091039257
:10FF0000029182880188054800880CF065FA002873
:10FF100000D0472007B000BDC8030020D803002050
:10FF2000FFB5C8880025401E83B00E4687B2012465
:10FF300027E0B0680222083001196846091D07F061
:10FF4000FBFF6846008803F009FC01001DD06846ED
:10FF50000A8D0088824212D001AA04F07BFA0028A0
:10FF60000DD101992620405C400708D506986A000B
:10FF7000101802221C3107F0DFFF6D1CADB2A41C6B
:10FF8000A4B2BC42D5D30C98058007B0F0BDFFB534
:10FF9000074683B0002000900D9803F0DFFB054674
:10FFA00006980C300190002D26D00837BD4223D092
:10FFB000288D0E9988421FD80D99884213D30E9927
:10FFC000884210D8294602222A31019807F0B4FF4E
:10FFD00010220C99069807F0ABFF002809D0298D54
:10FFE0000E98814208D02E462C6A2036B442DDD0CD
:10FFF0003EE005980021018007B0F0BDA08B0D996F
:020000041006E4
:10000000884234D30E99884234D82046203002905A
:10001000C078012808D02046083010220C9907F03B
:1000200087FF002808D022E02146022208310198EB
:1000300007F082FF0698F0E702988079400716D50E
:100040000098002801D1E08B0090E18B814211D112
:1000500005980222008841000498081821461C31A6
:1000600007F06AFF059805990088401C08802468FD
:10007000B442C3D12D6899E70648002102680520E3
:10008000400210180173417303218173C173002072
:10009000704700003804002070B50D4D0446112152
:1000A0002868C9014018902601231A46C06F3146BE
:1000B0000BF03CFE010003D030464C600BF022FEFA
:1000C0000520296840020918087B401C087370BD90
:1000D0003804002010B5044600202082A074A168D6
:1000E000A16161612060204605F0AAFD452801D08C
:1000F000412010BDA08803210EF000F804460EF048
:1001000029FD002812D072B60948012201684F204B
:10011000400109184879A2401043487162B6002096
:1001200010F0F4FC002801D00CF042FE002010BDBD
:100130003804002070B5C17C0E4D4906490EC174CB
:10014000044611212868C901401890260123002285
:10015000C06F31460BF0EAFD010003D030464C6021
:100160000BF0D0FD0520296840020918487B401C8F
:10017000487370BD38040020F0B58BB01B256A466B
:100180001576C5265676D5249476A527D7760221EE
:10019000117700205077B42090779A20D077E12013
:1001A00008AA1070112050703A209070CF20D070A3
:1001B000802010716E20507136209071D171102204
:1001C00006A9414807F0B8FE404800904048012287
:1001D00003783D4902200BF098FF002870D1684653
:1001E00005764676D5218176A521C1760227077747
:1001F00000244477FC2181778F21C177E12108A871
:100200000170112141704A218170CF21C170A0215C
:100210000171782141713E218171E221C1712A4829
:10022000102206A9103007F087FE28491020891CEB
:10023000059103900090244A244802940494019468
:1002400001231032022100880BF018FF002837D15B
:1002500069460D764E76D5208876A520C8760F772C
:100260004C7736208877AC20C877E12008A9087041
:10027000112048704B208870CF20C87080200871F2
:100280004D710A2088713420C8710F48102206A9C8
:10029000103007F051FE0D491020091D0390042273
:1002A0000591122002920090074A08480494019494
:1002B00006231032022100880BF0E0FE002800D057
:1002C00047200BB0F0BD00007C0B0020C8030020CD
:1002D000EC030020F0B591B01B2508AA1571C520CC
:1002E0005071D5209071A527D7710220107200247B
:1002F0005472D02090728221D172E22010731120AA
:10030000507377209073E426D673402010741A201F
:10031000507491744220D074102209A96F4807F0DC
:100320000BFE6F4800906F48012243786B49022012
:100330000BF0EBFE00287DD11B2108A80171C5211F
:100340004171D5218171A521C171022505724472C7
:10035000E3218172A921C172E2210173112141734C
:1003600077218173E421C1732021017455214174E7
:100370002E218174A321C1745848102209A910307C
:1003800007F0DAFD56490095891C554F10260420C8
:10039000524A059104940223039601940290BF1FD0
:1003A00010321946F8880BF069FE0028C3D10E21DF
:1003B00008A80175611E41754B496846C18608A8A9
:1003C00004764476210A8176484968468187434805
:1003D00002220FA9203007F0AFFD10A810210890CD
:1003E000069101200726059407940DA901963B4B21
:1003F0000096039402910490024620333989F888CC
:100400000BF05BFE002866D11B2108A80171C521F5
:100410004171D5218171A521C171057244720B21F1
:1004200081728421C172E2210173112141738B21F8
:10043000817300E04FE0E421C17380210174C42185
:10044000417420218174CD21C1742448102209A94E
:10045000103007F071FD3A460A32009504210592EA
:10046000102002911D4A049401940390032310323A
:100470000221F8880BF002FE00282CD10F2008A9D9
:100480000875601F48754F20C0016946C88608A9D5
:100490000C764C76200A88761448694688870F487F
:1004A00002220FA9203007F047FD10A81021089064
:1004B00006910120059407940DA90196074B00961B
:1004C000039402910490024620337989F8880BF056
:1004D000F4FD002800D0472011B0F0BD7C0B0020B7
:1004E000CE030020EC0300202F2700000429000089
:1004F00010B508480078002807D10AF054F8002801
:1005000003D10AF05AF8002801D0002010BD0320C2
:1005100010BD0000D6030020F8B516460D4607466C
:10052000002409F0A9FD002806D0324629463846A5
:1005300001F054F8044604E020356879002802D020
:100540000E242046F8BD2879C10701D1012E09D01B
:10055000810701D4022E03D04007F2D4042EF0D13B
:100560000324EEE70224ECE77EB5044616460D466A
:10057000684604F05FF86846037823704078287076
:100580006846807830707EBD70B500210C4A03E06B
:10059000535C491C5918C9B2535C002BF8D1CE1CCE
:1005A00002243525202E04D2545451184D708870E1
:1005B000CB7004490C704D708870CB7070BD00001A
:1005C0005C0B0020C003002010B50AF099FD1E4C02
:1005D0004721206849014118097B002909D1A03031
:1005E0000079C00729D00DF0ABFF01F047F801F00A
:1005F00035FB00F0DFFC2068014640310A78C979FC
:100600008A4319D13E21095C002915D10F490A8876
:10061000120711D50922D2061269497A836AC900E4
:10062000591809231B02C018806D801A000200129D
:10063000814201DA0CF010FB10BD02F0A3FA03F0C6
:10064000E7F809F0CFFAD0E738040020C000002016
:10065000F3B5FFB090B0044601A803F0EBFFFE48ED
:10066000007A0590FD4880880890FD480068529007
:10067000FC4E002081008B191B68401C53AAC0B29D
:1006800053500828F6D3F848006A5190F748006A9A
:1006900050900120800701684F9141684E91816818
:1006A0004D91C1684C9101694B9141694A918169B1
:1006B0004991C1690491C16A4891016B4791406BAE
:1006C0004590EB48008B4490E948203040684690C4
:1006D000E848C1684391017F4291E6492031898809
:1006E0004191E4492031097A4091E2492031097B66
:1006F0003F91006B3E90DF482030007D3D90DD480B
:100700002030008B3C90DB484030017A3B91017CEB
:100710003A91017D3991017E3891007F3790D5481B
:10072000603000783690D448016835914168349142
:10073000017C3391017D3291CF4920310A79319288
:100740000A893092C06A2F90088A00222E90CB48E6
:1007500011050818036891007BAD6B5045687DABAF
:100760005D50858B7FAB5D50058C81AB5D50858C7A
:1007700083AB5D50058D85AB5D50C56A87AB5D5021
:100780004C231D5A89AB5D50056D8BAB5D50836D5D
:10079000521C8DA8D2B24350022AD8D30B20000796
:1007A00000682D90B64841682A9181682991018A94
:1007B0002891818A279181692691017F2591B049ED
:1007C0002031098A2491416B2391816B2291C06B66
:1007D0002190AB4840300168209141681F918068AA
:1007E0001E90A84881881D9101891C91017C1B9154
:1007F000017D1A91018B1991007F1890A248818880
:10080000179101891691017C1591017D1491018B3D
:100810001391007F12909D4801692C9140692B90A3
:100820009B4801681191007A10909A48006800284E
:100830002ED00020009000201421974A41438918AF
:100840004D68820063AB9D500D685BAB9D508D6819
:100850006BAB9D50CB68401C73A9C0B28B5008286D
:10086000EAD38120C00541680E91017B0D91418B37
:100870000B91018B0C91416A0A91816A0991008860
:100880000F900320800780680790032C02D008E0B7
:100890008248CFE70920C0064168032212071143AE
:1008A00041607F49002009687E4D503906917E4F96
:1008B000296004C98300401CFA50C0B22960142882
:1008C000F7D369464879897900010843122804D38F
:1008D00076490020086009F069F80920C0064168DF
:1008E000734801605C49087909780122920712680F
:1008F000520A4A4090437DD101200AF077FBFEF76F
:10090000DFFF00200AF072FB6A480078002872D0EE
:10091000694801210183002181810161084606990E
:10092000296081007A58296804C1401CC0B229603E
:100930001428F6D349490898888049495298086094
:10094000002053AA8100535889190B60401CC0B283
:100950000828F7D3444951980862444950980862DE
:100960008B024F9818604E9858604D9898604C983C
:10097000D860499898614A9858614B9818610498D2
:1009800098620498D8614898D86247981863459847
:100990005863374944980883354946982031486060
:1009A00034494398C860429808773248419A2030C9
:1009B0008280409A02723F9A02733E9A0A633D997E
:1009C00001753C9901832B483B99403001723A995B
:1009D000017439990175389901763799017725495C
:1009E0003698603108702448359901603499416027
:1009F000339901E037E1E5E00174329901751E4950
:100A0000319A20310A71309A0A812F9AC2622E9847
:100A1000088200227BAD19481105081891006E5814
:100A200006607DAE765846607FAE765A868381AE8C
:100A3000765A068483AE765A868485AE765A0685C3
:100A400087AE7658C66289AE765A4C273E528BAE38
:100A5000765806658DAE31E0000020400000104061
:100A600000E100E000E400E000ED00E00000904064
:100A70002000004000003040000040400000A04046
:100A80000000F0400000D0400000E04000E000E046
:100A900000007040000C7040080000A051E5CC1A26
:100AA00000F80510D00200204C04002014000020A3
:100AB000180000200C0000200000104871588165CB
:100AC000521CD2B2022AA6D30B2000072D99016036
:100AD00099482B994161002181612C9901619748C6
:100AE0002A994160299981602899018227998182F8
:100AF0002699816125990177239941632299816320
:100B00002199C1638D482099403001601F9941604F
:100B10001E998160894924982031088288481D994E
:100B200081801C9901811B9901741A990175854A6C
:100B30001999114001831899017783481799818089
:100B40001699018115990174149901751399114031
:100B50000183129901777D491198086010980872F5
:100B60007B49009808607B4F00205BAD1421414316
:100B7000C919820063AEB6584E60AE580E606BAEB7
:100B8000B6588E6073AEB258CA60401CC0B2082816
:100B9000ECD38120C0050E9941600D9901730B992A
:100BA00041830C9901830A994162099981620F99E5
:100BB000018003208007079981606748007A002838
:100BC00054D083E0654A1068400637D41168644801
:100BD000644B00685D6A4140634E3668B5421AD185
:100BE0001268824203D061480068084213D160480D
:100BF00001220068120705465968154011408D42D0
:100C000009D191105A6808400A40904216D04A48CB
:100C10000069800712D50921C9060869554B0209E8
:100C2000D01C984204D80A6912098242FBD305E01D
:100C3000514810180A6912098242FBD16946487965
:100C4000897900010843122805D3012008F0AEFE7F
:100C50004B484A490160032C05D10920C00642686F
:100C600021078A4342607FB012B0F0BD4548018938
:100C700009292BD30189812928D89099002925D0C9
:100C800002890921914302D1D96989051BD40289BE
:100C90001121914302D1D969490514D40289212136
:100CA000914302D1D96909050DD4028941219143AB
:100CB00002D1D969C90406D401898120884305D1AC
:100CC000D869800402D5254901200860032C05D18C
:100CD0000920C00641682207914341602A490598CE
:100CE0000872032C26D00021002000F0A9FD0598F1
:100CF000C007B8D00AF0C0F86946087008780B2819
:100D000014D022480088000710D50921C9060869B7
:100D10001F4A1268101A0002001200D54042202813
:100D200004DC08692D300A698242FCD91949152072
:100D3000087098E70121D7E700E000E00000F040EC
:100D40000000D040BFFF00000000E0400000704005
:100D5000000C7040080000A00000904000E200E09D
:100D6000BC03002000ED00E0B803002000E100E03B
:100D7000B4030020FFFF0F000400F0FFCCBCECFC2C
:100D8000140000200000104800002040C000002097
:100D9000180000200000C040F7B50746EFF31084AC
:100DA00072B600261448067000F066F9054638460B
:100DB000FFF79EFBB84200D33846854200D2284652
:100DC0000E4B81005A58521C5A50002809D0012855
:100DD0000BD00B49029A0A70019A0A710199FFF728
:100DE00037FC84F310880020FEBD0648017A0672A5
:100DF00030BF0172F5E700000C0000203C04002029
:100E0000000020400000704010B5837F01220024C4
:100E100092024168082B03D94224914202D310E088
:100E2000914201D242240CE001463422064807F0E8
:100E300083F800F07FF8002801DA482401E00AF086
:100E400059FD204610BD0000B80B00203EB5174DDF
:100E500015482968827F0846A0310A730024603053
:100E6000047644768476E122C276802202770222DA
:100E70004277302008704C7002AA01A96846FFF73B
:100E800073FB68460078A22201016846007A891C3B
:100E900000020143684600790003014328681152AB
:100EA000A03004713EBD0000B80B002038040020C3
:100EB00070B50AF009F904F0EDFD07F017F9FFF736
:100EC000DBF803F0F1FF184C18492068184D401862
:100ED000811001202A68C0021018C1666168890863
:100EE0000167A1688908416708F042FE1D20296852
:100EF0008001228B08180287628B4287A28B428670
:100F0000628C82862046203002783B2040010818FF
:100F100082750021017001F0ADFC03F0A5FC0CF01E
:100F200065FA00F021FF70BDB80B00200000FCEF57
:100F30003804002070B50025ED430DF02FF801288E
:100F40002ED0002318490322888BFF24401E104313
:100F50008A7F4D3462438218088B2824604312181C
:100F6000488B3024604312180846203040782C24E7
:100F7000604310180D4A181884184869A0420DD112
:100F80000B4884420AD90D690DF008F8C1B2284611
:100F900000F02CFD00F05AFE401B251A284670BDBB
:100FA000FF23B533CEE70000B80B0020391900004D
:100FB000580A0000F8B52C4F3C68206E5C34401C89
:100FC000002814D0002529480023C07B00283ED0EB
:100FD0000926F6062648002D1CD000210A460B469D
:100FE0004169521C994204D1002902D004E0012534
:100FF000E9E7204B9A42F2D32160006960603069D2
:10100000A1680002090E000A09060143A16000F070
:101010008DF81DE03169A2680902090A150E08D091
:10102000018BC90712D04169216000696060E372D9
:1010300010E0881A00027D2300121B03984205DD90
:10104000100E00060843A06000F070F8F8BD636061
:10105000002DFBD003CC0FF0FFFCFA200FF0B8F806
:1010600039688862F8BD000038040020D80B0020E1
:101070000000104888130000F8B5294D00202968A9
:101080000A4640321378D279934347D14A6E120E02
:1010900044D13E22525C002A40D1431E21488D6A31
:1010A000467A1A460024F600AD190926F606376975
:1010B00000887D1907070120002F06DAF314CB18EA
:1010C0009C6D631B1B021B1228D407273F02C91902
:1010D0000969CF0103D54A1B120212121ED4012541
:1010E0002D07002B06DA002A0ADA75600E488560A3
:1010F00003200AE01120000604437460002A03DB89
:101100002943084609F044FE022005490968403198
:101110004A78002A02D0002048700320F8BD000061
:1011200038040020C000002040000048044900208E
:1011300008610448012100686030C17170470000F7
:10114000000010483804002010B507F0E5FB10BD82
:1011500070B524490023086802464032537613765E
:101160004F225201821853710F22203082750522BE
:10117000184652020C680546A418246B30352354D7
:101180000C68A418246B63550C683035A418246BC4
:1011900063550C68A418256B04469034401CC0B2FB
:1011A0002B552D28E6D309688A18106B90600446E9
:1011B00030345460903010600B480C464834038043
:1011C0000922427105238371C2710372418100F0CB
:1011D0000DF8FF2020706070A070E0701F2020715B
:1011E00070BD000038040020C000002010B5064883
:1011F00001680648406A002803D020220CF067FEF0
:1012000010BD0020087010BD38040020B80B00206D
:10121000F8B5069C1F4615460646002C13D0A0685C
:1012200002220D3006F088FEE81E82B23B460721FE
:10123000204606F0E9FFE580A068012E05D01D21BB
:1012400001730020F8BD4720F8BD1B21F8E770B5F9
:1012500015460646FFF760F90446082D0BD1052C0C
:1012600009D1304608F008FF002804D0008A400465
:10127000800F00D00024204670BD2423184204D0E3
:10128000C81F092803D82032D1710020704742209E
:1012900070470000F1B5FFB08BB0012460020590EB
:1012A0000027CC4807970168E320C0000818039086
:1012B0008A98C74D0005000D0AAA05A908F057FB3A
:1012C0000690002872D104260AA805994218203AEF
:1012D000D27F0B2A23D00026002004900AA881196F
:1012E000022201A8029106F027FE6846818809AB18
:1012F00008AA039803F090F8012817D002287DD09F
:1013000068468088854200D30546844200D920463D
:10131000044602988078012871D013363BE1491EBB
:10132000761E36040591360CCFD1D5E7089800908B
:10133000002F79D1009902222831029806F0F8FD99
:1013400000281ED100982030017B029880788142CD
:1013500017D1012808D10098029902220830C91C2F
:1013600006F0E6FD002815D002988078022808D102
:101370000098029910220830C91C06F0D9FD0028F7
:1013800008D00098008DA84200D80546A04200D29F
:101390002046044602990AA88978012907D0133605
:1013A0000599B6B28E4204D3012707E005E1761D08
:1013B000F6E78119022201A806F0BEFD0399009804
:1013C00008318E462EE084466946026A8B882030BA
:1013D0000DE0918B994203D3012F7DD199427BD9A6
:1013E000A94200D80D46A14200D30C4612688242A1
:1013F000EFD10498002817D1604601E015E0BFE066
:10140000006870450ED0018D994203D3012F09D198
:10141000994207D98D4200D30D468C4200D80C4624
:10142000012F59D17045CED1BAE008980090002F15
:1014300072D1009902221C31029806F079FD002831
:101440001ED100982030C17802988078814217D14F
:10145000012808D10098029902220830C91C06F020
:1014600067FD00281AD002988078022808D10098D9
:10147000029910220830C91C06F05AFD00280DD030
:101480000098808BA84200D80546A04200D2204692
:10149000044602988078012826D003E002988078DC
:1014A000012805D013360798B6B201281ED021E0D6
:1014B000009849490089884216D18A9800F040FF77
:1014C0000146009800F01EFE0099098C48430099DF
:1014D00089694018022200E038E00299491D06F0AF
:1014E0002BFD01200790D4E7761DDCE7B61C002019
:1014F000B6B207900598864201D3012705E00AA8F5
:101500008119022201A806F017FD039A00990832FA
:1015100009980968944630E01AE086466A4693883E
:1015200020300DE08A8B9A4203D3012F0ED19A42CC
:101530000CD9AA4200D81546A24200D31446096825
:101540008142EFD1049800282AD102E001200490C2
:1015500026E07046006860450FD0028D016A9A420D
:1015600003D3012F09D19A4207D9954200D31546DA
:10157000944200D81446012FE8D16045CDD10FE048
:101580000298C078022805D102980079292801D153
:10159000B61CB6B2761D0598B6B2864200D30127B6
:1015A0000598811B042902D3864200D294E6049850
:1015B0000028FBD1A54203D906987FB00CB0F0BD3E
:1015C000224629468A9803F0DBFA0690F5E70000E8
:1015D000FFFF0000380400200229000070B5154606
:1015E0000C46064608F031FD20346179012D09D002
:1015F0000A0702D54207920F0FD0CA0625D5020767
:1016000009D522E0CA0702D04207920F05D08A0707
:1016100005D5020703D4082070BD052070BD490719
:1016200007D5C00709D0E179304608F096FC5F285D
:1016300005D02079C00704D005E00F2070BD0C2034
:1016400070BD022070BD002070BD890607D5C0079F
:10165000F3D0E179304608F080FC5F28EFD02079A4
:10166000810701D4022D07D0410701D4042D03D0F6
:101670000007E8D4082DE6D1032070BD10B506F0B0
:1016800099FE06F062FC0CF089FC012801D100F003
:1016900031F800F087F910BD7047000070B51349AC
:1016A00005220968520200208B18AC22525C19E016
:1016B00058245D6944432C1954252D5DED060FD542
:1016C0000B480818C030428A018A608904F086FD00
:1016D0003A2804D04034207DEF210840207570BDA9
:1016E000401CC0B28242E3D870BD00003804002024
:1016F0000809000010B5FFF7D1FF10BDFFB5074680
:10170000464881B000880D464549052209685202C5
:1017100040078A18400F526958235843141841480B
:101720000E180CF03BFC002822D0142D04D0152DEF
:1017300020D0072D59D05CE02146039803F08EFF9E
:101740000121206989040843214640312061087D38
:10175000022210430875820609D5627952085200A8
:101760006271DF2210400875002F4ED151E0012038
:1017700005B0F0BD25464035287DC007F7D021468D
:10178000039803F06BFF204603F03AFF002825D0B2
:10179000A18FE08F814200D20846E8806989A8893C
:1017A000814200D2084668822A89E9898A4200D2A9
:1017B00011462982628F2888824200D21046C908C9
:1017C0000E3989B26880884200D30846A880049800
:1017D000006801214906084304990860287D4008F3
:1017E00040002875002F10D113E00398C07814280A
:1017F00002D0002005B0F0BD4034207D0421400817
:10180000400008432075002F03D00820C036F07335
:10181000ADE70820C036B073A9E70000C000002083
:10182000380400200809000010B5FFF767FF10BD5D
:10183000002101E000BF491C8142FBD3704700003A
:10184000F3B58BB005461C2248A103A8FEF7BCF8EF
:10185000684602F0EFFE09240126E406002D67D059
:101860004420694688764848017A314301724C2009
:101870006946C87520200875B22048775B2008A902
:101880000870424A906A4249030C8B420AD108AF61
:10189000FB788F273B4008AFFB70FB784007400E7A
:1018A0000343FB70506A020C8A420AD16B465A7C91
:1018B000CF231A406B465A745A7C8007800E02432D
:1018C0005A7432484038006B020C8A4209D108AA87
:1018D000D17889088900D170D1788007800F0143C1
:1018E000D1706946C87DFB2108406946C8754878B3
:1018F000897800010843122808D308A9C878042170
:10190000084308A9C870C878FEF73EFE03A8012165
:1019100080B209044018E060E068C003FCD4694666
:101920004878897800010843122801D309F058FA51
:101930001849088B0028FCD00E83172088810020CE
:1019400008610C98002806D0216910200140226906
:1019500002408A42FBD0002D02D00F4915200870AA
:101960000F490E4808600DB0F0BD0000023F0002B4
:101970003E30023C20023B4C023A400239B2023473
:101980005B02350B0000000000002040C007001083
:1019900055AA0000000010480000C040CCBCECFC80
:1019A00014000020F8B5104E30682030C57D002DA1
:1019B00019D0002405277F0210E0E9070BD0C019D9
:1019C00041695820604308184030417D204604F0AA
:1019D0005FF9002807D06D08641CE4B23068AC21C0
:1019E000095CA142E9D8F8BD38040020F3B581B004
:1019F000934A012101A805F0E7FE924C04222060E1
:101A0000432101A805F0E0FE11272168FF01C91953
:101A100008670422432101A805F0D6FE21680422AC
:101A2000C9194867FF21843101A805F0CDFE21685E
:101A3000854DC9198867A97F0C2201A80B3105F0D3
:101A4000C3FE05262168760289198863A97F2022B2
:101A500001A805F0B9FE2168102289198862A97FC2
:101A600001A805F0B1FE216828228919C862052164
:101A700001A805F0A9FE21683022891948630521D3
:101A800001A805F0A1FE2168FF228919086301322F
:101A9000012101A805F098FE2168582289190864DF
:101AA000A97F01A805F090FE2168202289194861CC
:101AB000A97F01A805F088FE21687822891988612C
:101AC000A97F01A805F080FE0F212268C9015118E5
:101AD000C8630722032101A805F076FE0F212268C2
:101AE000C901511808642822012101A805F06CFEE3
:101AF0000F212268C90151188864AA8B012101A80D
:101B000005F062FE0721226809025118C866298B78
:101B1000282201A805F058FE072122680902511861
:101B20004866698B302201A805F04EFE0721226825
:101B30000902511888660C22012101A805F044FE13
:101B400021680C2289190861012101A805F03CFED9
:101B50002168282289190969886028462030009068
:101B6000417801A805F030FE21680422891909692D
:101B7000896888600098417801A8491C05F024FE16
:101B8000216810228919096989684860A97F01A81C
:101B900005F01AFE21680222C9194866A97F01A82A
:101BA00005F012FE21680222C919C863A97F01A8A5
:101BB00005F00AFE21680222C9190864A97F01A85C
:101BC00005F002FE21680222C9194864A97F01A814
:101BD00005F0FAFD21680122C9198864A97F01A8CE
:101BE000491C05F0F1FD21681022C91908660B2176
:101BF00001A805F0E9FD0721226809025118486093
:101C00000422802101A805F0DFFD21688919C8613F
:101C1000029ADC204243012101A8443205F0D4FDA0
:101C2000216889190862029AD8204243012101A83B
:101C30002C3205F0C9FD2168891948620198FEBD62
:101C4000580A000038040020B80B0020704710B577
:101C5000C001000C00F0ECF9002010BDFEB572B61A
:101C60003F4D0823286801464030C2791A43C271AB
:101C700062B6002011276C46FF0182005218D2196B
:101C8000D26F52884300401CC0B2E2520328F4D302
:101C900072B6C8190021866E816662B6F00702D05E
:101CA00000200CF0F3FCB00702D501200CF0EEFC94
:101CB000700702D502200CF0E9FC300702D50320A2
:101CC0000CF0E4FC002623E00D281AD2211D254A41
:101CD0008000125820469047002812D072B628681B
:101CE000F7224030C1791140C17162B630E03A2824
:101CF00007D21C49231D8000E8390A58194620469E
:101D00009047029829684018C019C06F2188018047
:101D100071006846415AB00002902A688018C019C4
:101D2000C06F0288920892001418028808348A4210
:101D30000ED0A27891070BD09107890F012901D10C
:101D400004460834A0788008C006E078CFD5BBE709
:101D5000761CF6B2032EDBD30CF0AAFBFEBD00000E
:101D6000380400205425071070B50CF0BBFB124C52
:101D700011252068ED014019006F40210CF080F919
:101D800021684919C867486F40210CF079F9092684
:101D9000216836028A1910604819FF21806F81314D
:101DA0000CF06EF923680822991948600348002155
:101DB000181806F0C5F870BD38040020E8080000C7
:101DC000FEB506462A4814460068E322D20085186C
:101DD000C888032806D02346002202210420FDF7EC
:101DE000F5FF43E08968022268460D3106F0A4F849
:101DF000326990052FD468460188172903D35C20E7
:101E0000405B172801D2172002E0814200D2084629
:101E10007080012040020243022032610190144888
:101E20001B210068890141183788C97E7688012303
:101E3000490710D51121C901083040182422C06F6C
:101E4000022109F073FF002805D08780C680014673
:101E5000019809F057FFA06803260673A068294679
:101E600002225C310D3006F067F8E6800020FEBDEE
:101E700038040020F7B590B000206A460D9090829B
:101E80006A4AE3231268DB00D218CB880446022B8F
:101E900008D0002218210420129BFDF797FF002094
:101EA00013B0F0BD8B6800205E7B0A900B90888891
:101EB000303201920990002701980AF04BFB054649
:101EC00020E028680890A9880998814219D1A9685A
:101ED000022207A80D3106F02FF8002F01D1684625
:101EE000878B6846808B87420BD1294601980AF080
:101EF0007EFB002028600A98002811D00B9805600E
:101F00000B95089D002DDCD1002FD4D112981921FA
:101F10008068017301211298012EC18002D081E0F6
:101F20000A95EDE702A90AA8FDF77DFF002879D000
:101F300069460A891821129BFDF748FF002671E0C7
:101F400081680546022202A80D3105F0F5FF012E39
:101F500066D16846008901F001FC014668460EAA78
:101F6000008902F077FA0E9C1099204600F0CAF81A
:101F70000D9055E02F68012E3FD1002F06D0B96893
:101F8000022205A80D3105F0D7FF02E000206946C6
:101F90008882A968022204A80F3105F0CDFFE888E5
:101FA0000D99401F80B20090208CA2694843694679
:101FB0001018098A009A43180921284606F034F8B7
:101FC0002220005D012804D16846018A0098081883
:101FD000E08368460189808A81420ED0208C0D9969
:101FE000A269484310180021019000911098E38BDA
:101FF0000188A28B02200AF0B1F80A9908680A90B9
:10200000002008600A99002900D10B900121284680
:1020100006F0A6F869460889898A884202D13D46B9
:10202000002DA7D10A9800288AD139E7380400206A
:1020300000B508490968084A914209D14006010CD7
:1020400006483F22028181611121018000F052F88F
:1020500000BD000014000020CCBCECFC00001040CF
:1020600000B5094A1268094B9A420BD1084A3F232E
:102070001381800890610648403001603320108051
:1020800000F038F800BD000014000020CCBCECFCCF
:102090000000104000B50C4A12680C4B9A4212D155
:1020A0000B4A3F2313818008906109480B68403038
:1020B00003604B6843608B688360C968C160CC2053
:1020C000108000F017F800BD14000020CCBCECFC20
:1020D0000000104010B501E0521ED2B2002A07D015
:1020E00003780C78401C491CA342F5D0012010BD98
:1020F000002010BD0248018AC907FCD070470000CB
:102100000000104030B5024623239B5C0020012BC9
:102110001AD112890D4B9A4216D10D4A0523126825
:102120005B02D318A0329B69127B0AE045010C8840
:102130005D5B24052D05240D2D0DAC4204D0401C03
:10214000C0B28242F2D8002030BD00000229000057
:1021500038040020F7B578480F460068E321C9002D
:102160004418F88888B0072804D2002206210420E9
:102170000A9B2AE0B968022268460D3105F0DCFEB0
:10218000B968022201A80F3105F0D6FEB968022213
:1021900004A8113105F0D0FEF888C01F80B203906A
:1021A00068460288808882420CD8002A0AD00898A3
:1021B000002142880A9806F009F9002808D0452035
:1021C0000BB0F0BD062101200A9BFDF7FFFDABE03F
:1021D0000A9807218068083401730121684601814B
:1021E0000594008801F0BAFA05007CD086E06846C4
:1021F000008A0522D202904202D0521C904226D17F
:1022000068460088814278D329460B220831384637
:10221000039B05F09FFF69466A8D098A8A426CD14B
:102220000399022901D0102967D1002865D12A46D7
:102230002846296A28322030814202D06B6A1C333A
:1022400000E0134602A90A98FDF7D3FD55E02E469B
:102250002C6A2036B4424ED14FE06946A08B0988E3
:10226000884247D369468988884257D82320005D31
:1022700001283FD120460899FFF744FF218CA2692D
:10228000414351180B223846039B05F063FF06902B
:1022900008980122008821460005000DFEF73CF950
:1022A00001466A462089128A904223D1002921D111
:1022B000E28B03998A421DD1069900291AD1089907
:1022C0006A4649881289891A042927D322461B495C
:1022D0001C32884208D12068B04205D0008988426B
:1022E00002D02468F7E719E023461C3302A90A98B4
:1022F000FDF77FFD2468B442AFD12D680598854273
:102300000CD06846298D8088814207D808986A4693
:1023100040881289801A042800D368E7684600893B
:10232000012803D90A99C880002049E76846028835
:1023300006210A200A9B48E73804002003280000F1
:1023400010B50D4900050B680521490259188A6925
:102350000021000DA0331B7B0AE04C01145B240517
:10236000240D844202D14801801810BD491CC9B215
:102370008B42F2D8002010BD38040020FFB589B090
:10238000002405460794D0881646052804D000226C
:10239000042108460C9B20E0B168022208A80D31F8
:1023A00005F0CAFDB168022268460F3105F0C4FD90
:1023B0006846028C008882420CD8002A0AD00A980B
:1023C000002142880C9806F001F8002808D045202A
:1023D0000DB0F0BD042101200C9BFDF7F7FCB9E026
:1023E0006846008C01F0BAF9060076D008350495ED
:1023F0000498864272D06946308D098C884230D369
:102400006946098888422CD8002C0AD101210791FD
:102410000C9805218068022401730C980799806844
:1024200041730A984088001B042857D30798012855
:1024300054D1201D81B23346283302220C9805F076
:10244000E3FEA01D81B233462A330222A41C0C985D
:1024500005F0DAFE6946A41C308D0988A4B28842D2
:1024600074D03746356A2037BD42C1D060E0694636
:10247000A88B098C88425AD369460988884265D856
:10248000002C36D02320415D0798814260D10A9804
:102490004088001B042802D30799012904D0122880
:1024A00056D30798022853D1201D81B22B461C33E6
:1024B00002220C9805F0A8FEA41C0798A4B20128DB
:1024C0000DD0201D81B22B46083310220C9805F048
:1024D0009BFE2046103084B229E03DE036E0201D0E
:1024E00081B22B46083302220C9805F08DFEA01C09
:1024F000F1E72320415D07910C98052180680222B5
:1025000001730C980799806841730C98294680687C
:102510001C310E3005F010FD079901290CD02B4617
:102520000833102208210C9805F06EFE14242D6843
:10253000BD429CD136685BE70C9829468068022230
:102540000831103005F0F8FC0624F0E7002C03D029
:102550000C98C48000203BE76846028C04210A20C6
:102560000C9B3AE7830810B50A4800210268052051
:1025700040021018A0328069127B07E04C01045B16
:10258000002C01D0994204D0491CC9B28A42F5D826
:10259000002010BD3804002070B50C460B4E8100A1
:1025A0000B4832680D1801232032D3772146284684
:1025B000FFF756FD28680021844201D1084600E05B
:1025C000FB2032682032D17770BD00003804002033
:1025D0000000041000B585B001216A461174002086
:1025E000019004AA07480091039202910B46428889
:1025F00001880548008809F0EFFE002800D0472038
:1026000005B000BDC8030020D803002038B5184A23
:1026100014682246BA32AE34A378DD0701D001290E
:102620000AD05B070CD501290AD0217949070BD5BF
:10263000E17A002905D007E0E07880210843E070C6
:1026400038BD0121E172508020794106090FF7D091
:102650007821084069460870002048706A460221C7
:10266000422009F063FC207987210840207138BDA1
:102670003804002070470000FFB50C4678A103C95C
:1026800095B001910090002108A801730321C902AF
:1026900068464186012108A8734E017435681746C3
:1026A000AE3502F0D9F9002808D1704930684018D9
:1026B00001F07CFFA878002802D0462019B0F0BDB8
:1026C0000BA8159900F09EFA0028F7D1072010A951
:1026D0000871012C05D0022C0AD0002C0ED042200B
:1026E000ECE708A8017B1020014308A8017305E06E
:1026F00011A90BA800F095FA0028DFD110A80279E3
:1027000001230CA9284600F0EBFE00287ED102220E
:102710002946189805F010FC298868468181152102
:10272000490201820784012686734E2108A8817020
:102730000024C470067107214171867103A902A8A3
:1027400000F088FC002861D1022202A91E9805F041
:10275000F3FB082F02D26846478502E0082069464D
:10276000488569460C850B4628880AAA098901F024
:1027700059FC00286DD13E49684601820227078432
:1027800008A8847103A902A800F064FC002860D1A5
:10279000022202A91F9805F0CFFB68460470694623
:1027A00044704F850B4628880AAA098901F03AFC33
:1027B00000284ED108A8007BC00723D02C496846CA
:1027C000C91C01820821018408A88770047103A92B
:1027D00002A800F03FFC00283BD1FF216846C171F0
:1027E0008171C170817041700170447104716946DA
:1027F000082048850B4628880AAA098901F012FC9E
:10280000002826D108A8007B800600E021E022D520
:102810002988684681811649A5310182068486731C
:1028200008A88770C470047107214171847103A9DD
:1028300002A800F00FFC00280BD169460E700C8531
:102840004E850B4628880AAA098901F0EBFB00286F
:1028500001D0472032E708A8007BA87000202DE7B0
:10286000626C75656E72672138040020DE06000018
:10287000012A0000034800210068AE30C170817059
:10288000704700003804002038B50246174801247C
:102890000068AE30022A1FD0052A03D0072A07D0CD
:1028A0000B2A20D1084609794088FFF7AFFE1AE0CD
:1028B00000790024020600D50124820703D1C20654
:1028C00001D480060FD5084600216A46117069467A
:1028D00009F084F8044606E08178490703D50179B8
:1028E000FB2211400171204638BD00003804002051
:1028F000704700000FB410B5079C01282DD1684621
:1029000080891749884210D103A80FC800F0AEF99A
:1029100000281DD106F03AFFFA281ED001281CD944
:102920002078F3210840207017E00D49491C8842A7
:1029300008D0C91E884205D0491C884202D0C91C53
:1029400088420AD103AC0FCC00F090F9002800D0E7
:10295000632010BC08BC04B018470020F9E7000051
:10296000022A0000FFB5074671480D4604688FB083
:10297000AE34A1781E46C80602D5E078C0067DD4E4
:10298000880607D5E0788006800F03D0022F01D09B
:10299000002E73D08806800F06D0022F08D0032F98
:1029A00006D0002E6AD003E0012F01D0002FF8D10D
:1029B000880603D4002D01D0012D5FD1002E06D151
:1029C00030200140384602F001FD002856D111990F
:1029D00000200870A0788006800F7DD00CA908A880
:1029E00003F00CF807900DA90AA803F033F806903D
:1029F0000798002802D00698002801D1012E58D14E
:102A0000022F04A807D001F04BFD002E3CD0079800
:102A1000002803D012E007F0F1FAF6E7444F4548EA
:102A20003B68062208A9181805F082FA00283868C1
:102A300008D04030417E4908490041760698002878
:102A400005D014E04030417E01221143F5E7384FB4
:102A500038483B6806220AA9181805F069FA0028C8
:102A600038680CD04030417EFD22114041760798F5
:102A7000002809D00698002806D01AE043E040302C
:102A8000417E02221143F1E72948062203682948C2
:102A900004A9181805F050FA052069460873002E9D
:102AA00002D1084608F008FC23480290684608F066
:102AB000B5FBA078800611D511980321017020790B
:102AC000C10603D5002D01D0022D1CD1800605D5ED
:102AD000012D03D0032D00E018E014D1A078C0062A
:102AE00023D51199012008702079C10601D5002D48
:102AF00009D1810601D5012D05D1000615D5002D7E
:102B000013D0012D11D0422013B0F0BD012F0CD1F4
:102B1000002E0AD10648062203680648611D1818CF
:102B200005F00AFA1199012008700020ECE7000076
:102B300038040020DE060000A0BB0D003EB50BF0FF
:102B4000B9FA04460BF044FB082C01D1082813D035
:102B50000A480B49006806224118684605F0ECF95E
:102B600068464079400601D5022000E00320012399
:102B700002AA0021FFF7F6FE3EBD00003804002047
:102B8000DE0600001FB50E480468AE34E07801068A
:102B900012D5A178C9070CD0800708D50420694652
:102BA0000873684608F088FB022009F065F90020E8
:102BB000E0704006400EE07000F032F81FBD0000EB
:102BC00038040020F0B58DB00C4616A9E0C90021EC
:102BD000089109910A910B911599049105A9E0C1F9
:102BE00012A962C90093019113460146039602950A
:102BF0002246012008F0A4FF0DB0F0BD10B502F090
:102C000049FD10BD0A07920F01D0422070478A0784
:102C1000FBD002788907890F0A43027000207047B1
:102C2000704742207047000010B50446022000F0B3
:102C300051F80D4800210268052040021018A0320A
:102C40008369107B05E04A019A5A002A04D0491C86
:102C5000C9B28842F7D810BD48011C52C018026999
:102C600004210A43026110BD380400201FB582B060
:102C7000002401F071FC694601F0FCFB009A6846F3
:102C8000116A0089203209E023235B5C012B04D107
:102C90000B89834201D1641CE4B209689142F3D1EB
:102CA000204606B010BD000010B5044601460420C1
:102CB00002F01CFA002809D00548E3210068C90089
:102CC000401821463C3009F075FC432010BD00003F
:102CD0003804002004490A683B21490151180A7848
:102CE00002430A70704700003804002000B5113814
:102CF000C0B2FFF737FC002804D001220169520559
:102D00001143016100BD012189078A6A02438A6279
:102D10007047012292070029D16901D0014300E0E8
:102D20008143D16170470CC8012189070838012B04
:102D30000B690BD093430B618268012A08D0002AEB
:102D40000AD04A69006802434A6170471343F2E7B8
:102D50008A6903681A4302E08A6903689A438A61B0
:102D60004A6900688243EFE701218907496A014205
:102D700001D00120704700207047000038B507F0EF
:102D800075FC0E4C800000198038C06FFFF7ECFF17
:102D9000012812D107F06AFC800000198038C06F4A
:102DA000FFF7B1FF064800688168684688476846B3
:102DB0000078012801D10349087038BD1824071094
:102DC000E8030020D6030020F0B5027901239B0719
:102DD0000168002A02D0062A03D006E05C688C4312
:102DE00002E05C6800220C435C6000210F2405684F
:102DF000CD40ED07ED0F37D0082909D2DE6A8D00EE
:102E00002746AF40BE431746AF403E43DE622BE04D
:102E10000D46083D082D0AD28D002646203D1F6B29
:102E2000AE40B7431646AE4037431F631CE00D4625
:102E3000103D082D0AD28D002646403D5F6BAE4006
:102E4000B7431646AE4037435F630DE017290BD9F1
:102E5000114E8D002746603D368BAF40BE4317466E
:102E6000AF400D4D3E432E83491CC9B21A29BED333
:102E700041790129D968026809D09143D9608179E3
:102E800001299968006804D081439960F0BD11431D
:102E9000F4E70143F9E70000200000400149086021
:102EA000704700004000004001218907C863704757
:102EB0000021016001718171417170470121890711
:102EC0000A6842400A607047012902D0034908603D
:102ED000704701218907C863704700004000004027
:102EE00003480068AE3080788006800F704700008D
:102EF00038040020F3B597B00D8848880590081D68
:102F00001DC80DAE1DC68C8ACE8A087E1390C86976
:102F100020310190087800904878049088780390D8
:102F2000C87802900F7900F0BFFD002817D101206A
:102F3000400284425FD8B4425DD8002F01D1B44230
:102F400059D114A9284601F095FA002806D115AAEE
:102F50001499059801F07EFA002802D0602019B07B
:102F6000F0BD149D11A92846183004F0BBF910A833
:102F70008088002810D0284612A9203004F0B2F929
:102F800010A8838800892A8D1818696A10188A8BFE
:102F9000904203D16120E2E74820E0E715982C4BEE
:102FA00002899A4227D12322125C012A23D1006888
:102FB00000681690139801281FD16846808E292238
:102FC0001202801A030008F048FD060418040407E2
:102FD0000A18022C0FD110E0072C0CD10DE0042CA4
:102FE00009D3E00707D1012F07D1A64203D3042E4E
:102FF00001D3F00701D04220B1E702980B90039B68
:10300000049A0A9309920098019A0C9708900696E0
:10301000059407920DA81DC8019002A81CC0139822
:103020000B4600902A461699179800F0AFF9002831
:1030300095D168460649808EFF31884205D01798A1
:10304000018800200A4601F09BFD002087E7000070
:1030500003280000F3B5A5B008881A9088780C46BC
:1030600011901022091D13A8FCF7AEFCA08A109045
:10307000A17D68460172E07D0F90207E2090677EE2
:10308000A07E1F90002006460146129020A80181D4
:103090000F20BB4C2390E3212068C90040181990F1
:1030A00000F002FD00280BD101211098490288424E
:1030B0005FD821A91A9801F0DDF9002802D060201C
:1030C00027B0F0BD2198179001F046FA1A9988426E
:1030D0000CD102A801901698009013AD0ECD119856
:1030E000FFF708FC002801D06320E9E76846017A71
:1030F0008806800F05D0012012902068A030007B48
:103100004600C80703D01298401CB61C129008064F
:1031100003D51298401CB61C129017980DA91830B0
:103120001D9004F0DFF86846129C808EA41CA0421B
:1031300037D317980EA92030019004F0D3F86846D1
:10314000018F00290DD01798179A6B46406A9B8E05
:10315000128D5918808B5118081AA04201D2612093
:10316000AEE71798846911982568012803D00228D2
:1031700003D04220A4E7052000E01320E0832A4684
:1031800039460F98FEF779F8422899D0199FE28BBB
:103190004037788B398B411A10981018801981426A
:1031A00001DA48208CE70EA9019804F09BF86846E4
:1031B000008F0028179802D0406A808B00E0008DB5
:1031C0002599401C0880259801210088A083259816
:1031D00002220088401CA8836A48208120462030B3
:1031E0001790C1700021817081711998398B406DE1
:1031F00040186946A061097A0170A06929461C310E
:10320000401C04F099FE11980128A0697ED010227C
:1032100013A9C01C04F090FE2846102213A9083000
:1032200004F08AFE388B133038832E4620361198EE
:10323000F0701098E8831F98B07010982084109850
:1032400028841998398B406D4018A8610021109A84
:1032500004F076FE398B10980818388317990120EE
:10326000087117990020487130716846007A81070B
:1032700001D50121317101070227002902DA3179D4
:1032800039433171410703D531790422114331713A
:10329000400603D530790821084330710F987071CA
:1032A0002098B07121461D9804F045F821460198F8
:1032B00004F022F829461D9804F03DF829460198AB
:1032C00004F01AF81298002841D068461A998181B2
:1032D000A18BC18107844784012408A8047122A816
:1032E0000A9008A88473239941730F9938200140EC
:1032F00008A801730721C173002505746846007A88
:10330000C00708D020486946088200E02AE003A9E7
:1033100024A8FFF7EFFD6846007A8006800F07D0EB
:1033200019486946401E088203A924A8FFF7E2FD58
:103330006846007A00060AD52921090268460182FA
:1033400008A84473057303A924A8FFF7D3FD2598A3
:1033500001881298401C081882B2002001F010FC6D
:103360000020ADE6022213A9C01C04F0E5FD2846AA
:10337000022213A9083004F0DFFD388B401D53E70B
:10338000380400200328000003290000FFB552483C
:10339000E322006887B0D2008218069210AA109B20
:1033A0000126169F9288012B04D14C4B9A4201D1E1
:1033B000A030067B069D34464035688B2B8B7C43C2
:1033C000C31A099820300390A34222DA48200BB098
:1033D000F0BD2320405C012819D108896C4620806B
:1033E00098420CD03D4C641EA04208D0641CA04200
:1033F00005D0641CA04202D0A41CA04207D1374CC7
:10340000FF3CA04201D0904201D16220DFE7096871
:1034100001E029231B0203988142DAD109981B9904
:10342000846918982246FDF728FF4228CFD01C98BF
:10343000012804D11598874201D24220C7E7159888
:10344000E083204620301C990590817027840A98DB
:10345000808B401CA0831098012814D02046102295
:1034600011A9083004F068FD05991098C8700698F5
:10347000298B406D4018A061298B3846704308188D
:10348000288300250FE011A80FC808340FC4183C8A
:10349000EAE72846A16978430818159A179904F0B5
:1034A0004BFD6D1CEDB2B542F3D3059918984871E8
:1034B00005991998087105991A98887109982146F3
:1034C000183003F038FF2146039803F015FF0798E2
:1034D000A18B018000207AE7380400200229000037
:1034E000FFB58FB014460E78102205A8891CFCF792
:1034F0006BFA5048E3210068C900451800F0D4FA7F
:1035000000281ED1002C57D0012E09D16846808A90
:103510004949884204D12846A968083081424BD1E4
:103520002846103029690390814209D00AA928460B
:1035300003F0D8FE6846018D601E0D90814202D2D4
:10354000482013B0F0BD284608300CA9049003F0C1
:10355000C9FE6846008E002814D0EF680AA93846D4
:10356000183003F0BFFE384620300CA903F0BAFE35
:103570006846398D008D09186846008E401C081871
:1035800087B200E0012701200004C01BA04201D245
:103590006120D6E72C69286801901298012802D092
:1035A000022803D008E00520C00200E0234860851F
:1035B000012E03D0022E05D04220C2E7204608305B
:1035C000022202E020460830102205A904F0B4FCD3
:1035D000204631462030064601730F982146078069
:1035E0002785039803F0A7FE2146049803F084FE84
:1035F00027461837E7616662A76126620D9884B294
:103600000BE02846019903F096FE3846019903F035
:1036100073FE2868641EA4B20190002CF1D10F98AB
:1036200001880D98081882B2002001F0A9FA002044
:1036300087E700003804002001180000012800007E
:10364000F7B5064639480F460068E321C90044181B
:1036500082B03046FEF774FE050064D02046243068
:10366000009008F0BDFF00285DD1286900035AD5FD
:10367000009808F06FFF044653E0A088B0424FD195
:1036800020223146002004F00FFD06001CD0A06867
:10369000002F017B427B19D033460498FCF796FB40
:1036A000002001212A69C9048A432A6100282ED0FA
:1036B000692806D03046FFF7F7FA29691020014340
:1036C0002961002005B0F0BD6420FBE70A2906D07F
:1036D0000C290AD00E290ED0082912D023E0324638
:1036E0002146284605F048FEDBE7324621462846BB
:1036F00005F031FAD5E732462146284605F026FD89
:10370000CFE732462146284605F0B8FBC9E72146F7
:10371000009808F06CFF0121204604F021FDC9E764
:103720002468002CA9D14120CCE7000038040020F7
:1037300002460948E3210068C90041188868083139
:1037400003E0038D934202D200688842F9D1884297
:1037500000D100207047000038040020034610B557
:103760000F48E3210068C90041188868083103E068
:10377000148D9C4203D8104602688A42F8D18A42CE
:103780000CD1018D994209D20146026A20318A4248
:1037900003D0416A898B994200D2002010BD0000FD
:1037A00038040020024610B50B48120501680520B8
:1037B0004002081883690020120DA031097B07E040
:1037C00044011C5B2405240D944203D0401CC0B26C
:1037D0008142F5D810BD000038040020F7B5054639
:1037E0001746019808F0B6FE2E050446360D0CE08B
:1037F000A0882568B04207D12146019808F0F7FE5D
:103800003946204604F0ACFC2C46002CF0D1FEBD1D
:10381000F0B58BB0002064490290E3200A68C00034
:10382000141872B610464030C57902231D43C57185
:1038300062B625464035287AC0077DD00520400273
:103840001018002687694AE071017A5A002A44D08C
:10385000C919069109694A021FD48A0227D5022193
:1038600004910699012309880905090D03911B217B
:1038700089014118C97E89070FD51121C901083076
:1038800040182322C06F022108F050FA010004D032
:10389000039A8A80049808F035FA06980088009008
:1038A000069800F083F8009806F054F915E04807F0
:1038B00013D5069800880005000D06F027F90028AA
:1038C00005D1069800880005000DFDF7E3FC069978
:1038D00004200969814306980161761CF6B23248DA
:1038E000AC210068095CB142AED804F04BFF204621
:1038F0002430064608F074FE012802D0012004F0AE
:1039000043FE2046183008F06BFE012802D000204C
:1039100004F03AFE3C34204608F062FE01280FD045
:1039200002A9204608F085FE0420029901F0DEFB82
:103930000028F0D0204600E034E0029908F027FE8D
:10394000287A00062ED5304608F04AFE012829D1F3
:10395000002004F085FBA98B23314909491CC9B219
:10396000FCF708F800281DD00F4D044628681121E7
:10397000C90108304018422601233822C06F314661
:1039800008F0D4F901000DD000228A80CC803046A6
:1039900008F0B8F93B212A68490151180A788020BB
:1039A00082430A700BB0F0BD38040020F0B5044625
:1039B0003C48E3210068C9004518218A85B0890484
:1039C0001AD5022104911B2189014118497F412602
:1039D00027880123C9070FD01121C90108304018D9
:1039E0003122C06F022108F0A1F9010004D08F80BC
:1039F0008E71049808F086F9294620880122183132
:103A0000FFF7ECFE2946208801223031FFF7E6FE61
:103A10002946208801222431FFF7E0FE294620882C
:103A200000223C31FFF7DAFE20880005000DFFF789
:103A3000B9FE8500294611316846017307F03CFC48
:103A4000294612316846017307F036FC29461331C6
:103A50006846017307F030FC68461435057307F0BB
:103A60002BFC208800F028FA208801050D48090D5C
:103A70000268052040021018828F914201D1002176
:103A80008187E069002802D0012104F069FB20222F
:103A900000212046A56804F053FA1720A560608035
:103AA00005B0F0BD3804002010B50B48E3210068D4
:103AB000C90044184034207AC00709D0002004F01F
:103AC000CFFA217A890701D5002803D0002010BD44
:103AD000472010BD642010BD38040020F0B55FA061
:103AE00099B000685E491590E3220868D2008418F6
:103AF00005225202821892692546403514922A7A8C
:103B0000D20702D0622019B0F0BDAA8B01235B025C
:103B10009A4201D9AB8303E0172A01D21722AA8364
:103B2000149AA0301392067B0DE0761EF6B213981D
:103B300071010F18B8680F9038462022002104F058
:103B4000FFF90F98B860002EEFD120460830E060F2
:103B50006460A06024600830139060612061FF22DF
:103B60000021083008F00BFD2046FF220021243000
:103B700008F005FD2046AA7F0021303008F0FFFC48
:103B80002046FF2200213C3008F0F9FC00222A7276
:103B900010461721324B05E0149E4701BE19401C08
:103BA0007180C0B21E68A036367B8642F4D80020F1
:103BB00028832F8C688C0026149008E02820E16C64
:103BC00070430918204603F097FB761CB6B2BE423C
:103BD000F4D3002608E03020216D704309181398B3
:103BE00003F08AFB761CB6B214988642F3D3012008
:103BF000FFF770F80124684604701A494180234693
:103C0000042269460CA8FFF76BFC002822D1684605
:103C1000018E818214490183042606858475202142
:103C200008A881720024C47204730721417384734D
:103C300005A90DA8FFF70EFA00280BD168460487E6
:103C40004687818E15AB0EAA008E00F0EBF9002896
:103C500000D158E700202872472054E70000FFFFFA
:103C60003804002001180000052A0000F8B50446B9
:103C70007D480E460068E321C90047184820C05D12
:103C8000C0077BD0B088FEF75BFB0546012C02D055
:103C9000002C75D0E6E0002D0CD0286941074AD4ED
:103CA000B268F188147B0029F4D062060CD56888CC
:103CB000884201D20121B2E0D22C01D0522CF9D19C
:103CC0003846314618303FE0A106890E1E293ED8FD
:103CD0001E2C21D101071FD508218843286129887E
:103CE000012007F0B3F80121304604F039FA5E48AC
:103CF00011210068C9010830401842242D88012391
:103D00003922C06F214608F011F8010003D08D80E0
:103D1000204607F0F7FFA5E0E1070AD01D2C10D0E0
:103D20001B2C0ED0410529D4012189020843EE61E4
:103D300092E0C00601D54520F8BD2988002007F093
:103D400073F838463146243008F034FC8AE029887C
:103D50002022002004F0A8F905000FD001213046F0
:103D600004F0FEF92B46002221460620FCF72EF82F
:103D70002846FEF799FF75E000E001E04120F8BD1C
:103D8000B068047B1D2C3AD01B2C41D0002130465A
:103D900004F0E6F9032C46D0052C44D0072C42D081
:103DA000092C40D00B2C3ED00D2C3CD00F2C3AD0FF
:103DB000112C38D0132C36D0172C34D0192C32D0EB
:103DC000012C30D0022C35D0042C33D0062C31D02D
:103DD000082C2FD00A2C2DD00C2C2BD00E2C29D017
:103DE000102C27D0122C25D0162C23D0182C21D003
:103DF000522C1FD0D22C1DD01E2C2FD032E0002DE3
:103E000003D02988012007F00FF83146022001E095
:103E10003146012006F004FF002823D0002130465F
:103E200004F09EF91EE02969102081432961298848
:103E3000002015E02869402188432861010511D53B
:103E4000FF210131084328612988022006F0ECFF98
:103E500001212869C9028843286103E029880320D9
:103E600006F0F4FF0020F8BD3804002010B5114A18
:103E7000E3231268DB00D2184032127AD20706D050
:103E800002280AD0052804D00B2810D101E04120D7
:103E900010BD4888FEF7C8FE09E04888FEF750FAD2
:103EA000002804D00122016992051143016100201C
:103EB00010BD000038040020F1B5FFB085B04720E8
:103EC00001900020694608805348E3210068C9003A
:103ED00047188498FEF734FA0290002874D0B96825
:103EE00008374FE0684600880D4604AC20186B4642
:103EF000022228310EF00DF9684600882946201864
:103F00006B4601222C310EF004F92E462036307B10
:103F100069460128098804A809D040186B46102278
:103F2000294608310EF0F5F801902C6A27E0401878
:103F30006B460222F4E76946098804A84018214626
:103F40006B4602221C310EF0E4F86946098804A889
:103F5000401821466B46012223310EF0DAF8232067
:103F6000005D69460128098804A830D04018214620
:103F70006B46102208310EF0CCF801902468B44250
:103F8000D9D12968B942ADD1019800281CD1684621
:103F9000008881070AD0214A011D11406A4611801C
:103FA0000A1A04A908180B2103F0CAFF0298008816
:103FB00005F0ACFD002807D1849869460005000D86
:103FC00004AA098805F004FC7FB006B0F0BD4018D3
:103FD00021466B46022208310EF09BF801902089A1
:103FE0000F498842CAD120460299FEF78BF840005B
:103FF000A16903906A460918128804A880186B46C4
:1040000002220EF086F80190A16903980222081896
:10401000002103F095FFB1E738040020FCFF000009
:1040200002290000F0B5074617480E4600683B21FC
:1040300049014018007885B01D461446C00706D0D7
:1040400003A9384600F016FA00280AD102E04720FA
:1040500005B0F0BD04AA3046039900F0FBF9002832
:1040600001D06020F4E70499228860880968002A5A
:1040700000D0088C32466E4631C6032339460020F4
:1040800000F004F8E4E7000038040020FFB5002049
:1040900099B0239A0B9012900546149006461590FD
:1040A0001C46DB480B460068E321C9004118039118
:1040B0000021229F089109915188069111880A9147
:1040C0003B21490140180078C00706D00FA91846C7
:1040D00000F0D0F900280AD102E047201DB0F0BD61
:1040E00010AA0F991B9800F0B5F9002801D06020A4
:1040F000F4E71998002803D0600701D5012000E0FB
:1041000000201390A007800F1C901098179020306B
:10411000C078012840D11798BE4B01899942F9D146
:104120001798069904680A98228C4118914233D84E
:104130002046203016908078012816D0E08B04901D
:104140001798806900788006800F7DD003984030F2
:104150001890007A800777D51C980028F5D0AD4FCD
:104160000F99FF372031206814E0BA4214D3B942C6
:10417000DDD80497E4E70389A64A934203D12322BA
:10418000125C012A08D0BB4203D12322125C012A0F
:1041900003D000688842EED134E105900028FBD0BE
:1041A0009B4805210268490251188969002700913E
:1041B00062E0780100990390085A01055AD01999D4
:1041C000002901D0884255D105997A008B69511C8C
:1041D000595C9A5C0902891889B20D91890749D006
:1041E00002220599FCF798F9002804D019980028B4
:1041F00040D0652072E7002008A9C8551C98C00768
:1042000018D0179880690078C00613D50D98C0079C
:1042100010D00120C8550543009A039880184088A3
:10422000159A904206D91590009A0398105A0005E5
:10423000000D14901C9880071CD517988069007891
:10424000800617D50D9800E084E0800712D5022083
:10425000CA5D05430243CA55009903984018408837
:104260001599884206D9159000990398085A0005B7
:10427000000D14907F1CFFB265480068A030037BDE
:10428000BB4296D8002D65D01898007A00065FD4FE
:104290005F480168052040020818816900201BE082
:1042A00042018E5A360515D0AE070BD55618366921
:1042B000B7070DD408AF3F5CBF0703D5360701D55C
:1042C00046200BE7EE0705D05218127CD20701D02A
:1042D000432003E7401CC0B28342E1D81598C01EBA
:1042E00086B20498864200D90646A8070FD5202238
:1042F0000020149903F0D8FE129000287DD0F01C05
:1043000082B20021129804F05AF8002811D1E8076F
:1043100020D020220020149903F0C6FE0B90002824
:1043200007D0F01C82B200210B9804F048F8002856
:1043300010D08020FEF7CEFC1298002802D0002179
:1043400003F00EFF0B98002802D0002103F008FFB5
:104350006420C3E6A1690A98069A0818249903F014
:10436000EBFD16988078012801D10498E083002D98
:1043700046D0274B052019684002081881690020A3
:1043800008AA0CE04301CF5A3F0506D05F18BC468F
:104390003B69175C3B4367463B61401CC0B21C4B0A
:1043A0001B68A0331B7B8342ECD8A8070DD512985D
:1043B0000090F01C82B221461C310220A369FCF758
:1043C00027FF0220129906F02BFCE80718D00B9863
:1043D0000090F61C2146B2B21C310120A369FCF703
:1043E00017FF1398002805D00B988021C07C084344
:1043F0000B99C87401200B9900E005E006F010FC51
:1044000000206BE6422069E68020FEF763FC9FE710
:104410003804002003280000F0B58468083015E057
:10442000258D8D4203D1146018600120F0BD264611
:104430001C602036256A06E0AF8B8F4202D1022035
:104440001560F0BD2D68B542F6D124688442E7D1ED
:104450000020F0BD10B50B6A203106E09C8B844231
:1044600002D10020136010BD1B688B42F6D14120A1
:1044700010BD000010B5094AE3231268DB00D21812
:104480009368083206E01C8D844202D100200B6044
:1044900010BD1B689342F6D1412010BD38040020A6
:1044A000F8B5204E04463568AE3500F017FA207096
:1044B000000A607000F012FAA070000AE07000F0CC
:1044C0000DFAC2B28004830E227100216371084686
:1044D000275C401C7918C0B289B20628F8D300299D
:1044E000E3D02078FF280CD16078FF2809D1A0788C
:1044F000FF2806D1E078FF2803D1FF2A01D1FF2B46
:10450000D3D00622691D204603F012FD0028CCD02E
:10451000316806222046783103F00AFD0028C4D015
:10452000F8BD00003804002001490968896808477F
:10453000E403002008B5064800688168684688479B
:1045400068460078012801D10249087008BD0000C2
:10455000E8030020D603002002480068AE3000883F
:10456000704700003804002010B50F4C002803D01D
:10457000012809D002280FD006F078F80C21484312
:1045800000198038406F10BD06F070F80C214843C8
:1045900000198038806F10BD06F068F80C21484380
:1045A00000198038C06F10BDF023071010B5034903
:1045B00006220968B33103F0BFFC10BD38040020A7
:1045C000F7B5164600241CE0009811490019401860
:1045D0008108019889000019427805781202154374
:1045E0008278C0781204000602430948154340420D
:1045F0000F1829463846FDF733FD3868854204D147
:10460000241DB442E0D30020FEBDFB20FEBD00000F
:104610000000FCEFF0B50E460746002407E03D1908
:1046200000F05CF92870000A6870A41CE4B2B4427F
:10463000F5D3F0BD0F4910B528390E4BCA691206E3
:10464000120F4270C9690907090F817019680A4C75
:1046500001234160A14202D10221017000E00370F8
:10466000002A00D143700549898A491C890081606C
:1046700010BD00002800904041A000020000104042
:1046800010B5012818D8072916D80C4A1268134605
:104690002033187759778007C906000E090E0143A9
:1046A0000020074BA03204E08401E418A172401CF2
:1046B000C0B2147B8442F7D8002010BD380400201B
:1046C00000010020074A914202DC5242914200DA86
:1046D0001146FF22993251430A1251180A145118F7
:1046E00008187047FFFF4F00401AC01081004018A3
:1046F0000012704710B50920C00600690002000AC8
:1047000006F006FE10BD70B50D460446FFF7F2FF39
:104710002946FFF7D7FF0146204600F001F870BD9B
:104720001FB56A463A3010736846029106F088FD5C
:10473000002800D0012004B010BD0000012801D1E4
:104740000149487070470000D4030020F0B5444F81
:104750000446386885B0783016460D46002C19D0CE
:10476000062C11D0082C0CD0182C0AD0282C0BD0D9
:104770002A2C09D02C2C0AD02E2C0BD0D02C42D095
:1047800043E0102D08D040E0022D05D03DE0012D82
:1047900002D03AE0062D38D10A460019314603F01E
:1047A000CBFB2C2C28D13078002825D009F0F6FB43
:1047B000012824D01B201F304009401C4100411813
:1047C000012003F03BFC09F0E9FB012819D01B2074
:1047D0001F3040094100411822484078401AC01E4D
:1047E000C1B2002003F02AFC386840224030017832
:1047F0001143F92211400170002005B0F0BDFB20EB
:10480000D9E7FB20E4E7012D04D009F0C7FB01281C
:1048100004D007E0107805F090FBEEE7D12C01D131
:10482000082D01D01220E8E702223146684603F045
:1048300083FB0222B11C01A803F07EFB0222311D82
:1048400002A803F079FB0222B11D03A803F074FB58
:10485000684683890289818800880BF0B5FCCCE723
:1048600038040020D80B002070B51A4C1B25206896
:10487000AD0141190026184B0E720622FF21C01807
:1048800003F05EFB206820214019C673017409F013
:1048900085FB01281CD01F2021680F4B4919487443
:1048A0002068093307220021C01803F049FB0A4B96
:1048B000206810330522FF21C01803F041FB064B8E
:1048C00020681B33FF220021C01807F058FE70BD7E
:1048D0005F20E1E738040020C906000000210B201A
:1048E0000007026852070DD5026804239A4302604C
:1048F000026808231A43026004E0491C052901DD0F
:104900000020704742689207F7D54168C907FCD07C
:10491000806880B2704710B5FFF7E0FF0446FFF7EC
:10492000DDFF0004201810BDFEE77047704710B58A
:104930000A888B884C881A43CB88640023431A4327
:104940000B8949891A43C9030A43C26010BD8163B8
:1049500070470174704701688022114301607047FD
:10496000006B084000D00120704740690007800FAD
:104970007047000070B5044600680D4640084000CE
:104980002060206803214903884369798907490C1D
:1049900008432060687922494000085A2968214A62
:1049A0004843101A204A3026914209D84900FAF7A4
:1049B000E1FF2168B14321606168320389B20EE0F2
:1049C0001A4A91420DD84A008918FAF7D3FF216894
:1049D000B143103121606168012289B25204891803
:1049E00061606168EA88890A890211436160218DEA
:1049F000208520680621884329798907490F0843C3
:104A00002060297A08200129216806D0814321608D
:104A1000206801210843206070BD0143F7E70000D2
:104A2000D40200200024F400A0860100801A0600B1
:104A3000007E704703490160002101714171C1800E
:104A400001727047881300000068000601D501203C
:104A50007047022070470000F0B5454C05252668D8
:104A60006D027019406C0027416B4248AE368DB024
:104A7000814242D006216846FFF7CCFD694648795D
:104A8000C021084369464871206806224019406CDD
:104A90002430FFF795FD0746102105A8FFF7BAFD62
:104AA000206810224019406C05A9001DFFF788FD01
:104AB0000743102109A8FFF7ADFD20681022401917
:104AC000406C09A91430FFF77BFD0146394313D12F
:104AD000206829494019406C264F40188008810001
:104AE0002648081839460490FDF7BAFA0498006879
:104AF000B84201D1002700E0FB2722685019406C22
:104B0000A63224300190062001460090002009F0D2
:104B1000ECFF002802D12068A6300190701D009A99
:104B2000019903F009FA22681026314600208032EC
:104B300009F0DBFF002807D0206832464119496C94
:104B40008030091D03F0F8F92268314600209032C8
:104B500009F0CBFF002807D0206832464119496C84
:104B60009030143103F0E8F938460DB0F0BD000084
:104B700038040020AAAAAAAA3400FCEF00000410FE
:104B800030B50F4BE3251B68ED005B19403304463D
:104B90001B7A412085B09B0710D56B469981DA813D
:104BA000002018820420588203AA04A96D4607C574
:104BB00002231A4601212046FFF768FA05B030BDEE
:104BC000380400201FB500216A461173124C134AA5
:104BD000626110487D2320616A4653700D23137073
:104BE0009170D17011710221917153710121D171B4
:104BF0001172517201686846884701220D2103A88D
:104C000005F0B8FF20698168054888476069006839
:104C100080471FBD60030020D4030020A0030020B4
:104C2000AC0B00201CB510206A46107004211171D5
:104C30000820D07001205071507003489170C068F6
:104C40000168684688471CBDD40300200246002046
:104C50000146535C002B00D00120491CC9B2062933
:104C6000F7D37047024800682030C07F70470000CB
:104C70003804002070B50E4605460146202200206B
:104C800003F012FA040023D0284600F0D3F8050000
:104C900027D02879B04224D1A87880071FD4A068F3
:104CA00001210173A06800214673A0680226867363
:104CB000A068C173A0680174A06841740620E080F8
:104CC0002146052000F012FA002803D0412509E012
:104CD00064250BE0A8783043A870002506E046253F
:104CE00000E042250021204603F03AFA284670BD34
:104CF000FEB50488418801918688C78800890090A4
:104D0000204600F097F8050066D0E878002863D0C8
:104D1000A8780007400F01D046255EE020222146FA
:104D2000002003F0C1F9040048D001992C48891FE4
:104D300081424BD8B11F814248D80198B04245D832
:104D4000FF20F530874241D20099781C70438900DA
:104D500088423BD822490098091F0A38884235D832
:104D6000A06812210173A068E9784173A068082146
:104D70008173A0680021C173A06801990174019931
:104D8000A068090A4174A068310A8674A068C174D9
:104D9000A068390A0775A0684175A06800998175F7
:104DA0000099A068090AC1750C20E0802146052001
:104DB00000F09CF9002803D0412508E064250CE0B0
:104DC000A87806210843A870002506E042250021A6
:104DD000204603F0C5F900E042252846FEBD00004C
:104DE0007A0C000070B514460D4600280BD1114610
:104DF000284605F069FA21462846FFF737F821468C
:104E0000284600F0A3FA70BD70B505460C46002098
:104E100000F010F800280BD02905090D01800021B1
:104E20008170002C01D10821817001210171C170B4
:104E300070BD000030B502460A4811230068DB014E
:104E40000021C318A030047B07E0586E0D01401903
:104E50000588954204D0491CC9B28C42F5D800207F
:104E600030BD00003804002030B50A49112309681C
:104E70000246DB010020CB18A031097B07E05C6E05
:104E8000050164192488944203D0401CC0B28142B9
:104E9000F5D830BD380400208068017A407A0002DD
:104EA000081880B27047000070B50023134A1DE057
:104EB0001125ED0140191901466E0024C81C345417
:104EC00010684019466E081D345410684019406E31
:104ED000445210684019466E084608303452106833
:104EE0000C314019406E5B1C4450DBB21068AC21A1
:104EF000095C9942DCD8002070BD00003804002015
:104F000010B5024688680C46817AC07A00020818FB
:104F100081B2E088001FE080042909D005290CD067
:104F200006290FD00121204603F01AF9002010BDF8
:104F300021461046FEF79AFE08E02146104600F092
:104F40002BF903E02146104605F044F90028EED085
:104F5000E188091DE18010BDF3B581B00D46002642
:104F60008888FFF767FF07002FD03C46287B08346E
:104F70000228F8682ED0002834D0E888218840180C
:104F80002080284603F066F861688A68014610466A
:104F900002F0E9F90121284603F0E2F801206168F6
:104FA00003F018F86068FFF777FF001D218880B2D2
:104FB00081421FD881421BD16168C8806168019815
:104FC000FFF79EFF06000FD017E00121284603F0EF
:104FD000C7F812E0002801D04526E3E76560E888BD
:104FE0002080DFE7656005E000206060208004E04D
:104FF000452E02D1384600F0BBF93046FEBD0246D0
:1050000010B50020002A05D0012A02D11046FFF772
:10501000A3FF10BD1046FFF773FF10BD70B5054626
:10502000801E0C46030006F018FD0A0C1C1C061816
:105030000B0B0B0B060B0A4620782946FFF7D2FE16
:1050400070BD2846FEF712FF2146284605F03CF9C0
:105050002146284600F07AF970BD284605F034F95B
:1050600070BD62880978284605F02AF870BD0000F6
:10507000F0B585B0FFF7F8FE1B4D04462868A03058
:10508000007BA0422DD9204632306946087368461D
:1050900006F012F911262868F6018019426E0021E7
:1050A00024011153286827468019426EE01C1154D0
:1050B00028680C378019426E201D11542868801909
:1050C000406EC05900280CD0012103F049F829682E
:1050D00000208919496EC85129688919496E083418
:1050E000085305B0F0BD00003804002010B50C4690
:1050F0000146042805D0052903D0062901D05020F7
:1051000010BDA068A2790272E088020AA06842720B
:10511000A0688172A068090AC172E088001DE08061
:10512000022020732046FAF7D5FF0028E8D0E08857
:10513000001FE080412010BDF8B532380106022082
:10514000144E009011253068ED010C0D42191B2101
:105150008901526E4118897E175B012349070CD5DE
:10516000083040191E220221C06F06F0DFFD010049
:1051700003D08F80009806F0C5FD316800204919E2
:105180004A6E211D505431684919496EE41C085576
:10519000F8BD000038040020F0B50D468DB00021A8
:1051A0000A91A96800280F7B02D0012822D0C5E00F
:1051B000A888FFF759FE634E04463068A030007B94
:1051C000A04215D9122F08D15F48029020463230F4
:1051D00069460873684606F021F811203168C0015D
:1051E0000818406E210140188178FD22114081701D
:1051F0000021A0E0A888FFF737FE06465148AC2200
:105200000168525CB24218D91120C0010818406EE2
:1052100032018418A278100710D5122F10D1500730
:1052200010D4A9882A46422007F046F9A078042124
:105230000843A070A868407B20717BE0132F0AD040
:10524000012F42D0A868417BA888FFF713FD0A9080
:1052500000286FD072E0A868E778437BBB4269D131
:10526000520767D5027C407C01230002101887B2E8
:1052700042200490A88806901B2080010818807E98
:10528000800710D51120C001083108181D22C06FF9
:10529000049906F04BFD010005D0069A8A80CF8064
:1052A000049806F02FFDA078FB210840A070E0785C
:1052B000401C0006000EE07001D10120E07068463D
:1052C0003236067305F0F8FF34E0100732D4A868D0
