:020000041004E6
:10000000006000200D2D041045280410E71804108E
:10001000AA5555AA45554C420000000000000000BA
:10002000000000000000000000000000C73A0410BB
:100030000000000000000000D32A0410CD4204108C
:10004000E90E04108D2804100000000000000000DC
:1000500009450410C53A0410C5090410EB47041003
:100060000000000000000000000000000000000090
:1000700000000000DB050410EB180410E918041060
:1000800000000000EF240410F1240410F3240410F5
:10009000F52404102D2D0410A7280410AB0A041019
:1000A0000000000000000000000000000000000050
:1000B0000000000000000000000000000000000040
:1000C000EFF31482EFF309811C4880F31488BFF327
:1000D0006F8FF0B543464C4655465E466746F8B4CA
:1000E000174CEFF30883236006B4164C2068164CB7
:1000F0002060164C2068164C2060164C2068164C68
:100100002060164C276800202060BFF34F8F30BF5F
:1001100027600B4C246884F3088882B003BCF8BCC9
:100120009846A146AA46B346BC46F0BC04BC80F340
:10013000098881F31488BFF36F8F10470000000017
:100140000800002004ED00E01C03002024ED00E086
:100150002003002000E200E02403002008002040EB
:100160000348854600F0FCF90048004799850410D3
:100170000060002030B50B460146002020220124FB
:1001800009E00D46D5409D4205D31D469540491BCB
:100190002546954040191546521E002DF1DC30BD14
:1001A00010B5441A0346944209D28318891803E013
:1001B000491E0C785B1E1C70521EF9D210BD0C46F5
:1001C0000443A40703D009E010C9121F10C3042A76
:1001D000FAD203E00C781C70491C5B1C521EF9D249
:1001E00010BDD2B201E00270401C491EFBD2704724
:1001F0000022F6E710B513460A4604461946FFF7F3
:10020000F0FF204610BD30B504460020034600E054
:100210005B1C934203D2E05CCD5C401BF8D030BD48
:100220000321001D401E037812021A43491EF9D50E
:1002300010467047F8B502464A40D40F42004B00C2
:1002400052085B089A4202D20246084611464A000A
:1002500023D0C30D4A00DDB2120EAD1A202D35DABF
:1002600049020126490AF6058A19002C00D052429B
:1002700020214F1B1146B9402A411018C20D9A4245
:1002800021D0002C17D0012D08DCDA05801AD20FFE
:100290008019D207DBB200F02AF9F8BDDA05801A1E
:1002A000012340001B06C01880185A428018CA0F4C
:1002B0001043490007E04908C2071143DA05801AD4
:1002C00080194008801800F00AF9F8BD6100012289
:1002D000511A001BF7E70122D2075140AAE7012279
:1002E000D2075040A6E7024670B54A40D30FDB075D
:1002F00040002DD04A002AD0010E140E0002120236
:100300000919400A520A8418E50104465443000AB8
:10031000120A2E045043A4194219200CC543AA18EE
:10032000120C0125AD03521C521912047F3924040A
:1003300000D0521C104301D44000491EC2B20C062A
:10034000C0092018401C4008802A02D003E0002089
:1003500070BD40084000002900DA0020184370BD3D
:1003600070B502464A40D50F40004A00ED074008EC
:100370005208002814D0002A12D0C40DD30D410217
:100380000120C0055202490A520AE41A091812183B
:100390007D34914201D3641C00E04900002C01DA55
:1003A000002070BD0023914201D3891A0343400805
:1003B00049000028F7D100290AD0914202D1012139
:1003C000C90705E0914201D2012101E00121C943A1
:1003D000E005C018401900F082F870BD420005D059
:1003E0004200120E52428A4201DB00207047C905CA
:1003F00008187047C217C10F504010B54018CA07FF
:100400009623002100F073F810BDC20F4100400296
:100410000123400ADB05D207090EC0187F2901DA43
:1004200000207047962903DC9623591AC84001E042
:1004300096398840002AF4D040427047F0B51FB486
:100440000646002082B005464024019100901BE042
:10045000019922460F46304600F030F8049A059B79
:10046000801A994110D310461946224600F016F81A
:10047000361A8F410197224601200021009F00F08B
:100480000DF838184D4100902046641E0028DFDC2E
:10049000019B00982946324607B0F0BD10B5202ACE
:1004A00004DB0146203A9140002010BD91402023FA
:1004B0009C1A0346E3401943904010BD10B5202A12
:1004C00004DB0846203AD040002110BD0B46D34043
:1004D000D0402024A21A91400843194610BD00299B
:1004E00004DA401C490001D140084000704770B454
:1004F0000024050C05D11024000402D1002921D0CC
:100500001124050E01D100020834050F01D10001AC
:10051000241D850F01D18000A41C002801DB4000B0
:10052000641C002908D020252E1B0D46F540A14053
:1005300000D001212943084301061B1B000ADB1DD3
:1005400002D5002070BC7047DB0518188018002900
:10055000F8DA401C4900F5D170BC400840007047F3
:10056000064C0125064E05E0E36807CC2B430C3C06
:1005700098471034B442F7D3FFF7F6FD64940410A3
:10058000F494041070B58C180578401C6B075B0F51
:1005900001D10378401C2A1106D10278401C03E0E7
:1005A00006780E70401C491C5B1EF9D12B0705D440
:1005B0000023521E0DD40B70491CFAE70378401C2F
:1005C000CB1A921C03E01D780D70491C5B1C521E57
:1005D000F9D5A142D8D3002070BD70477FB505463C
:1005E0009868012202739A681C4651739868022227
:1005F00002A90E3002F04FF9A16805200D74E080C9
:100600007FBD000030B589B00C46054601F03CF9CD
:100610001E49096801F032F969460874000A4874F5
:10062000287904AA40428874A88801234042001215
:10063000C87428780875288800124875287A4042BE
:100640008875288940420012C87520790876A088EC
:10065000001248762078887620880012C876207AA2
:100660000877208901AC001248770E210020009104
:1006700007C40748828801880648008804F02CFDDA
:10068000002800D0472009B030BD000044030020FE
:10069000340300203E030020FFB5C8880025401E1B
:1006A00083B00E4687B2012427E0B06802220830EA
:1006B00001196846091D02F0EEF86846008800F04E
:1006C0001FFD01001DD068460A8D0088824212D0AD
:1006D00001AA01F041F800280DD101992620405CC3
:1006E000400708D506986A00101802221C3102F053
:1006F000D2F86D1CADB2A41CA4B2BC42D5D30C98E8
:10070000058007B0F0BDFFB5074683B0002000901C
:100710000D9800F0F5FC054606980C300190002D70
:1007200026D00837BD4223D0288D0E9988421FD885
:100730000D99884213D30E99884210D82946022277
:100740002A31019802F0A7F810220C99069802F0BD
:100750009EF8002809D0298D0E98814208D02E4697
:100760002C6A2036B442DDD03EE00598002101809D
:1007700007B0F0BDA08B0D99884234D30E99884202
:1007800034D8204620300290C078012808D0204676
:10079000083010220C9902F07AF8002808D022E0E4
:1007A000214602220831019802F075F80698F0E718
:1007B00002988079400716D50098002801D1E08B77
:1007C0000090E18B814211D10598022200884100FE
:1007D0000498081821461C3102F05DF80598059927
:1007E0000088401C08802468B442C3D12D6899E772
:1007F00070B50D4D044611212868C9014018902696
:1008000001231A46C06F314604F0F8FA010003D004
:1008100030464C6004F0DEFA0520296840020918D1
:10082000087B401C087370BDA003002010B504466F
:1008300000202082A074A168A1616161206020462F
:1008400001F0EAFB452801D0412010BDA08803211A
:1008500005F0B4FF044606F09DFB002812D072B6E6
:100860000948012201684F20400109184879A24037
:100870001043487162B6002008F0A6F9002801D0A4
:1008800004F044FE002010BDA003002070B5C17C20
:100890000E4D4906490EC174044611212868C9014C
:1008A0004018902601230022C06F314604F0A6FABA
:1008B000010003D030464C6004F08CFA0520296812
:1008C00040020918487B401C487370BDA0030020FB
:1008D000F8B516460D460746002402F01FFF002813
:1008E00006D032462946384600F08FF8044604E028
:1008F00020356879002802D00E242046F8BD2879DA
:10090000C10701D1012E09D0810701D4022E03D0E5
:100910004007F2D4042EF0D10324EEE70224ECE7E2
:1009200070B500210C4A03E0535C491C5918C9B248
:10093000535C002BF8D1CE1C02243525202E04D286
:10094000545451184D708870CB7004490C704D7020
:100950008870CB7070BD0000A40300202803002025
:1009600030B587B00D46044600F08EFF1249096885
:1009700000F084FF69460874000A48748C742012E1
:10098000C87420140875200E48758D752812C87516
:10099000082104AA0020009101AC07C407480123E4
:1009A000428801880648008804F096FB002800D0A1
:1009B000472007B030BD000044030020340300206E
:1009C0003E03002010B502F093F810BDF8B5069C68
:1009D0001F4615460646002C13D0A06802220D3093
:1009E00001F059FFE81E82B23B460721204602F083
:1009F00037F8E580A068012E05D01D210173002085
:100A0000F8BD4720F8BD1B21F8E770B515460C4628
:100A1000064602F06BFE20346179012D09D00A07E9
:100A200002D54207920F0FD0CA0625D5020709D575
:100A300022E0CA0702D04207920F05D08A0705D5E7
:100A4000020703D4082070BD052070BD490707D5F3
:100A5000C00709D0E179304602F0F8FD5F2805D0E3
:100A60002079C00704D005E00F2070BD0C2070BDB8
:100A7000022070BD002070BD890607D5C007F3D0E5
:100A8000E179304602F0E2FD5F28EFD0207981075E
:100A900001D4022D07D0410701D4042D03D0000753
:100AA000E8D4082DE6D1032070BD704700207047C0
:100AB000002101E000BF491C8142FBD370470000C8
:100AC000F3B58BB005461C2248A103A8FFF768FBCD
:100AD000684600F09BFE09240126E406002D67D03D
:100AE0004420694688764848017A314301724C2097
:100AF0006946C87520200875B22048775B2008A990
:100B00000870424A906A4249030C8B420AD108AFEE
:100B1000FB788F273B4008AFFB70FB784007400E07
:100B20000343FB70506A020C8A420AD16B465A7C1E
:100B3000CF231A406B465A745A7C8007800E0243BA
:100B40005A7432484038006B020C8A4209D108AA14
:100B5000D17889088900D170D1788007800F01434E
:100B6000D1706946C87DFB2108406946C875487840
:100B7000897800010843122808D308A9C8780421FD
:100B8000084308A9C870C878FFF7CAFE03A8012166
:100B900080B209044018E060E068C003FCD46946F4
:100BA0004878897800010843122801D303F0E8FA55
:100BB0001849088B0028FCD00E831720888100205C
:100BC00008610C98002806D0216910200140226994
:100BD00002408A42FBD0002D02D00F491520087038
:100BE0000F490E4808600DB0F0BD0000023F000242
:100BF0003E30023C20023B4C023A400239B2023401
:100C00005B02350B0000000000002040C007001010
:100C100055AA0000000010480000C040CCBCECFC0D
:100C20001400002010B5C001000C00F003F80020F3
:100C300010BD000000B508490968084A914209D171
:100C40004006010C06483F2202818161112101808A
:100C500000F022F800BD000014000020CCBCECFC29
:100C60000000104000B5094A1268094B9A420BD1A6
:100C7000084A3F2313818008906106484030016094
:100C80003320108000F008F800BD000014000020A0
:100C9000CCBCECFC000010400248018AC907FCD023
:100CA000704700000000104030B5024623239B5CD3
:100CB0000020012B1AD112890D4B9A4216D10D4AF0
:100CC000052312685B02D318A0329B69127B0AE0ED
:100CD00045010C885D5B24052D05240D2D0DAC42CE
:100CE00004D0401CC0B28242F2D8002030BD0000C7
:100CF00002290000A003002010B50D4900050B6873
:100D00000521490259188A690021000DA0331B7B77
:100D10000AE04C01145B2405240D844202D14801F1
:100D2000801810BD491CC9B28B42F2D8002010BDFA
:100D3000A003002070B50C460B4E81000B483268B2
:100D40000D1801232032D37721462846FFF78AFF6A
:100D500028680021844201D1084600E0FB20326867
:100D60002032D17770BD0000A003002000000410E5
:100D700038B5184A14682246BA32AE34A378DD0773
:100D800001D001290AD05B070CD501290AD02179AD
:100D900049070BD5E17A002905D007E0E0788021EA
:100DA0000843E07038BD0121E1725080207941068E
:100DB000090FF7D078210840694608700020487074
:100DC0006A460221422004F0D9F8207987210840A0
:100DD000207138BDA003002038B502461748012411
:100DE0000068AE30022A1FD0052A03D0072A07D098
:100DF0000B2A20D1084609794088FFF7B9FF1AE08D
:100E000000790024020600D50124820703D1C2061E
:100E100001D480060FD5084600216A461170694644
:100E200003F0CAFD044606E08178490703D501793D
:100E3000FB2211400171204638BD0000A0030020B4
:100E400010B50446022000F033F80D480021026876
:100E5000052040021018A0328369107B05E04A018A
:100E60009A5A002A04D0491CC9B28842F7D810BD4A
:100E700048011C52C018026904210A43026110BDD6
:100E8000A003002010B504460146042000F06AFFCC
:100E9000002809D00548E3210068C9004018214610
:100EA0003C3004F07FF9432010BD0000A003002077
:100EB00004490A683B21490151180A7802430A7023
:100EC00070470000A0030020012189078A6A0243BD
:100ED0008A62704701218907496A014201D00120D5
:100EE000704700207047000010B502F03DFE094C2D
:100EF000800000198038C06FFFF7ECFF012807D190
:100F000002F032FE800000198038C06FFFF7DCFF6E
:100F100010BD000094920410F0B5027901239B07E4
:100F20000168002A02D0062A03D006E05C688C43E0
:100F300002E05C6800220C435C6000210F2405681D
:100F4000CD40ED07ED0F37D0082909D2DE6A8D00BC
:100F50002746AF40BE431746AF403E43DE622BE01C
:100F60000D46083D082D0AD28D002646203D1F6BF8
:100F7000AE40B7431646AE4037431F631CE00D46F4
:100F8000103D082D0AD28D002646403D5F6BAE40D5
:100F9000B7431646AE4037435F630DE017290BD9C0
:100FA000114E8D002746603D368BAF40BE4317463D
:100FB000AF400D4D3E432E83491CC9B21A29BED302
:100FC00041790129D968026809D09143D9608179B2
:100FD00001299968006804D081439960F0BD1143EC
:100FE000F4E70143F9E70000200000400021016020
:100FF0000171817141717047012902D00349086074
:10100000704701218907C863704700004000004015
:10101000F7B5064639480F460068E321C900441871
:1010200082B03046FFF768FE050064D020462430C9
:10103000009004F0CDF800285DD1286900035AD54E
:10104000009804F0ADF8044653E0A088B0424FD1B8
:1010500020223146002001F08DFC06001CD0A06843
:10106000002F017B427B19D033460498FFF7B6FA74
:10107000002001212A69C9048A432A6100282ED050
:10108000692806D03046FFF7FDFE2969102001438C
:101090002961002005B0F0BD6420FBE70A2906D0D5
:1010A0000C290AD00E290ED0082912D023E032468E
:1010B0002146284602F054F9DBE73246214628460D
:1010C00001F035FED5E732462146284602F038F8D1
:1010D000CFE732462146284601F0CAFEC9E721463D
:1010E000009804F07CF80121204601F065FCC9E776
:1010F0002468002CA9D14120CCE70000A0030020E7
:10110000034610B50F48E3210068C90041188868FC
:10111000083103E0148D9C4203D8104602688A42CD
:10112000F8D18A420CD1018D994209D20146026A56
:1011300020318A4203D0416A898B994200D2002033
:1011400010BD0000A0030020024610B50B48120598
:10115000016805204002081883690020120DA031A3
:10116000097B07E044011C5B2405240D944203D055
:10117000401CC0B28142F5D810BD0000A003002081
:10118000F8B504467D480E460068E321C9004718BB
:101190004820C05DC0077BD0B088FFF7ADFD054695
:1011A000012C02D0002C75D0E6E0002D0CD028696F
:1011B00041074AD4B268F188147B0029F4D0620652
:1011C0000CD56888884201D20121B2E0D22C01D02E
:1011D000522CF9D13846314618303FE0A106890E2D
:1011E0001E293ED81E2C21D101071FD50821884376
:1011F00028612988012002F0F9FF0121304601F021
:10120000DBFB5E4811210068C90108304018422408
:101210002D8801233922C06F214603F0EFFD010024
:1012200003D08D80204603F0D5FDA5E0E1070AD06C
:101230001D2C10D01B2C0ED0410529D40121890270
:101240000843EE6192E0C00601D54520F8BD29882B
:10125000002002F0B9FF38463146243003F0A2FFE7
:101260008AE029882022002001F084FB05000FD0AD
:101270000121304601F0A0FB2B460022214606202A
:10128000FFF7ACF92846FFF7FDFD75E000E001E04F
:101290004120F8BDB068047B1D2C3AD01B2C41D0F6
:1012A0000021304601F088FB032C46D0052C44D0A9
:1012B000072C42D0092C40D00B2C3ED00D2C3CD01A
:1012C0000F2C3AD0112C38D0132C36D0172C34D008
:1012D000192C32D0012C30D0022C35D0042C33D034
:1012E000062C31D0082C2FD00A2C2DD00C2C2BD032
:1012F0000E2C29D0102C27D0122C25D0162C23D020
:10130000182C21D0522C1FD0D22C1DD01E2C2FD007
:1013100032E0002D03D02988012002F055FF31462C
:10132000022001E03146012002F004FF002823D012
:101330000021304601F040FB1EE029691020814366
:1013400029612988002015E0286940218843286107
:10135000010511D5FF2101310843286129880220A8
:1013600002F032FF01212869C9028843286103E0A5
:101370002988032002F03AFF0020F8BDA0030020D6
:1013800010B5114AE3231268DB00D2184032127AFA
:10139000D20706D002280AD0052804D00B2810D185
:1013A00001E0412010BD4888FFF74AFD09E0488868
:1013B000FFF7A2FC002804D0012201699205114325
:1013C0000161002010BD0000A0030020FFB5002037
:1013D00099B0239A0B9012900546149006461590EA
:1013E0001C46DB480B460068E321C9004118039105
:1013F0000021229F089109915188069111880A9134
:101400003B21490140180078C00706D00FA91846B3
:1014100000F0B2F900280AD102E047201DB0F0BD6B
:1014200010AA0F991B9800F097F9002801D06020AE
:10143000F4E71998002803D0600701D5012000E0E7
:1014400000201390A007800F1C9010981790203058
:10145000C078012840D11798BE4B01899942F9D133
:101460001798069904680A98228C4118914233D83B
:101470002046203016908078012816D0E08B04900A
:101480001798806900788006800F7DD003984030DF
:101490001890007A800777D51C980028F5D0AD4FBA
:1014A0000F99FF372031206814E0BA4214D3B942B3
:1014B000DDD80497E4E70389A64A934203D12322A7
:1014C000125C012A08D0BB4203D12322125C012AFC
:1014D00003D000688842EED134E105900028FBD0AB
:1014E0009B4805210268490251188969002700912B
:1014F00062E0780100990390085A01055AD01999C1
:10150000002901D0884255D105997A008B69511C78
:10151000595C9A5C0902891889B20D91890749D0F2
:1015200002220599FFF7D4F9002804D01998002861
:1015300040D0652072E7002008A9C8551C98C00754
:1015400018D0179880690078C00613D50D98C00789
:1015500010D00120C8550543009A03988018408890
:10156000159A904206D91590009A0398105A0005D2
:10157000000D14901C9880071CD51798806900787E
:10158000800617D50D9800E084E0800712D5022070
:10159000CA5D05430243CA55009903984018408824
:1015A0001599884206D9159000990398085A0005A4
:1015B000000D14907F1CFFB265480068A030037BCB
:1015C000BB4296D8002D65D01898007A00065FD4EB
:1015D0005F480168052040020818816900201BE06F
:1015E00042018E5A360515D0AE070BD5561836690E
:1015F000B7070DD408AF3F5CBF0703D5360701D549
:1016000046200BE7EE0705D05218127CD20701D016
:10161000432003E7401CC0B28342E1D81598C01EA6
:1016200086B20498864200D90646A8070FD5202224
:101630000020149901F09EF9129000287DD0F01C32
:1016400082B20021129801F045FA002811D1E80772
:1016500020D020220020149901F08CF90B90002852
:1016600007D0F01C82B200210B9801F033FA002859
:1016700010D08020FFF71CFC1298002802D0002117
:1016800001F09AF90B98002802D0002101F094F99A
:101690006420C3E6A1690A98069A0818249901F003
:1016A000FAF816988078012801D10498E083002D7B
:1016B00046D0274B05201968400208188169002090
:1016C00008AA0CE04301CF5A3F0506D05F18BC467C
:1016D0003B69175C3B4367463B61401CC0B21C4BF7
:1016E0001B68A0331B7B8342ECD8A8070DD512984A
:1016F0000090F01C82B221461C310220A369FFF742
:1017000065F90220129902F015FDE80718D00B9830
:101710000090F61C2146B2B21C310120A369FFF7EC
:1017200055F91398002805D00B988021C07C0843F8
:101730000B99C87401200B9900E005E002F0FAFC57
:1017400000206BE6422069E68020FFF7B1FB9FE7AF
:10175000A00300200328000010B50B6A203106E02A
:101760009C8B844202D10020136010BD1B688B4209
:10177000F6D1412010BD000010B5094AE3231268DC
:10178000DB00D2189368083206E01C8D844202D137
:1017900000200B6010BD1B689342F6D1412010BDA4
:1017A000A003002070B50D46064E014630688268E1
:1017B000084690470446306802692846904720430F
:1017C00070BD00005003002010B50F4C002803D05E
:1017D000012809D002280FD002F0C6F90C21484395
:1017E00000198038406F10BD02F0BEF90C2148434B
:1017F00000198038806F10BD02F0B6F90C21484303
:1018000000198038C06F10BD889204100F4910B5C0
:1018100028390E4BCA691206120F4270C9690907AE
:10182000090F817019680A4C01234160A14202D15D
:101830000221017000E00370002A00D143700549C5
:10184000898A491C8900816010BD000028009040F1
:1018500041A0000200001040074A914202DC5242BF
:10186000914200DA1146FF22993251430A1251186F
:101870000A14511808187047FFFF4F00401AC01093
:10188000810040180012704710B50920C006006999
:101890000002000A02F00AFE10BD00210B20000722
:1018A000026852070DD5026804239A430260026859
:1018B00008231A43026004E0491C052901DD0020C9
:1018C000704742689207F7D54168C907FCD0806825
:1018D00080B2704710B5FFF7E0FF0446FFF7DDFF69
:1018E0000004201810BDFEE77047704710B50A8845
:1018F0008B884C881A43CB88640023431A430B8996
:1019000049891A43C9030A43C26010BD8163704705
:101910000174704701688022114301607047006BB9
:10192000084000D00120704740690007800F7047D1
:1019300070B5044600680D464008400020602068ED
:1019400003214903884369798907490C08432060CA
:10195000687922494000085A2968214A4843101AE8
:10196000204A3026914209D84900FEF703FC21683D
:10197000B14321606168320389B20EE01A4A914294
:101980000DD84A008918FEF7F5FB2168B1431031E4
:1019900021606168012289B252048918616061681E
:1019A000EA88890A890211436160218D20852068B7
:1019B0000621884329798907490F08432060297A3D
:1019C00008200129216806D0814321602068012177
:1019D0000843206070BD0143F7E70000D0020020FB
:1019E0000024F400A0860100801A0600007E7047E3
:1019F00003490160002101714171C180017270478A
:101A0000881300000068000601D5012070470220FD
:101A10007047024600200146535C002B00D0012095
:101A2000491CC9B20629F7D3704700000248006874
:101A30002030C07F70470000A003002070B50E4624
:101A4000054601462022002000F094FF040023D028
:101A5000284600F059F8050027D02879B04224D153
:101A6000A87880071FD4A06801210173A068002115
:101A70004673A06802268673A068C173A0680174CB
:101A8000A06841740620E0802146052000F06AF934
:101A9000002803D0412509E064250BE0A8783043F5
:101AA000A870002506E0462500E0422500212046DA
:101AB00000F082FF284670BD70B514460D46002820
:101AC0000BD11146284601F051FF21462846FFF769
:101AD00057FC2146284600F045FA70BD70B5054612
:101AE0000C46002000F010F800280BD02905090D45
:101AF000018000218170002C01D108218170012119
:101B00000171C17070BD000030B502460A48112352
:101B10000068DB010021C318A030047B07E0586E89
:101B20000D0140190588954204D0491CC9B28C4268
:101B3000F5D8002030BD0000A003002030B50A49D0
:101B4000112309680246DB010020CB18A031097B74
:101B500007E05C6E050164192488944203D0401CA0
:101B6000C0B28142F5D830BDA00300208068017A60
:101B7000407A0002081880B2704710B502468868A3
:101B80000C46817AC07A0002081881B2E088001FF2
:101B9000E080042909D005290CD006290FD00121A5
:101BA000204600F009FF002010BD21461046FFF737
:101BB000E7FA08E02146104600F0FAF803E0214673
:101BC000104601F059FE0028EED0E188091DE180A1
:101BD00010BDF3B581B00D4600268888FFF794FF4D
:101BE00007002FD03C46287B08340228F8682ED006
:101BF000002834D0E888218840182080284600F04A
:101C0000AEFE61688A680146104600F074FC01214E
:101C1000284600F0D1FE0120616800F06DFE60688A
:101C2000FFF7A4FF001D218880B281421FD88142A6
:101C30001BD16168C88061680198FFF79EFF0600AC
:101C40000FD017E00121284600F0B6FE12E0002870
:101C500001D04526E3E76560E8882080DFE765601E
:101C600005E000206060208004E0452E02D1384667
:101C700000F08AF93046FEBD024610B50020002A69
:101C800005D0012A02D11046FFF7A3FF10BD104670
:101C9000FFF773FF10BD70B50546801E0C460300AC
:101CA00002F0D9FE0A0C1C1C06180B0B0B0B060BC2
:101CB0000A4620782946FFF7FFFE70BD2846FFF749
:101CC0005FFB2146284601F051FE2146284600F0E0
:101CD00049F970BD284601F049FE70BD6288097857
:101CE000284601F03FFD70BDF0B585B0FFF726FF37
:101CF0001B4D04462868A030007BA0422DD9204609
:101D0000323069460873684602F0A4FB1126286841
:101D1000F6018019426E00212401115328682746DC
:101D20008019426EE01C115428680C378019426EED
:101D3000201D115428688019406EC05900280CD00D
:101D4000012100F039FE296800208919496EC85127
:101D500029688919496E0834085305B0F0BD0000A0
:101D6000A003002010B50C460146042805D0052923
:101D700003D0062901D0502010BDA068A2790272BC
:101D8000E088020AA0684272A0688172A068090A0D
:101D9000C172E088001DE080022020732046FEF71B
:101DA00045FD0028E8D0E088001FE080412010BDFC
:101DB000F0B50D468DB000210A91A96800280F7B6F
:101DC00002D0012822D0C5E0A888FFF7B7FE634EF5
:101DD00004463068A030007BA04215D9122F08D1EC
:101DE0005F4802902046323069460873684602F028
:101DF000E3FA11203168C0010818406E2101401833
:101E00008178FD22114081700021A0E0A888FFF7B1
:101E100095FE06465148AC220168525CB24218D980
:101E20001120C0010818406E32018418A2781007F2
:101E300010D5122F10D1500710D4A9882A4642205D
:101E400003F060F9A07804210843A070A868407BE3
:101E500020717BE0132F0AD0012F42D0A868417B6C
:101E6000A888FFF7EBFD0A9000286FD072E0A86801
:101E7000E778437BBB4269D1520767D5027C407C3F
:101E800001230002101887B242200490A88806900F
:101E90001B2080010818807E800710D51120C0010A
:101EA000083108181D22C06F049902F0A7FF010035
:101EB00005D0069A8A80CF80049802F08BFFA07824
:101EC000FB210840A070E078401C0006000EE07086
:101ED00001D10120E07068463236067302F0BAFA8A
:101EE00034E0100732D4A868E178407B88422DD1D5
:101EF00050072BD5FB200240A270E078401C000662
:101F0000000EE07001D10120E070684632360673A1
:101F100002F0A0FA114811210068C90108304018E8
:101F20004224AE8820220223C06F214602F066FFC1
:101F300001000BD0A868437B877BC07B8E800002AA
:101F400038188B710881204602F044FF0121284691
:101F500000F032FD0A980DB0F0BD0000A003002093
:101F60003075000010B5022809D0052801D00B28D3
:101F700008D1084609794088FFF7B0FD02E048889B
:101F8000FFF7B2FE002010BDF8B50546807810219D
:101F90000843A87042200090114811210068C9012F
:101FA00008304018012702263B462122C06F0099C5
:101FB00002F024FF04000AD02771667132462946D8
:101FC000A01D00F068FC2146009802F003FF0121EB
:101FD000E86800F0F1FC0020E8602881F8BD00000E
:101FE000A00300200020704770B5044608480D4645
:101FF0000068084946182046316804F0D7FE726828
:102000002271100A6071100C2870002070BD000051
:10201000A00300200809000010B5044680880321B1
:1020200004F0CCFB022172B6082815D20D4A1368C1
:10203000052252029A18582352695843831CD35CD4
:10204000002B09D0002110182160016A002906D058
:10205000416A0C604521446262B6084610BD0462C4
:10206000F8E70000A00300201F20704730B4134899
:1020700009220368092000021818D206806D116930
:102080000F4C411A09022588090A2D0702D430BCD9
:1020900001207047647A9B6AE400E3188B4209D2FE
:1020A0000123DB05994205D259000843506030BC3A
:1020B0000120704730BC002070470000A0030020C2
:1020C000C0000020FEB50F480F49006806224418E2
:1020D0000E494118684600F0DEFBA66BE56B636BAA
:1020E000246C00206A46811C175C5F54175C77548F
:1020F000175C6F54175C401C67540628F3DB002004
:10210000FEBD0000A003002008090000DE0600005C
:102110007CB50E4C0E492068062245180D49411821
:10212000684600F0B8FB296A06226846891C04F05C
:102130006EFA0521206849024018416B0622684664
:10214000891C04F064FA00207CBD0000A00300207C
:10215000E8090000DE060000F8B51D4614460646F4
:10216000002704F0A9FA01280CD01F20717808403C
:10217000060036D00020E86104F026FF002803D0D6
:10218000E86907E0FF20F1E769893246012000F0A5
:10219000F1FBE861002801D0102722E0E07D8021DA
:1021A0004840E0751049286908421AD06079401EFD
:1021B00060716079FF2814D1A079401EA071A079C8
:1021C000FF280ED1E079401EE071E079FF2808D1A8
:1021D000207A401E2072207AFF2802D1607A401EA9
:1021E00060723846F8BD000020280000FFB581B0BD
:1021F00000230093049B012B2BD04B8C204D1C0102
:102200000B8C9C46CB7E6B438D8BAE46CD8B9669FB
:10221000A64205D19689664502D1168FAE4201D0FD
:102220004026009696790427760876003E439671FC
:1022300094615461644694811587049A012A17D0E9
:102240000B6170464A68400010184860009805B05D
:10225000F0BD034640331D461B8E094E1C01AB8D5D
:102260009C4660231B5C7343AE8C2D8DB646CEE737
:1022700083657146C26C49005118C164E6E70000ED
:10228000E204000038B50546124800240178032313
:10229000A822684601F0DCFC002801D0012038BDEE
:1022A00000216A46505CCB009840491C0443C9B2E7
:1022B0000329F7D3200202D5FF200006044320465D
:1022C000FEF798F80B21C943FEF788F82860002034
:1022D00038BD00000C0300201CB504460E48022344
:1022E0000178AB22684601F0B3FC002801D0012040
:1022F0001CBD6946487809780002401800B269465A
:102300008880FEF777F80549FEF72AF80449FDF7BB
:1023100091FF206000201CBD0C0300200000F04352
:1023200000002A427CB504460020694608702E4809
:1023300001F020FC002855D12C4D012320222978C2
:1023400001A801F085FC00284CD16946087980215C
:1023500008436946087101232022297801A801F069
:10236000C7FD00283ED1012320222978684601F0CC
:102370006FFC002836D16A4610788F210840107013
:10238000217801230143F7200140E0780843FB2135
:1023900008402179014348086179400001431170E8
:1023A00020222978684601F0A3FD00281AD10123D4
:1023B00010222978684601F04BFC002812D16846AB
:1023C000007801238108607889000843F3210840E0
:1023D000A1781022014368460170297801F088FD38
:1023E000002800D001207CBD102700000C03002035
:1023F00038B50C4C012320222178684601F028FCD6
:1024000000280CD16946087801234006400E087068
:1024100020222178684601F06BFD002800D00120C1
:1024200038BD00000C03002010B5002806D0044978
:1024300001230F22097801F00BFC10BD012010BD13
:102440000C03002038B50C4C01232122217868466A
:1024500001F0FEFB00280DD1694608788021084371
:1024600069460870012321222178684601F040FD69
:10247000002800D0012038BD0C030020002803D024
:102480005B200249087070475C20FAE70C030020CB
:10249000086042684A6042681160416070470268A3
:1024A00004E08A4201D10120704712688242F8D1CB
:1024B0000020704702680A60126802600A681268A9
:1024C00050600A680020106009684860704700B5D5
:1024D0000B46FFF7E4FF002808D003CB083B086059
:1024E00003CB41600020083B1860586000BD704776
:1024F0007047704770470268002A03D01046126880
:10250000002AFBD10160704770B50C461F21521E96
:102510000A430546521C002011044E0D17D02146D7
:1025200008316A1A2846002A01DD082A03DB202226
:10253000FDF736FE04E0082208C9521E08C0FBD190
:1025400020352046761E24683604360CE7D170BD4F
:10255000F8B504460D46501E1F210843401C0004D8
:102560001646470D1ED0204608302946421A002A3A
:1025700001DD082A03DB2022FDF712FE04E0082219
:1025800008C9521E08C0FBD12035202E01D230468A
:1025900000E02020A080301A7F1E24683F0486B20D
:1025A0003F0CE0D1F8BD002959D0F3B58FB00C46EF
:1025B000A088202813D0002C14D002940298006820
:1025C000029000282ED0868801463246083106A89F
:1025D00000F061F90027A088202805D007E02468D2
:1025E000002CE5D111B0F0BD24680020A080002EA1
:1025F000E4D080B22021091A8DB2AE4200D2354615
:102600002246083206A98018C9192A4600F043F963
:10261000701B86B2781987B2A0884019A080002E5E
:10262000D9D1CBE720680028DCD0002121600F99A8
:1026300072B60A78002A03D04B6892009A5810604C
:10264000002383800A78521CD2B20A704C68920030
:10265000A05000680028F4D162B611B0F0BD7047F8
:10266000491EC904090E72B602788A420CD9511A61
:10267000C9B24A1ED3B2037042688800105899004C
:1026800052580021116000E0002062B6704700211E
:10269000002804D0491C0068C9B20028FAD10846B5
:1026A00070470021002804D0491C0068C9B20028E6
:1026B000FAD148017047F8B51D460E466B46002A10
:1026C00009D0002824D08488944204D8121B120414
:1026D0000068120CF5D11A80040019D014E0684685
:1026E000A1880088091A8FB2AF4200D32F46211863
:1026F0003A463046083100F0CEF8F619E81B85B2AC
:102700002468002069460880002D03D0002CE6D103
:102710004120F8BD0020F8BD002917D072B602781C
:10272000002A03D0436892009A58116010B4002325
:102730008B800278521CD2B2027044689200A15081
:1027400009680029F4D162B610BC7047704730B4F4
:1027500000240B1E22D02034A4B294421AD30A685B
:10276000002A35D072B60378002B03D044689B0052
:10277000E3581A600024948003785B1CDBB203707A
:1027800045689B00EA501268002AF4D162B6002026
:1027900008601DE00B4609680029DCD1111B491EA9
:1027A000C9040A0E72B6017891420CD9891AC9B2CD
:1027B0004A1ED2B202704068890092004158825885
:1027C0000020106000E0002162B61960002902D0EC
:1027D00030BC0020704730BC47207047FFB504462E
:1027E0005009000681B01F46000E06D0002C23D0F1
:1027F000401E24680006000EF8D1D606F60E17E03B
:102800002020851BBD4200D33D46A0192A46083032
:10281000029900F040F80298711940190290781B53
:1028200087B2A088884201D2A819A0802468002617
:10283000002F04D0002CE3D1412005B0F0BD0020D2
:1028400005B0F0BD704700008307FF22DB0E9A4001
:102850008907090E994000280BDA0007000F083895
:10286000830808489B001818C36993430B43C3614E
:102870007047830804489B001818036893430B4370
:102880000360704700ED00E000E400E0704710B521
:10289000FDF7B9FC10BD10B5FDF782FC10BD10B5F9
:1028A000FDF7A8FC10BD704770B5124A05231268E9
:1028B0005B02D2180123126983435B00491E412445
:1028C0009B184909491CC9B272B615798D420ED3BD
:1028D0001E785B78AD19EDB25B18AB4207D84000AB
:1028E000135C00245B1813541079401A107162B6FF
:1028F000204670BDA0030020F3B50F461248052105
:10290000006849024018BE68046981B03046FFF78C
:10291000BEFE0546F888401E4009401CC0B2A842D1
:1029200011D23146A068FFF73EFE3046FFF7AFFEFA
:10293000281A72B601994900625C121A6254217910
:102940000818207162B6FEBDA003002010B51C4619
:1029500013460A4680682146FFF7ADFE10BD0022EF
:102960008168083802600846704710B58068FFF734
:102970008EFE10BDF8B50D460E49052309685B02B1
:10298000C9180E691F21521E0A431D3297B2002436
:102990003946FFF789FF00280AD13946B068FFF7AA
:1029A0005FFE044608340068A0600020E074A58043
:1029B0002046F8BDA0030020F8B50E460C490522BC
:1029C000096852028918083807460C69FFF75FFE4C
:1029D00005463946A068FFF79FFE72B67100605C3D
:1029E000401B605420794019207162B6F8BD000088
:1029F000A0030020F7B507461848052100684902E2
:102A00004018046941201646002F11D03846FFF7C0
:102A100048FE0546B0420CD2301A81B20198FFF749
:102A200043FF002804D132463946A068FFF78FFEE5
:102A3000FEBD32463946A068FFF789FE6D1E761E40
:102A400069097209891A72B6019A5200A35C5B1A6D
:102A5000A35422795118217162B6FEBDA003002053
:102A600010B51C4613460A4680682146FFF7B6FE9D
:102A700010BD0000F0B4144A5D2312681B01D21887
:102A800094461F27202200245208A318DBB2BB4221
:102A900014D2DD0065442E686D682D02A94203D86A
:102AA000A9420BD1B04209D31C46B04206D1A9427B
:102AB00004D1FF2B04D0F0BC01207047002AE3D1E1
:102AC000F0BC002070470000A00300201F207047CA
:102AD0007047704710B5121D806892B2FFF78AFFE9
:102AE00010BD10B5121D806892B2FFF783FF10BDB4
:102AF000F8B50926F60631687A487B4A8160136882
:102B00007A4A9D180022027042708261C26102718D
:102B100042718271764A128805245207520F64026C
:102B200082701C19582764695743E719714C920148
:102B30001219C7600261BA78C27057077F0F880305
:102B4000800F7CD16A4A188E50806B48654C0140DA
:102B50009013814204D101F025FCA0683060F8BDDB
:102B6000FEF764FF002807D15F480088503081B22B
:102B7000012000040818F0605B490020096840311A
:102B8000C871E168C8735D49B80008588047A068FB
:102B9000002806DAFEF74AFF002802D1A07805F0E7
:102BA00035FE012F04D0022F19D0052F17D03FE09A
:102BB000A068C0013CD5FEF739FF002838D1A068D5
:102BC0004003287E05D4022832D06079002809D03D
:102BD0002EE0022806D0A079012803D028E0207832
:102BE000012825D1474846490160232141606421DD
:102BF000684601706A461078401E1070F068C00385
:102C000002D510780028F5D110783E4882B2012014
:102C100000041018F0606846017069460878401E8C
:102C20000870F068C00302D508780028F5D108784C
:102C3000206900902946A369E268E06900E035E078
:102C400004F094FF29462369E268E06905F090FAF0
:102C5000207801282AD1E068006A002826D0006880
:102C6000002823D00027C17C0568C9091CD0E26870
:102C7000116A814208D10B6813620F60E1680A6A29
:102C8000002A0ED14F620CE00A68824203D011463E
:102C900012688242FBD10D60E268536A834200D120
:102CA00051620021FFF788FE2800DCD10D4C2089FD
:102CB000000401D501F076FBA2681349D00306D5C4
:102CC0000948022400684018836E234383669003FA
:102CD00006D50548042300684018816E19438166B3
:102CE0003260F8BD58030020A0030020080900004E
:102CF000C0000020CC0000200080FBFF80030020EB
:102D000002230102780300208008000010B501F0C2
:102D1000AFFE012805D0044880F3088805F03CFC8C
:102D200010BDFDF71DFA10BD00600020704770B5A2
:102D30000546C88888B00C461646052804D01346B8
:102D400000220C2104201FE0A168022204A80D31FA
:102D5000FFF7A1FD6846028A002A13D0A16802226B
:102D600002A80F31FFF797FD6846008AFEF7C8F901
:102D7000010076D068460A8D008A824207D1334628
:102D8000024620E033466FE0FDF728FC66E06A4625
:102D9000FEF7E2FC002864D1288801220005000D1E
:102DA0000099FDF795FD002804D069460A8A33464C
:102DB0000C21E9E700986A88C18BD31E994205D897
:102DC0006846028A33460C210B20DDE76B461B89DF
:102DD000994205D26846028A0C2133460720D3E780
:102DE0002621095C49070ED529690C030BD4012261
:102DF000D20411432961828B2988022002F042F912
:102E0000692008B070BD00213046FFF76AFE002837
:102E100001D04520F5E7B0680D21017329460098DF
:102E2000FDF742FF014600986A46C38B12899B1A40
:102E30009CB26B885B1E9BB29C4200D31C4683698C
:102E4000008C484318188318052122463046FFF7A6
:102E500007FE641C2004000C03D0F0800020D0E7A3
:102E6000FFE76846028A33460C2101208CE7000008
:102E7000F7B5FFB093B007460C46002080A9039039
:102E80008883AD48E3210068C9004518E088022620
:102E9000072806D0152804D0002208210420949B7E
:102EA0004CE0A168022285A80D31FFF7F4FCA1686F
:102EB000022286A80F31FFF7EEFC80A8828A008BE1
:102EC000824238D8002A36D010229C498DA8FFF7BC
:102ED000E2FCE088072834D089AB10220921204683
:102EE000FFF734FD3869000337D439886846017428
:102EF000090A417480A90A8B898A89A86C4607C48B
:102F000004AC8DAB87AA2846A11CFDF7FCFB80A86A
:102F1000808B002821D001213A69C9040A433A6113
:102F20004006020E3988A31C022002F071F86920C5
:102F30007FB016B0F0BD08210120949BFDF74EFB39
:102F4000F2E010227D4989A8FFF7A5FCA1680222C2
:102F50008CA81131FFF79FFCC4E77A880021949870
:102F6000FFF7BFFD002801D04520E1E7083580A824
:102F70008895808AFEF7C4F8050090A8019074D067
:102F8000B8E0294602222A310198FFF784FC10227A
:102F900089A98DA8FFF77BFC002806D028462030A1
:102FA00000902C6A84427DD1A3E00398002804D0CD
:102FB000042810D0122806D0AAE02C20405D012859
:102FC00006D0122003902C20405D022807D09FE0FD
:102FD0000420039003E02C20405D01287ED1301DA9
:102FE00081B22B46283302229498FFF739FD0398CB
:102FF0002B46801E82B2B01D81B20833B61C949855
:10300000FFF72EFD03983018801E86B271E080A96C
:10301000A08B898A884268D380A9098B884277D897
:103020002320005D012808D020460830102289A9FD
:10303000FFF72DFC002808D057E021460222083176
:103040000198FFF728FC8DA8F0E7388801220005D9
:10305000000D2146FDF73CFC0399002915D10028FD
:1030600004D0A28B0821949B68E75FE0E18BFD29E7
:1030700001D9FF2101E0891CC9B203917988039A23
:10308000891E914201D2C9B2039179888A1B0399A2
:103090008A423DDB00283BD10398E18B801E0290E1
:1030A000814200E022E033D1301D81B223461C333F
:1030B00002229498FFF7D4FC39462046FDF7F4FD30
:1030C000218CA26941430298531882B2B01D81B28B
:1030D0009498FFF7C5FC0398301800E018E086B21A
:1030E0007888811B0398814212DB2468009884420F
:1030F0008DD12D68889885420AD080A9288D098BAA
:10310000884205D878880399801B884200DB38E71D
:10311000022E0BD994980921806801739498039921
:10312000806841739498C680002001E780A8828A55
:1031300008210A20949B01E7A00300205494041066
:10314000F7B5FFB085B00546002469468C8160481C
:10315000E3210068C90046188598C088411E0429EB
:1031600002D3C043C00704D000220E210420869B56
:1031700044E0286900031BD403A8009004AB304648
:10318000869A8599FDF788FA6846808900280FD0CD
:1031900001222969D20411434006020E29612988BF
:1031A00004AB022001F034FF69207FB008B0F0BD0D
:1031B0006A8800218698FFF794FC002801D04520FA
:1031C000F3E78598C088401E87B2012677E0301D5E
:1031D00081B201AB02228598FFF7B8FB6846808870
:1031E000002832D0FDF78CFF01002ED068460A8DF2
:1031F0008088824224D1002C03D007E0FDF7EEF94D
:1032000063E086980F228068012402736888A042D8
:1032100053D02C22525C012A05D0001B80B210280A
:1032200006D3102004E0001B80B2022800D3022045
:103230000090201D0B4680B208330146009A36E00C
:1032400002AAFEF789FA002805D0684682880E2176
:103250000120869BD2E7288801220005000D0299F3
:10326000FDF736FB002804D069468A880E21869B2C
:10327000C4E7002C04D186980F21806801240173D3
:103280006888A04219D0029A001BD18B80B2884274
:1032900000D30846009029461046FDF705FD029927
:1032A0008A69098C41435318201D009A81B286987F
:1032B000FFF7D6FB0098201884B2B61CB6B2BE4207
:1032C00085D3002C01D08698C48000206DE70000D3
:1032D000A003002010B51D4A86B09188491C884281
:1032E0000AD103A96846FEF75DFA002821D103A997
:1032F0006846FDF787F91CE05188491C884218D1BF
:10330000134C2068416A01A888472068816A684692
:10331000884710490098FCF7E6FFFDF776F804B2FD
:103320000D490198FCF7DFFFFDF76FF82146FDF727
:1033300017FB0A480088002806D001F05AFE002832
:1033400002D0022000F0BCFE06B010BD3403002005
:103350004C030020000020410000C8423E03002032
:10336000FEB5044600200290C8881546032804D004
:10337000134600220A21042026E0896802226846BA
:103380000D31FFF788FA68460088002819D0FDF74C
:10339000B7FE010073D068460A8D00880B2705260A
:1033A00082421DD1A86807732C20405C01280ED0F2
:1033B0000B460833102231462846FFF751FB1120F7
:1033C00059E02B4602465DE0FDF708F954E00B4654
:1033D0000833022231462846FFF742FB03204AE029
:1033E00001AAFEF7B9F9002849D120880122000579
:1033F000000D0199FDF76CFA002804D069460A888F
:103400002B460A21E0E701992620405C40070ED5B3
:10341000206902030BD40122D204104320618A8B5D
:1034200021880220029B01F02DFE6920FEBD6288EA
:1034300000212846FFF755FB002801D04520FEBD9E
:10344000A868214607730198FDF72EFC6188491E84
:103450008AB20199CC8BA24200D214468A69098CA7
:1034600041435318314622462846FFF7F9FA641CB7
:103470002004000C03D0E8800020FEBDFFE7684672
:1034800002882B460A2101209EE770470FB4F0B551
:103490005E4E01273068FF0297B0C019C56E002448
:1034A000694610A80C70023016906C3015901DE023
:1034B0006946284605F02CFB68460078FE2809D0AE
:1034C000FF2818D0002810D0FA2017B0F0BC08BC94
:1034D00004B0184701A9284605F008FB06221699F2
:1034E0001598FFF7D4F900281FD014352046641C26
:1034F000E4B20C28DCD318A8407C0009E5D00C2CE1
:103500007ED972B605F0C0F962B630686946C01956
:10351000C56EFE2008706946284605F0F9FA68462F
:103520000078FF286CD01435F5E7502201A91CA8BB
:10353000FFF7ADF90028C8D0284605F0C7FA0CE01F
:1035400014356946284605F0E3FA68460078FE28F7
:1035500003D0002801D0FF28B6D12046641CE4B275
:103560000C2803D268460078FF28E9D118A8C17C4E
:103570006846C0798142BED118A8407CC0060ED4EE
:1035800068464079C0060AD5022212A92DA8FFF785
:1035900082F918A9487C1021084318A9487418A872
:1035A000407C800615D468464079800611D508A96C
:1035B00023A8102202310230FFF76DF90622169976
:1035C0001598FFF768F918A8417C2020014318A836
:1035D000417418A8407C40068DD468464079400666
:1035E00089D50CA927A8102202310230FFF753F920
:1035F00018A9487C4021084318A948747BE7FFE7D5
:1036000001221CA9284605F08BFA5EE7A0030020E2
:103610000D49012289B212048A1830B50921C90660
:10362000002804D0CA60C868C003FCD430BD064B73
:103630009C789878FB2528409870CA60C868C003B9
:10364000FCD49C7030BD00002803002010B50C464F
:1036500000F064F8002807D0017A002904D0807BAC
:10366000A04201D3002010BD5F2010BDFFB51E4A4F
:1036700000241268AC230F2706469B5CFF0181B033
:1036800025462046D21908E07827D46B4743E41931
:10369000278A002F25D0401CC0B28342F4D8834231
:1036A0001DD0002D1BD0204600226030C273521E58
:1036B0006260817326820B994174062212300A9946
:1036C000FFF7E9F80398002800D00120E0732046B6
:1036D000062268300499FFF7DEF81020207205B04A
:1036E000F0BD0125DBE70000A003002010B5002499
:1036F00000F014F800280ED0008AC10407D5012478
:10370000810401D5032402E0410400D5052400040E
:1037100001D408200443204610BD000070B50028E5
:103720001CD00F4A0F231268DB0104050021D318B7
:10373000240DA032127B0FE0084678267043DD6B23
:103740001030285A0005000DA04203D178225143C1
:10375000681870BD491CC9B28A42EDD8002070BDFE
:10376000A0030020F0B5054685B00E461046FFF7D1
:10377000D5FF04007BD03F4A002E04D06E20005DB0
:10378000C0073AD053E0208A012109030843208270
:10379000617A022903D0032901D004290AD16E21BC
:1037A000095D090702D50121890301E001214903CF
:1037B00008432082207ABC2806D0F12806D0AD2804
:1037C00016D0AE2816D04AE0BF2014E0032D46D113
:1037D000208A126801053D2040011218907D090DD4
:1037E000830701D0401E907500231A46422034E022
:1037F000AF2000E0F020207231E0207AF12816D1CD
:103800001B21106889014118497E422789060ED57F
:103810001121C901083040181722C06F0023394612
:1038200001F0ECFA010002D0384601F0D3FA002092
:103830002072208A05F05EFB6946083008736846EE
:1038400000F008FE032D0AD10522062E00D1042225
:10385000208A00230105090D022001F05FFB60347E
:10386000A07BC00703D0E07BF9210840E07305B0DE
:10387000F0BD0000A003002070B506460C460025F0
:103880008888FFF74BFF002863D0364A012E02D00C
:10389000002E0AD060E0E08841285CD81068324AE7
:1038A0002146801801F07EFC5AE0A168097B0629B8
:1038B0000BD0D52307290AD0082918D0092918D0F8
:1038C0000A291BD00B291DD046E0D22106E0017A3F
:1038D000DD2941D1417D8A0702D5D32101723BE028
:1038E000490701D5037237E005F042FA34E0D421EC
:1038F000F4E7017ADD292FD1417DF1E7017ADD2955
:10390000F2D029E0014660310B46C97B0226490806
:1039100049003143D973007AF12802D104200143D0
:10392000D9731B21106889014118497E4226C906B6
:1039300012D51121C901083040181622C06F00238A
:10394000314601F05BFA010006D0304601F042FA40
:1039500002E0012E00D1012529462046FFF72CF870
:10396000002070BDA00300207C070000F0B589B0E6
:103970000C46052823D00B282FD0022851D006282A
:103980001BD10D460888FFF7C9FE040015D020465C
:103990006030C17B10221143C173207ABC280CD047
:1039A00020460822A91C1E30FEF775FF2946204636
:1039B00002220A312630FEF76EFF09B0F0BD06A9DB
:1039C00007A8FEF711FB6946097E07A80191009040
:1039D000627921796088A31D20E0214606220C31FE
:1039E00007A8FEF758FF07A8FEF713F8002808D02D
:1039F0000120694608766279900707D5234612337D
:103A000005E006A907A8FEF7EFFAF4E7A31D69464B
:103A1000097E07A80191009021796088FFF726FEB2
:103A2000CBE74888FFF77AFE0400C6D0208A05F06D
:103A300061FA69460830087502A800F00BFD208A7B
:103A40001F4F06051D48360D0068C01901F0A8FB80
:103A500005460FE0A8882F68B0420AD117482946CA
:103A600002681748101801F0BAFB01212846FEF73A
:103A7000A3FF3D46002DEDD16E20005DC007207AEA
:103A800018D0B02813D3C0B2F02810D80B48016862
:103A90003D2040010918887D820701D0401E8875AD
:103AA0000220694600940871684605F08DFAFE20F0
:103AB000207282E7A028E6D2F9E70000A0030020E8
:103AC0007C0700007047704730B5054685B001217E
:103AD000092000F0EFFB00F047F81F498000401874
:103AE0008038C06F039000F03FF81C4980004018F8
:103AF0008038C06F6946087400248C744C7403A825
:103B0000FDF70AFA00F030F81549800040188038B7
:103B1000C06F039000F028F81249800040188038E8
:103B2000C06F6946087403A8FDF7F6F903206946DB
:103B30000095087148718C71CC714C72087201202B
:103B40008872684600F0E2FC002000F07BFD012056
:103B500000F0BEFC05B030BD689204106C920410F9
:103B600070920410749204100148007870470000AD
:103B70001403002030B585B00546FFF7F5FF2B4C48
:103B8000800000198038C06F2949884202D1012184
:103B9000284801E00121284800F08CFBFFF7E4FFF2
:103BA0002649800040188038C06F0090FFF7DCFF86
:103BB0002349800040188038C06F6A461071002188
:103BC000917151716846FDF7A7F9FFF7CDFF1D49C7
:103BD000800040188038C06F0090FFF7C5FF1A4979
:103BE000800040188038C06F6A4610716846FDF743
:103BF00093F902A8FDF7FCFE01206A4610730295B6
:103C0000FFF7B2FF800000198038C06F02A9FDF7EE
:103C10008FFEFFF7A9FF800000198038C06F0B49A5
:103C2000FDF774FE002005B030BD00001803002031
:103C30000000A04001040000010200008092041076
:103C400084920410789204107C9204107F809F73F9
:103C5000FFB583B0054600206A46108051800F46AC
:103C6000012190800903D180108101201C465081E0
:103C7000FFF77AFF454E800080198038C06FFDF74E
:103C800049FEFFF771FF800080198038C06FFDF793
:103C9000B9FE0128F5D0FFF767FF80008019803852
:103CA000C06F6946FDF722FEFFF75EFF80008019B6
:103CB0008038C06F0599FDF72BFEFFF755FF800098
:103CC00080198038C06FFDF72FFE03284BD0FFF717
:103CD0004BFF8000801980380121C06F0907FDF774
:103CE0001EFE0028E9D0FFF73FFF800080198038D2
:103CF0000121C06F0907FDF709FE01206946088010
:103D00004F800020888001200003C8808000088147
:103D10004C81FFF729FF800080198038C06F694609
:103D2000FDF7E4FD0127FF04FFF71EFF8000801967
:103D30008038C06FFDF7F8FD032814D0FFF714FF9B
:103D4000800080198038C06F3946FDF7E8FD0028F3
:103D5000EAD0FFF709FF800080198038C06F0C4956
:103D6000FDF7D4FD0CE0012007B0F0BDFFF7FCFE2D
:103D7000800080198038C06FFDF738FE28706D1CF8
:103D80002046641EE4B20028F0D1EDE718030020BD
:103D900000000810FFB583B01746054600206A46AC
:103DA000108004995180012190800903D1801081F5
:103DB00002201C465081FFF7D7FE4B4E8000801931
:103DC0008038C06FFDF7A6FDFFF7CEFE800080199A
:103DD0008038C06FFDF716FE0128F5D0FFF7C4FE4E
:103DE000800080198038C06F6946FDF77FFDFFF7BE
:103DF000BBFE800080198038C06F390AFDF788FD4E
:103E0000FFF7B2FE800080198038C06FF9B2FDF76D
:103E10007FFD01273F07FFF7A7FE8000801980384C
:103E2000C06FFDF781FD03284AD0FFF79DFE80009B
:103E300080198038C06F3946FDF771FD0028EAD03F
:103E4000FFF792FE800080198038C06F3946FDF779
:103E50005DFD012069460880049848800020888024
:103E600001200003C880800008814C81FFF77CFEA0
:103E7000800080198038C06F6946FDF737FD012743
:103E8000FF04FFF771FE800080198038C06FFDF7D6
:103E90004BFD032814D0FFF767FE8000801980389F
:103EA000C06F3946FDF73BFD0028EAD0FFF75CFE06
:103EB000800080198038C06F0C49FDF727FD0CE0A9
:103EC000012007B0F0BDFFF74FFE80008019803859
:103ED000C06FFDF78BFD28706D1C2046641EE4B298
:103EE0000028F0D1EDE700001803002000000810C2
:103EF000FEB51446074600206A4610805180908027
:103F000001200003D08080001081581C1D46508184
:103F1000FFF72AFE2A4E800080198038C06FFDF717
:103F2000F9FCFFF721FE800080198038C06FFDF793
:103F300069FD0128F5D0FFF717FE80008019803851
:103F4000C06F6946FDF7D2FCFFF70EFE80008019B6
:103F50008038C06F2146FDF7DBFC00240AE0FFF744
:103F600003FE800080198038C06F395DFDF7D0FCFA
:103F7000641CE4B2AC42F2D30124E404FFF7F4FD84
:103F8000800080198038C06FFDF7CEFC032815D063
:103F9000FFF7EAFD800080198038C06F2146FDF7E9
:103FA000BEFC0028EAD0FFF7DFFD800080198038D2
:103FB000C06F0449FDF7AAFC0020FEBD0120FEBD34
:103FC0001803002000000810FEB514460746002024
:103FD0006A4610805180908001200003D0808000CC
:103FE0001081981C1D465081FFF7BEFD2F4E8000AA
:103FF00080198038C06FFDF78DFCFFF7B5FD80009C
:1040000080198038C06FFDF7FDFC0128F5D0FFF75F
:10401000ABFD800080198038C06F6946FDF766FCF3
:10402000FFF7A2FD800080198038C06F210AFDF7DC
:104030006FFCFFF799FD800080198038C06FE1B2F6
:10404000FDF766FC00240AE0FFF78EFD8000801972
:104050008038C06F395DFDF75BFC641CE4B2AC4294
:10406000F2D30124E404FFF77FFD8000801980383B
:10407000C06FFDF759FC032815D0FFF775FD8000D0
:1040800080198038C06F2146FDF749FC0028EAD02E
:10409000FFF76AFD800080198038C06F0449FDF782
:1040A00035FC0020FEBD0120FEBD000018030020ED
:1040B0000000081001490120087070471403002017
:1040C00010B5FDF781FB0121FCF796FF10BD10B57F
:1040D0000446202000F00AFA0128FAD0204600F019
:1040E000BDFA10BDF0B5944600220A806346104C1C
:1040F0001A60052322685B028646D2184120926925
:1041000000230FE05D01AD182F697646374207D0D6
:104110006F880E88B74203D90F8060460560002083
:104120005B1CDBB22568A0352D7B9D42EAD8F0BD33
:10413000A00300207CB50C4605466A4601A9FFF79E
:10414000D1FF002801D041207CBD6846E1888088ED
:10415000814200D9E08000980088A0802046FCF7CA
:1041600091FE0098012D07D0016908221143022217
:104170009143016100207CBD016949084900F8E7CD
:104180000020104903E00A5C401C1018C0B20A5C11
:10419000002AF8D1C21C202A12D202220A5421225B
:1041A00008184270082181700021C170012180B27D
:1041B000090441180920C006C160C168C903FCD4C4
:1041C00070470000A40300201FB504460648029073
:1041D0000846FCF7B9FF80000019694611300873E2
:1041E000684600F0E9F81FBD307500001FB50446B1
:1041F0000846FCF7A9FF80000019694611300873D2
:10420000684600F027F91FBD02480168491C01609B
:1042100070470000CC0200202348017A234800891F
:10422000002906D0022938D0042938D0082938D0EE
:104230001FE0092810D381280ED8092181431AD004
:104240001121814319D02121814318D0412181437B
:1042500017D08121814316D0FF210231814314D030
:104260001349814313D00521814312D0C0438007F5
:1042700011D00020704706207047072070470820A3
:104280007047092070470A2070470B2070470C20A8
:1042900070470520704704207047012070470220B6
:1042A0007047032070470000000090400000104855
:1042B00001040000044A0129116A02D081431162FD
:1042C00070470143FBE700000000904010B506482E
:1042D0000168491C016001681022D14201D300210C
:1042E0000160FFF791FF10BD3003002010B52A498F
:1042F000082088800321481FFEF7A6FA0321081F23
:10430000FEF7A2FA03210020FEF79EFA0321012006
:10431000FEF79AFA03210420FEF796FA03210520FE
:10432000FEF792FA00210620FEF78EFA03210720FD
:10433000FEF78AFA03210D20FEF786FA03210E20EC
:10434000FEF782FA03210F20FEF77EFA03211120E7
:10435000FEF77AFA03211220FEF776FA03211320E2
:10436000FEF772FA03211420FEF76EFA03211520DE
:10437000FEF76AFA03211620FEF766FA03211720DA
:10438000FEF762FA01210846FCF79AFB044903484C
:10439000086262B610BD00000000104066000E000A
:1043A000000090400348DF2200684030C17911408E
:1043B000C1717047A003002010B504460920C00653
:1043C00000690002000A00F071F8A168FDF744FAE4
:1043D000A060204600F002F810BD0000F8B51B4DAB
:1043E00006461B4928684418317B481E3E2801D3E5
:1043F0004220F8BD2046A2680830824205D03A2902
:1044000005D22021095D072901D36420F8BD694642
:10441000FEF750F8102231460098FEF73CFA20468D
:104420000099FEF735F80098007B3A2803D2203433
:104430002078401C207072B62868DF224030C17995
:104440001140C17162B60020F8BD0000A003002039
:10445000F406000070B5134E134A31688D182C68AD
:104460001DE0017B227B914218D121462846FEF7B0
:104470002EF8284621460830FEF70AF8207B3A2815
:1044800003D220352878401E287072B63068DF22AB
:104490004030C1791140C17162B670BD2468AC4230
:1044A000DFD170BDA0030020F406000010B506495E
:1044B000064A09688C18A169401A0002000A04F033
:1044C00037FE6169081810BDA0030020F406000043
:1044D00005490028086B02D00122104301E0400882
:1044E0004000086370470000000030400549002884
:1044F00001DA496800E0098B014201D001207047D0
:1045000000207047000030407047000070B54B4DF0
:104510000446286B4A4A0107206801D4010100E0E3
:10452000C1001046FBF726FE01464002020C43483C
:1045300020308280D201891A0126C903F603891925
:10454000090C3F2902D9491C8906890E0172027B98
:1045500023799F219B070A405B0E1A4302732A7F2F
:104560000A4061798907490E0A432A77017BA279BB
:10457000F723D2071940120F11430173297FA27943
:104580001940D207120F11432977E179002943D04E
:1045900002220229017B44D011430173037B0421D1
:1045A0000B4303732B7F13432B772A7F0A432A770E
:1045B000296B012252029143227AD207920D1143B4
:1045C0002963296BFF2201329143227A9207D20F8D
:1045D000120211432963296B012292039143627AEB
:1045E000D207520C11432963296B627AB1439207B7
:1045F000D20FD20311432963027BA37AEF21DB0799
:104600000A40DB0E1A430273287F0840A17AC907CB
:10461000C90E0843287770BD027BFD210A40027352
:1046200008E011430173037BFB210B4003732B7FD5
:1046300013432B772A7F0A40B9E70000000030407F
:104640000000127A044A117DC72340071940800EEA
:10465000014311757047000020003040C005024939
:10466000C00D0880704700000000304038B50C468F
:1046700000216A461170E52100F082F86A4612783E
:10468000227038BD7CB50C46054601A900F023F820
:104690006A463121284600F073F800280AD16A469C
:1046A00011781279C907C90F914201D1012100E0A7
:1046B000002121707CBD10B50122862100F083F815
:1046C00010BD38B50C466A46962100F064F869467C
:1046D0000A88228038BD38B50C466A46302100F081
:1046E0004FF869460A7810210A4069460A70110994
:1046F00002D00022227038BD0122FBE7F8B5164D2A
:1047000006462D2428194038C27C2146304600F048
:104710005AF8641CE4B2872CF4D9304600F024F82F
:1047200000206946087069463046FFF7ABFF6846CF
:1047300000780028F7D03046FFF7BDFF304600F084
:1047400019F809220821304600F03DF800220B211B
:10475000304600F038F8F8BD9892041010B50A46BB
:10476000012100F030F810BD10B54022872100F083
:104770002AF810BD10B50022872100F024F810BDE2
:1047800038B5144601236A4600F013F869460978E3
:10479000217040B238BD38B5144602236A4600F095
:1047A00008F86A461178527809028918218040B2C7
:1047B00038BD10B514460A46C1B2DBB22046FFF739
:1047C000E9FA40B210BD08B56B461A7001236A467B
:1047D00000F001F808BD10B514460A46C1B2DBB2BC
:1047E0002046FFF7F1FB40B210BD704789084143F6
:1047F000880A401C70474143080A2921090148439F
:10480000C00A401C70470000F7B586B0054604F0AA
:1048100051F9044600206946087206460C200390B0
:104820005AE002A9204604F073F96846027AFF2A8A
:1048300059D0FE2A04D0002A02D0FA2009B0F0BDD7
:104840005B49A000401800686B46070A1F70070C00
:104850005F70000E9870641CA00040180068D8704B
:10486000070A1F71000C5871641CA00040180068F2
:104870000490FE2A03D080080419641C2CE0062250
:1048800029461846FEF703F800280498F3D1079943
:10489000884219D10622FF216846FEF700F800275A
:1048A00035E0641C4248A10008180168684602F01F
:1048B00085FA08980422C0196946FDF7E8FF002828
:1048C00024D0B808241A641EA41E204604F0FEF862
:1048D000049880080419E41C30460399761C884229
:1048E0009FD38E4210D8334801680120C0020818B7
:1048F000026FC16E406F8918401E081807990C316D
:1049000089080919884206D25D2097E73F1D04985F
:104910008742C6D34AE0FE2069460870287848706E
:1049200068788870A878C870009900060902090A9A
:1049300001432046FCF7FEF9002831D1E9786846AA
:1049400001702979417069798170FF21C1700098E7
:10495000641C0102FF20090A000601432046FCF7FF
:10496000E9F900281CD1641C20460799FCF7E2F9FC
:10497000002815D1079800258107890F0F18641C9E
:1049800012E0089846193046FBF74AFC0102F0781D
:10499000090A000601432046FCF7CCF9002801D0A3
:1049A000FB204BE7641C2D1DBD42EAD3002045E7E8
:1049B00000000410A003002030B5174B047A1B68D8
:1049C000C268AE331B799D06AD0F04D10078042870
:1049D00001D000200BE0012030BD401CC0B2155CAE
:1049E000012D08D01518203DED7F2818C0B2A04237
:1049F000F3D3087830BD401CDD070124C0B2002D80
:104A000002D0105CC00703E09B07F2D5105C800762
:104A10000028EED00C70ECE7A00300200FB410B516
:104A200003A9044B044A029800F05AF810BC08BCD1
:104A300004B018479D670410100300200A78027024
:104A40004B7843708A788270CA78C2700B79037190
:104A50004A794271704730B47446641E2578641CEC
:104A6000AB4200D21D46635D5B00E31830BC1847C3
:104A700038B51048017A0125294301720E490020FA
:104A800008600446FFF7C8FB6946087008780028EC
:104A900003D1641CE4B2032CF4D30878062807D3AE
:104AA000087803F083FE05480570FBF732FBFEE74C
:104AB000012038BD00002040140000200C00002020
:104AC00002E008C8121F08C1002AFAD170477047D7
:104AD000002001E001C1121F002AFBD17047000035
:104AE000FFB58FB00F460446002606E025280AD001
:104AF000129A11999047641C761C20780028F5D1F1
:104B0000304613B0F0BD00250121A14A009500E018
:104B10000543641C23780846203B98401042F7D197
:104B200020782E2815D1042005436078641C2A289B
:104B30000AD101CF641C00900BE000990A22514376
:104B400030394018641C009020780146303909291A
:104B5000F3D920786C280ED004DC4C2813D06A28B6
:104B600012D104E074280ED07A280DD10BE0012078
:104B70004005054307E00121090562780D438242A3
:104B800001D16D18641C641C2078864669284AD0BF
:104B900008DC0028B4D058286DD0632810D06428D1
:104BA00008D140E070286BD0732812D0752860D0EF
:104BB000782860D0129A704611999047761CE5E0EB
:104BC0003878694608720020487202A801900120D6
:104BD00003E0386801900020C0433F1D69070CD5F1
:104BE000002500E06D1C00998D420FDA8542F9DB4B
:104BF0000199495D0029F5D108E0002500E06D1C10
:104C00008542FCDB0199495D0029F8D1761907E05E
:104C1000019801990078491C0191129A11999047C5
:104C20006D1EF5D2B2E00A20029000216802400F0A
:104C3000039102280CD001CFC117844600290DDA58
:104C40006246084652420021814194462D2008E0E8
:104C5000FF1DFF08FF0003CF8446EFE7280504D5BA
:104C60002B206A46107401203CE0E8073AD020204F
:104C7000F7E70A2000E0102000210391029007E0EE
:104C80001020029000210420054308200391009089
:104C90006802400F022810D001CF00218446002076
:104CA0000D9028071FD5704670280CD0029A10204E
:104CB000039B42401A430CD015E0FF1DFF08FF0084
:104CC00003CF8446EBE740206A46107401200D9024
:104CD0000CE06046084306D030206A4610747046E7
:104CE000507402200D907046582804D029A00190DD
:104CF0000DA80E900DE02CA0F9E76046039B029AE8
:104D0000FBF79CFB019B84469B5C0E9A521E0E9205
:104D1000137060460843F0D10E9805A9081A203098
:104D20000190680701D5009801E0012000900199E9
:104D3000884203DD01460198081A00E000200025A2
:104D4000009006E004A8129A405D119990476D1CEE
:104D5000761C0D988542F5DB04E0129A30201199FB
:104D60009047761C0099481E00900029F5DC08E069
:104D70000E980E990078491C0E91129A119990473D
:104D8000761C0199481E01900029F1DC641CB4E6F0
:104D90000928010030313233343536373839616211
:104DA00063646566000000003031323334353637D5
:104DB000383941424344454600000000704770477F
:104DC000704770477047704770477047704770472B
:104DD000704700000A46400608D5D0783A280AD223
:104DE000111D054B80001B5810461847907880080D
:104DF0008000801C8870704728930410FFB504461B
:104E000000262C4F83B09C460D46080616D572B678
:104E100001AB6A466146204601F08AFC00280BD0AF
:104E2000684681880098827892089200827001809A
:104E30006180012662B615E062B621E001AB6A46E8
:104E40006146204601F074FC002819D0680609D498
:104E5000684681880098827892089200827001806A
:104E6000618001260098AA00817840238907890F74
:104E70001A40114381700599C170002E0ED115E0C2
:104E80000020009072B6A8060FD411203968C00126
:104E90000818816E08221143816662B672B63868BE
:104EA000F7224030C1791140C17162B6009807B055
:104EB000F0BD0000A00300207047704770B50D469C
:104EC00001230446C1061148006803D51822BF21FA
:104ED0000C4008E01B2189014118497E090701D4D3
:104EE000002070BD15222107890E08181121C90163
:104EF0004018C06F2146FFF781FF010004D08D806C
:104F00002046FFF767FFEBE7072070BDA0030020F6
:104F1000704770477047704770477047F8B51D4637
:104F20000F4601230446C10612481646006803D501
:104F30001622BF210C4008E01B2189014118497E3F
:104F4000890701D40020F8BD13222107890E081813
:104F50001121C9014018C06F2146FFF74FFF010022
:104F600006D08F808E71CD712046FFF733FFE9E7C1
:104F70000720F8BDA003002070477047F8B5891ED0
:104F8000CDB20646A81C03210843401C83081748DD
:104F900017460068F10603D51C22BF210E4008E029
:104FA0001B2189014118497E090601D40020F8BD62
:104FB00019223107890E08181121C9014018C06F44
:104FC0003146FFF71BFF04000ED039782171797844
:104FD0006171A5712A46B91CE01DFDF75CFC2146F4
:104FE0003046FFF7F7FEE1E70720F8BDA0030020F9
:104FF000704710B500221146FCF70AF810BD704743
:1050000070477047704770477047704770477047E8
:10501000FFB50F460546D01C03210843401C8308FA
:1050200081B01646E80603D53A22BF20054000E0CD
:105030003722104928070968800E40181121C9013C
:105040004018C06F2946FFF7D9FE04000FD0A78093
:105050007108A1712046324608300499FDF71BFC07
:1050600021462846FFF7B6FE002005B0F0BD072018
:10507000FBE70000A003002010B50846FEF72AF960
:1050800010BD0000F8B51D460446022316460F4623
:10509000C00603D53922BF20044000E036220C4967
:1050A00020070968800E40181121C9014018C06FFF
:1050B0002146FFF7A3FE010007D08F80CE800D812F
:1050C0002046FFF787FE0020F8BD0720F8BD00004E
:1050D000A003002070477047F0B585B084460AA849
:1050E000F0C868468581C68103A8019002970094A4
:1050F0006046FCF76BF905B0F0BD7047704770472C
:1051000070477047F7B504230446C1062248154688
:10511000006803D52222BF210C4006E01B21890133
:105120004118897EC90732D01F222107890E08182D
:105130001121C9014018C06F2146FFF75FFE010031
:1051400027D0AA68081D577BD57B937BBE462D02CE
:105150005F19557C137C2D025E19D57C937CBC466F
:105160002D025D19577D137D3F02DB19977DD27D9E
:105170001202BA18019F07807746877067468780BA
:10518000C6800581438182812046FFF723FE0020EF
:10519000FEBD0720FEBD0000A00300207047704741
:1051A0000068704710B50446002008602068002899
:1051B0000CD06068016008466160FDF7D6FBE17ABB
:1051C0004018E072A07A401CA07210BD2160F2E786
:1051D0000068002801D0002070470120704710B5FA
:1051E00004460068884209D10268226000220260F9
:1051F000206800280BD1626009E0104602688A42EC
:10520000FBD10A68026062688A4200D16060084689
:10521000FDF7ABFBE17A081AE072A07A401EA0729B
:1052200010BD70B5044616460D46084603F099F9C0
:105230002060281D03F090F931044018606070BDB3
:10524000F1B5AF4AAF49106890B041180491AD492B
:10525000044670314518C034014636310D910021A5
:105260000291A949497AC9000C91816A0B9104996C
:1052700020310E91897E079108297DD205214902AE
:10528000401841691746079858225043081808905B
:10529000079881019C480C3008180A90C07A2E4665
:1052A00040360990B08B03F079FC39684031098EA3
:1052B000401880B20390E96C0398FFF797FAE96C05
:1052C00009020F1AB07F03F053FF381803F054F9A6
:1052D000A96C41180C98081A0002000A0190109954
:1052E000411A0B98081A00020121000AC9058842D8
:1052F0007ED2049901984863099803F049FA0A9903
:10530000C8720D980078C143090706D04107079875
:10531000490F4007400F81422BD10E980821807E13
:1053200008430D990870A86C2060E86C60600198D3
:10533000A0600298E060A86D2061686D6061B08B2C
:105340002083B07FA076284660300178E176B18C6A
:10535000A183318DE183B18D2184318E6184B18E41
:10536000A184318FE184C17E2820015584204059D9
:10537000E0620D98007800E07CE007994207490759
:10538000520F490F8A4261D0F72108400D995C4FB6
:1053900008704007400F0790052039684002081840
:1053A00041690798582250430818049007988101D2
:1053B00055480C3008180A90C07A0990208B03F0E9
:1053C000EDFB39684031098E401880B20390616866
:1053D0000398FFF70BFA616809020F1AA07E03F029
:1053E000C7FE381803F0C8F8216841180C9800E08F
:1053F00042E0081A070210983F0A391A0B98081A57
:1054000000020121000AC905884257D2A760099805
:1054100003F0BEF90A99C87201980899C01B0002EE
:105420004979000A9022114210D10121C905884210
:105430000AD30498C17B0898C07B401C814203D8E2
:1054400004984079C00601D503F0C0FDE96C0398CB
:10545000FFF7D1F90446B07F03F092FEA96D201842
:1054600040180721090508438035A96B0322091D4F
:1054700003F0A2FB11B0F0BD0898008F41000A981C
:10548000203002780998101880B209900898089A7C
:105490000089401C108108984069421A08984261AE
:1054A0000898C07BFF2802D2089A401CD073E86C91
:1054B0004018E864079800F05DFCFCE604980A993F
:1054C000008F400020310A780999511889B209915A
:1054D0000499049A0989491C1181049949690A1A95
:1054E00004994A610499C97BFF2902D2049A491C94
:1054F000D173616808186060079800F03BFC66E7AC
:10550000A003002098080000C0000020F0B5FE4F66
:10551000FE48396897B00D1808466830129005208B
:105520004002081840691190F84870300E180920A0
:10553000C00600690890002014900824F44803F085
:105540001BF80B900020139072B63868F722403099
:10555000C1791140C171129801210171129801683D
:105560004A07520F4271C9081298C900016062B619
:105570000898FFF765FE686B05903A20405D0E9035
:10558000082842D2012014900E98582148431199BE
:1055900040180490DF48876ADF48407AC00003F073
:1055A000C7FD01460498008F40020818D8494942B7
:1055B0004018874200D238467065B82081590A7970
:1055C00048798979000210438907890B01430498BF
:1055D000FF314030028A408AC3311018401803F06E
:1055E000D3F807465F20000102F0C6FFB84204D995
:1055F0005F20000102F0C0FF00E03846059909185D
:10560000C548407AC00008181390706D02F0B4FFCE
:10561000059940180490002007460790287D00282F
:1056200009D10E98082806D3BB490020088009211B
:10563000C906486044E168680990686C019029686F
:105640000898401A00020412B34800884007400F2F
:1056500001F0A0FC002801D0002007E0002CFBDBBB
:10566000204603F065FD0199884200DA019001208F
:10567000800708240A9000200D90297D3AE00E9AB8
:10568000904234D0A04A12682032927D1207120F45
:1056900082422CD0EB6A4200109300929F5A0797E7
:1056A0006B6A9A5A099B92017B43D318019A9C46D4
:1056B000934212DACA0710D02A6B009B099FD25A74
:1056C000521C93B21A467A43079F9444FA1892B236
:1056D00013460792109F009ABB520A9A634694455C
:1056E00005D2CA0703D0079A0A9304460D924908C7
:1056F000401CC0B20029C2D10A9802F03DFF2968BF
:105700004718A96A6000085A800102F035FFC019E5
:1057100007907D4800684030007E00287F4800697F
:1057200003D0391A0B98400002E0391A0B98400850
:10573000081A0002000A0121C9050690884209D30F
:10574000082C7DD0204600F0D5FA71490A984018FF
:105750000190686401210698C905884287D2082C07
:105760006ED00D9800282DD009994843019002F081
:1057700003FF296840180002000A2860696C01983C
:10578000081A68640A990198081A00210A9013E01F
:10579000EA6A480008909446105A0D9A801A04E06C
:1057A0002B6B089A401C9A5A10180028F8DB089BAB
:1057B0006246491CD052C9B253480068A030007BF1
:1057C0008842E5D80E9808286AD20598C01B0102C5
:1057D0000120090AC005814223D30B98391A139876
:1057E000081A02020120120AC005824201D313984E
:1057F0000FE0049A891A0902090A814201D2049829
:1058000008E00120400202F0B7FE0B994900791A26
:10581000081A04900599401A0002000A03F088FC57
:1058200070650B9904984018C01B01020120090AF9
:10583000C005814248D20B994A000799521800E0EE
:105840003EE00599511A0902090A814228D20E98B0
:105850005821484311994218582060434018C17B91
:10586000D37B994201D3102100E00021C90613D453
:105870008179CA0702D07221895B03E0890707D5C5
:105880007621895B0289891A491E0904090C07D00F
:105890004079000604D417E050799021084213D1D2
:1058A000082C15D01A490A98401868645820119994
:1058B0006043401880784007400F01284CD007E033
:1058C0001498002804D003D0059F0E9C04980790DC
:1058D000079839020002000A0790090A0120009186
:1058E000800202F049FE05900120400202F044FED1
:1058F000074600990798401A00020012002816DD9A
:105900000599000A88420BE0A003002098080000D7
:1059100066020000C4030020C00000200000004810
:1059200000D901460591B84200D838460746082CF0
:105930007ED0814800884007400FA0424FD05820B9
:10594000119960434018089080784007400F05285F
:1059500012D0022810D042E0304680300321826805
:1059600049028A42B4D0C0688842B1D0FBF795FFA3
:105970004005400DC719ABE70898A101006A0490E3
:105980006D480818818B089880B2814227D004980E
:10599000002824D00499089800F04CFE6749049828
:1059A0000A68007C05214902C0065118C00E096A28
:1059B000801C401804900898212100698901084240
:1059C0000DD000F079FE01283BD01F2004994978C2
:1059D000084204D0049840780499001D4870574844
:1059E000554900682030847448202043088033469D
:1059F00080335A6B907AC106C90E600101439172DF
:105A0000996B8A7AD206D20E02438A720098306568
:105A1000FCF72CFB012816D0484800682030017D97
:105A20004548407A081A316DC0000818000200E0AD
:105A300039E00121000A490641180920C0064160E9
:105A40000EE0FF20C2E70121306D09064118092050
:105A5000C0064160394800682030017D36484172F7
:105A6000082C24D2582044431198241872B6129856
:105A7000A17800684907C008C000490F08433049B1
:105A800008400099C90008431299086062B6A078DE
:105A90004007400F03280FD000F00EFE01280FD062
:105AA0000798C01B19E000200921C9064860224957
:105AB0000020088017B0F0BD05990798401A0CE047
:105AC0004034208A618A4018FF30C33002F05CFE07
:105AD000874200D938460799081A0002000AE8638D
