:020000041004E6
:100000000060002089140410391404102D0E04100F
:10001000AA5555AA45554C420000000000000000BA
:10002000000000000000000000000000EB140410BD
:100030000000000000000000851404104D1A041098
:10004000E50B041081140410000000000000000003
:10005000A51B0410E91404109D090410F11D0410DF
:100060000000000000000000000000000000000090
:100070000000000059090410370E04102F0E041060
:10008000000000003114041033140410351404105F
:1000900037140410A914041083140410E109041087
:1000A0000000000000000000000000000000000050
:1000B0000000000000000000000000000000000040
:1000C000EFF31482EFF309811C4880F31488BFF327
:1000D0006F8FF0B543464C4655465E466746F8B4CA
:1000E000174CEFF30883236006B4164C2068164CB7
:1000F0002060164C2068164C2060164C2068164C68
:100100002060164C276800202060BFF34F8F30BF5F
:1001100027600B4C246884F3088882B003BCF8BCC9
:100120009846A146AA46B346BC46F0BC04BC80F340
:10013000098881F31488BFF36F8F10470000000017
:100140000800002004ED00E02403002024ED00E07E
:100150002803002000E200E02C03002008002040DB
:100160000348854600F0AAFB0048004771270410A9
:100170000060002030B50B460146002020220124FB
:1001800009E00D46D5409D4205D31D469540491BCB
:100190002546954040191546521E002DF1DC30BD14
:1001A00003460B439B0703D009E008C9121F08C090
:1001B000042AFAD203E00B780370401C491C521E3B
:1001C000F9D27047F8B502464A40D40F42004B00BE
:1001D00052085B089A4202D20246084611464A007B
:1001E00023D0C30D4A00DDB2120EAD1A202D35DA30
:1001F00049020126490AF6058A19002C00D052420C
:1002000020214F1B1146B9402A411018C20D9A42B5
:1002100021D0002C17D0012D08DCDA05801AD20F6E
:100220008019D207DBB200F005FAF8BDDA05801AB2
:10023000012340001B06C01880185A428018CA0FBC
:100240001043490007E04908C2071143DA05801A44
:1002500080194008801800F0E5F9F8BD610001221E
:10026000511A001BF7E70122D2075140AAE70122E9
:10027000D2075040A6E770B502464A40D50F40006D
:100280004A00ED0740085208002814D0002A12D076
:10029000C40DD30D41020120C0055202490A520A81
:1002A000E41A091812187D34914201D3641C00E04D
:1002B0004900002C01DA002070BD0023914201D3D7
:1002C000891A0343400849000028F7D100290AD0C1
:1002D000914202D10121C90705E0914201D20121D9
:1002E00001E00121C943E005C018401900F09AF966
:1002F00070BD420005D04200120E52428A4201DB1C
:1003000000207047C905081870470000F0B507467F
:100310000846584087B0C00F049048000E46590068
:1003200040084908BC1A884105D2384631461E4665
:1003300017460B4602465800400810434CD0300D7B
:10034000039040055900400D490D0590401A029058
:10035000402872DA18030121000B090508430190B7
:1003600004980092002805D001995242002088414B
:1003700000920190029840210A1A0199009800F019
:100380002EF905460C466B4607CB00F038F9C0192C
:100390007141039A0E0D0023D71756401A467A4032
:1003A000164344D0049A002A2DD0029A012A039AB7
:1003B00015DC1205C01A914101263605001C714159
:1003C000D20F059ED2070093019202962A46234639
:1003D00000F076F907B0F0BD38463146FAE7160569
:1003E000224A0F46B218C01AB74101210905001C64
:1003F0004F4100187F41114618187941E20F104310
:100400006D19644113E0E2076D0815436408C207E3
:100410001443039A01261205C01A91413605001CA7
:100420007141CE07400830434908C01851412A465F
:10043000234600F038F9CDE7FFE704980122400099
:10044000C117121A00238B4104983146C417381A79
:10045000A141EEE730B40124E407634030BC55E726
:1004600030B40124E407614030BC4FE70000E0FFF6
:10047000F0B51FB488B00B99099800244840099939
:10048000C00F490049080991C0070B990090490025
:1004900049080B9109990898A64608431CD00B9966
:1004A0000A98084318D0099801244000420D4800DA
:1004B000410D099824050003000B204309900B9877
:1004C0000003000B20430B9050181C4940180022D9
:1004D00001901446104605E0002001460DB0F0BD25
:1004E000032801DA034600E003239C46C11A0AAE42
:1004F0000AE05F0008ADED5B4F00F75B7D4300272E
:10050000AA187C41491C5B1E6145F2DD410004AB29
:100510005A522104120C0A43240C401C0828DFDB29
:10052000019802900099704601910090059B049AF1
:100530000799069800F0C4F8D0E700000DFCFFFF13
:10054000C217C10F504010B54018CA0796230021AA
:1005500000F070F810BDC20FD207400040080BD069
:10056000C10D0723DB01C91840020905400A1143E8
:10057000C208400711437047002001467047F0B59C
:100580001FB40646002082B0054640240191009029
:100590001BE0019922460F46304600F0A1F9049A6B
:1005A000059B801A994110D310461946224600F047
:1005B00016F8361A8F410197224601200021009F2C
:1005C00000F00DF838184D4100902046641E0028B8
:1005D000DFDC019B00982946324607B0F0BD10B51C
:1005E000202A04DB0146203A9140002010BD9140B2
:1005F00020239C1A0346E3401943904010BD10B5D8
:10060000202A06DBCB170846203A1041C1170B43BE
:1006100006E00B461341D0402024A21A9140084323
:10062000194610BD002904DA401C490001D14008D8
:100630004000704770B40024050C05D1102400045C
:1006400002D1002921D01124050E01D10002083465
:10065000050F01D10001241D850F01D18000A41CCC
:10066000002801DB4000641C002908D020252E1B37
:100670000D46F540A14000D0012129430843010661
:100680001B1B000ADB1D02D5002070BC7047DB0578
:10069000181880180029F8DA401C4900F5D170BC00
:1006A00040084000704710B5002B08DA0024401CB9
:1006B000614192185B411A4301D14008400010BDCE
:1006C000F0B51FB482B005460C0003D0084601F017
:1006D000A1FB02E001F09EFB203002460090214683
:1006E0002846FFF77CFF049B059A04460F461843F3
:1006F0001143084314D0184610431BD000984021E2
:100700000A1A1846059900F0EBF805460E46009ABD
:1007100005990498FFF763FF084305D0012004E022
:100720002046394607B0F0BD0020C11705430E43EF
:100730002C43374300990E986305401A7905E40A63
:1007400000220C43FD0A0A3002D500200146E9E7E9
:100750000105101969410C9C0D9D00196941FFF7B5
:10076000A2FFDFE7F0B50C465C4085B0E40FE4077C
:1007700003944C0000266408590094464908024638
:100780000296224321D062460A431ED06200570DD2
:100790004A000E032303550D012402462C4924056B
:1007A000781B1B0B360B40182343264361460090F1
:1007B0001C46501AB44103D30098401C009002E03C
:1007C000921800985B41002803DA0020014605B02A
:1007D000F0BD0020012109050746864611E0644668
:1007E0001D46141BB54106D36546521BB3417446E2
:1007F00007430C43A646CD074008490828439218F2
:100800005B4105460D43EAD11046184313D06046BC
:10081000194650407140084306D06046101AB34153
:1008200006D20122002306E000220123DB0702E0BA
:100830000122D2435310009874460105381C6141CF
:10084000029C039D00196941FFF72DFFBFE70000DF
:10085000FD0300004A0009030123090B1B0519438E
:100860000A4B10B5520D9A4202DA0020014610BD23
:10087000064B34339A4203DC9A1A00F031F810BD6B
:10088000034BD218FFF7ABFE10BD0000FF030000C2
:10089000CDFBFFFF10B5002904DB0124E407404233
:1008A0008C412146002B04DB1C460123DB0752420E
:1008B000A341994200D1904210BD0000064C012591
:1008C000064E05E0E36807CC2B430C3C98471034F8
:1008D000B442F7D3FFF748FC382A0410C82A0410A2
:1008E00010B5202A04DB0846203AD040002110BD74
:1008F0000B46D340D0402024A21A91400843194609
:1009000010BD70B58C180578401C6B075B0F01D1CA
:100910000378401C2A1106D10278401C03E00678B7
:100920000E70401C491C5B1EF9D12B0705D4002317
:10093000521E0DD40B70491CFAE70378401CCB1AE9
:10094000921C03E01D780D70491C5B1C521EF9D5EA
:10095000A142D8D3002070BD7047000070B50021BF
:100960000C4A03E0535C491C5918C9B2535C002B74
:10097000F8D1CE1C02243525202E04D2545451180F
:100980004D708870CB7004490C704D708870CB70BE
:1009900070BD00003C0300203003002070470000C1
:1009A00010B5040004D1FF21EB31034801F0D8FE5B
:1009B00005204007446010BDD828041010B504007D
:1009C00004D1FF21AC31054801F0CAFE05204007E3
:1009D0000068204000D0012010BD0000D82804107D
:1009E00010B500F0B3F810BDF3B58BB005461C226E
:1009F00048A103A8FFF7D4FB684600F0F1F90924E9
:100A00000126E406002D67D04420694688764848D0
:100A1000017A314301724C206946C875202008755F
:100A2000B22048775B2008A90870424A906A424980
:100A3000030C8B420AD108AFFB788F273B4008AFED
:100A4000FB70FB784007400E0343FB70506A020CBA
:100A50008A420AD16B465A7CCF231A406B465A749D
:100A60005A7C8007800E02435A7432484038006B2B
:100A7000020C8A4209D108AAD17889088900D1706C
:100A8000D1788007800F0143D1706946C87DFB2172
:100A900008406946C87548788978000108431228DB
:100AA00008D308A9C8780421084308A9C870C878E1
:100AB000FFF754FF03A8012180B209044018E06049
:100AC000E068C003FCD4694648788978000108438F
:100AD000122801D300F028FF1849088B0028FCD009
:100AE0000E8317208881002008610C98002806D00A
:100AF000216910200140226902408A42FBD0002D6A
:100B000002D00F49152008700F490E4808600DB03B
:100B1000F0BD0000023F00023E30023C20023B4C90
:100B2000023A400239B202345B02350B0000000089
:100B300000002040C007001055AA00000000104827
:100B40000000C040CCBCECFC1400002070B500F0EC
:100B500033FD1F4E800080198038C06FFFF72EFFD5
:100B600001241C4D002812D000F026FD80008019C1
:100B70008038C06FFFF714FF00F01EFD164980009B
:100B800040188038C06F0168A14301602C7000F0EC
:100B900013FD124E800080198038C06FFFF70EFFE2
:100BA000002813D000F008FD800080198038C06F45
:100BB000FFF7F6FE00F000FD09498000401880387C
:100BC000C06F01684908490001602C7070BD0000C9
:100BD000C4280410200300201C030020C82804108F
:100BE0001803002070470000F8B504460068800133
:100BF00003D17A214F4801F0B3FD207900280BD0B2
:100C0000062809D0012807D0042805D0052803D0DC
:100C10007B21484801F0A4FDA079002805D00128D7
:100C200003D07C21434801F09BFD6079002805D06A
:100C3000012803D07D213F4801F092FD2088C004A7
:100C400006D52079062803D180213A4801F088FD95
:100C50002088800406D52079062803D181213548D3
:100C600001F07EFD207901229207002802D006289B
:100C700004D008E051682368994303E051680020DC
:100C800023681943516000210F232568CD40ED07EB
:100C9000ED0F37D0082909D2D66A8D001F46AF4024
:100CA000BE430746AF403E43D6622BE00D46083DAB
:100CB000082D0AD28D001E46203D176BAE40B7436B
:100CC0000646AE40374317631CE00D46103D082D25
:100CD0000AD28D001E46403D576BAE40B7430646D4
:100CE000AE40374357630DE017290BD9124E8D00E4
:100CF0001F46603D368BAF40BE430746AF400E4DAA
:100D00003E432E83491CC9B21A29BED360790128FB
:100D1000D068216809D08843D060A0790128906804
:100D2000216804D088439060F8BD0843F4E7084385
:100D3000F9E700001C2904102000004010B504460B
:100D4000800104D1FF218531044801F009FD012013
:100D5000800701686140016010BD00001C2904107B
:100D600070B504460D46800104D1FF216F3109485A
:100D700001F0F6FC002D06D0012D07D0FF217031C7
:100D8000044801F0EDFC0448046070BD01208007B8
:100D9000C46370BD1C2904104000004010B50F4C06
:100DA000002803D0012809D002280FD000F004FC4D
:100DB0000C21484300198038406F10BD00F0FCFB47
:100DC0000C21484300198038806F10BD00F0F4FBFF
:100DD0000C21484300198038C06F10BDCC28041086
:100DE0000F4910B528390E4BCA691206120F42700E
:100DF000C9690907090F817019680A4C012341600C
:100E0000A14202D10221017000E00370002A00D14A
:100E100043700549898A491C8900816010BD000022
:100E20002800904041A0000200001040FEE710B5ED
:100E300000F0D6F910BD10B500F0D2F910BD0000D9
:100E400070B505462B480C46854206D02A48854297
:100E500003D0F121294801F083FC2088002805D027
:100E6000012803D0F221254801F07AFCA08800284F
:100E700007D00121C902884203D0F3211F4801F0A5
:100E80006FFCE08800280AD001210903884206D0BF
:100E90004900884203D0F421184801F061FC6088C1
:100EA0001749884203D9F521144801F059FC2089DB
:100EB000002807D001218903884203D0F6210F487A
:100EC00001F04EFC60890F49884203D9F7210B4895
:100ED00001F046FC2088A18862880843E18852001E
:100EE00011430843218908436189C9030843E86025
:100EF00070BD00000000B0400000A0406429041054
:100F0000FF030000FF07000070B504460B480D46C4
:100F1000844206D00A48844203D00A490A4801F0B4
:100F20001FFC0A48054201D1002D04D19F218900F0
:100F3000054801F015FCA56370BD00000000B0403D
:100F40000000A0407B02000064290410807F608CB8
:100F500070B5044606480D46844207D005488442D1
:100F600004D0FF214C31044801F0FAFB257470BD18
:100F70000000B0400000A0406429041010B50446F1
:100F80000748844207D00748844204D0FF216731D4
:100F9000054801F0E5FB206880210843206010BD72
:100FA0000000B0400000A0406429041070B5044661
:100FB0000C480D46844206D00B48844203D00B49AE
:100FC0000B4801F0CDFB0B48054201D1002D04D1A7
:100FD00006490748491C01F0C3FB206B284000D09C
:100FE000012070BD0000B0400000A04025020000BC
:100FF00064290410807F608C10B504460648844242
:1010000006D00648844203D00549064801F0A8FBF3
:1010100060690007800F10BD0000B0400000A040D4
:101020008A0200006429041070B5044647480D4642
:10103000844206D04648844203D07B21454801F0D3
:101040008FFB28684449401E884203D97C214148CF
:1010500001F086FB2879012807D0002805D0022856
:1010600003D07D213B4801F07BFB6879002809D043
:10107000012807D0022805D0032803D07E21354857
:1010800001F06EFBE8883549884203D97F21314859
:1010900001F066FB287A002805D0012803D08021C2
:1010A0002C4801F05DFB206840084000206020686B
:1010B00003214903884369798907490C0843206063
:1010C000687927494000085A2968264A4843101A77
:1010D000254A3026914209D84900FFF74BF821688C
:1010E000B14321606168320389B20FE01A4A521C91
:1010F00091420DD84A008918FFF73CF82168B143A6
:10110000103121606168012289B25204891861603E
:101110006168EA88890A890211436160218D20850E
:1011200020680621884329798907490F08432060F0
:10113000297A08200129216806D08143216020688E
:1011400001210843206070BD0143F7E70000B04073
:101150000000A040642904107F1A0600FF0300006D
:10116000CC0200200024F400A086010010B5044643
:101170000648844207D00648844204D0FF215931F2
:10118000044801F0EDFA207E10BD00000000B040E0
:101190000000A0406429041003490160002101718E
:1011A0004171C180017270478813000010B5044678
:1011B0000848844207D00848844204D0FF21753192
:1011C000064801F0CDFA2068000601D5012010BDC7
:1011D000022010BD0000B0400000A04064290410AF
:1011E00010B500F0E9F90C4C80000019803801219D
:1011F000C06F0907FFF7DAFE00280BD000F0DCF91A
:10120000800000198038C06F0449FFF77DFE044953
:101210000120087010BD0000140300200000081019
:101220002003002038B50546124800240178032326
:10123000A822684600F034FA002801D0012038BD09
:1012400000216A46505CCB009840491C0443C9B257
:101250000329F7D3200202D5FF20000604432046CD
:10126000FFF76EF90B21C943FFF743F82860002010
:1012700038BD0000080300201CB504460E480223B8
:101280000178AB22684600F00BFA002801D001205B
:101290001CBD6946487809780002401800B26946CA
:1012A0008880FFF74DF90549FEF7E5FF0449FEF791
:1012B00089FF206000201CBD080300200000F043CF
:1012C00000002A427CB504460020694608702E487A
:1012D00000F078F9002855D12C4D012320222978DF
:1012E00001A800F0DDF900284CD169460879802179
:1012F00008436946087101232022297801A800F0DB
:1013000071FA00283ED1012320222978684600F096
:10131000C7F9002836D16A4610788F21084010702E
:10132000217801230143F7200140E0780843FB21A5
:101330000840217901434808617940000143117058
:1013400020222978684600F04DFA00281AD101239E
:1013500010222978684600F0A3F9002812D16846C7
:10136000007801238108607889000843F321084050
:10137000A1781022014368460170297800F032FA02
:10138000002800D001207CBD1027000008030020A9
:1013900038B50C4C012320222178684600F080F9F2
:1013A00000280CD16946087801234006400E0870D9
:1013B00020222178684600F015FA002800D001208C
:1013C00038BD00000803002010B5002806D00449ED
:1013D00001230F22097800F063F910BD012010BD30
:1013E0000803002038B50C4C0123212221786846DF
:1013F00000F056F900280DD169460878802108438D
:1014000069460870012321222178684600F0EAF934
:10141000002800D0012038BD08030020002803D098
:101420005B200249087070475C20FAE7080300203F
:101430007047704770477047704700008307FF226E
:10144000DB0E9A408907090E994000280BDA000745
:10145000000F0838830808489B001818C369934395
:101460000B43C3617047830804489B001818036846
:1014700093430B430360704700ED00E000E400E09D
:10148000704770477047000010B500F0DBFC012882
:1014900005D0044880F3088801F06AF910BDFEF712
:1014A0005FFE10BD00600020704700000D49012262
:1014B00089B212048A1830B50921C906002804D05F
:1014C000CA60C868C003FCD430BD064B9C789878CD
:1014D000FB2528409870CA60C868C003FCD49C7083
:1014E00030BD0000300300207047704701B5094946
:1014F0000868009AC043904205D20A68521CFCD189
:10150000009A101A01E0C04310180A688242FCD108
:1015100008BD00003803002030B5054685B0012124
:10152000092000F073FA00F047F81F4980004018C6
:101530008038C06F039000F03FF81C4980004018CD
:101540008038C06F6946087400248C744C7403A8FA
:10155000FFF74AFB00F030F815498000401880384A
:10156000C06F039000F028F81249800040188038BE
:10157000C06F6946087403A8FFF736FB032069466D
:101580000095087148718C71CC714C720872012001
:101590008872684600F008FB002000F0F1FB012093
:1015A00000F0B8FA05B030BDA4280410A828041033
:1015B000AC280410B02804100148007870470000DF
:1015C0001003002030B585B00546FFF7F5FF2B4C22
:1015D000800000198038C06F2949884202D101215A
:1015E000284801E00121284800F010FAFFF7E4FF45
:1015F0002649800040188038C06F0090FFF7DCFF5C
:101600002349800040188038C06F6A46107100215D
:10161000917151716846FFF7E7FAFFF7CDFF1D4959
:10162000800040188038C06F0090FFF7C5FF1A494E
:10163000800040188038C06F6A4610716846FFF716
:10164000D3FA02A8FFF7A8FD01206A46107302959D
:10165000FFF7B2FF800000198038C06F02A9FFF7C2
:10166000E3FCFFF7A9FF800000198038C06F0B4929
:10167000FFF74AFC002005B030BD00001403002035
:101680000000A0400104000001020000BC2804107A
:10169000C0280410B4280410B82804107F809F7359
:1016A000FFB583B0054600206A46108051800F4682
:1016B000012190800903D180108101201C465081B6
:1016C000FFF77AFF454E800080198038C06FFFF722
:1016D00055FCFFF771FF800080198038C06FFFF75D
:1016E00065FD0128F5D0FFF767FF8000801980387D
:1016F000C06F6946FFF7A4FBFFF75EFF800080190B
:101700008038C06F0599FFF723FCFFF755FF800075
:1017100080198038C06FFFF76FFC03284BD0FFF7AC
:101720004BFF8000801980380121C06F0907FFF747
:101730003DFC0028E9D0FFF73FFF8000801980388A
:101740000121C06F0907FFF7DFFB01206946088010
:101750004F800020888001200003C880800008811D
:101760004C81FFF729FF800080198038C06F6946DF
:10177000FFF766FB0127FF04FFF71EFF80008019BB
:101780008038C06FFFF738FC032814D0FFF714FF30
:10179000800080198038C06F3946FFF707FC0028A9
:1017A000EAD0FFF709FF800080198038C06F0C492C
:1017B000FFF7AAFB0CE0012007B0F0BDFFF7FCFE2D
:1017C000800080198038C06FFFF7D0FC28706D1C36
:1017D0002046641EE4B20028F0D1EDE71403002097
:1017E00000000810FEB51446074600206A46108027
:1017F0005180908001200003D08080001081581C0F
:101800001D465081FFF7D8FE2A4E8000801980388F
:10181000C06FFFF7B3FBFFF7CFFE80008019803861
:10182000C06FFFF7C3FC0128F5D0FFF7C5FE8000AD
:1018300080198038C06F6946FFF702FBFFF7BCFED6
:10184000800080198038C06F2146FFF781FB00249B
:101850000AE0FFF7B1FE800080198038C06F395D63
:10186000FFF776FB641CE4B2AC42F2D30124E4043B
:10187000FFF7A2FE800080198038C06FFFF7BCFB25
:10188000032815D0FFF798FE800080198038C06FBC
:101890002146FFF78BFB0028EAD0FFF78DFE800082
:1018A00080198038C06F0449FFF72EFB0020FEBD71
:1018B0000120FEBD14030020000008100149012092
:1018C00008707047100300201CB50446012108462B
:1018D00000F09CF82046FFF761FA00900620694668
:1018E00008710120887148716846FFF77DF920462C
:1018F00000F001F81CBD10B5FFF750FA0021FFF70A
:101900002FFA10BD10B5FFF749FAFFF717FA10BD0F
:1019100010B50446202000F015F90128FAD0204621
:1019200000F050FA10BD00000020104903E00A5CEE
:10193000401C1018C0B20A5C002AF8D1C21C202A30
:1019400012D202220A542122081842700821817002
:101950000021C170012180B2090441180920C0068C
:10196000C160C168C903FCD4704700003C0300207B
:101970002348017A23480089002906D0022938D05B
:10198000042938D0082938D01FE0092810D381282D
:101990000ED8092181431AD01121814319D0212168
:1019A000814318D04121814317D08121814316D032
:1019B000FF210231814314D01349814313D0052103
:1019C000814312D0C043800711D000207047062009
:1019D00070470720704708207047092070470A2089
:1019E00070470B2070470C2070470520704704207B
:1019F00070470120704702207047032070470000A5
:101A000000009040000010480104000070B50D4631
:101A10000B490446084203D187210A4800F0A0FE82
:101A2000094E002D05D0012D07D08821054800F072
:101A300097FE306AA043306270BD306A2043FAE7F7
:101A40009F3F0F00A8290410000090400248016841
:101A5000491C0160704700003803002010B52A4976
:101A6000082088800321481FFFF7E8FC0321081F96
:101A7000FFF7E4FC03210020FFF7E0FC0321012035
:101A8000FFF7DCFC03210420FFF7D8FC032105202D
:101A9000FFF7D4FC00210620FFF7D0FC032107202C
:101AA000FFF7CCFC03210D20FFF7C8FC03210E201B
:101AB000FFF7C4FC03210F20FFF7C0FC0321112016
:101AC000FFF7BCFC03211220FFF7B8FC0321132011
:101AD000FFF7B4FC03211420FFF7B0FC032115200D
:101AE000FFF7ACFC03211620FFF7A8FC0321172009
:101AF000FFF7A4FC01210846FEF776FF04490348DE
:101B0000086262B610BD00000000104066000E00C2
:101B10000000904010B5094C002809D0012803D0DE
:101B20005F21074800F01CFE206B0121084302E002
:101B3000206B40084000206310BD000000003040D2
:101B4000F029041070B5144D044601281ED0082C4D
:101B50001CD0102C1AD0202C18D0402C16D0802C41
:101B600014D00E4884420DD0C01F84420AD0401CBD
:101B7000844207D0801C844204D0FF21563108489B
:101B800000F0EEFD002C01DA686800E0288B2040B0
:101B900000D0012070BD000000003040080000802F
:101BA000F02904107047000070B5044600687049C1
:101BB000401E884203D993216E4800F0D1FD207960
:101BC000002809D0012807D0022805D0032803D017
:101BD0009421684800F0C4FD6079002809D00128EC
:101BE00007D0022805D0032803D09521614800F0D2
:101BF000B7FDA079002805D0012803D096215D48C3
:101C000000F0AEFDE079002807D0012805D00228B9
:101C100003D09721574800F0A3FD207A032803D969
:101C20009821544800F09CFD607A032803D999213B
:101C3000504800F095FDA07A002805D0012803D077
:101C40009A214C4800F08CFD4B4D286B01074B4806
:101C5000216801D4090100E0C900FEF78BFA0146B2
:101C60004002020C444820308280D201891A0126A9
:101C7000C903F6038919090C3F2902D9491C8906B1
:101C8000890E0172027B23799F219B070A405B0E1C
:101C90001A4302732A7F0A4061798907490E0A4371
:101CA0002A77017BA279F723D2071940120F11433B
:101CB0000173297FA2791940D207120F11432977A6
:101CC000E179002943D002220229017B44D011434B
:101CD0000173037B04210B4303732B7F13432B7787
:101CE0002A7F0A432A77296B012252029143227AE2
:101CF000D207920D11432963296BFF2201329143D0
:101D0000227A9207D20F120211432963296B012212
:101D100092039143627AD207520C11432963296BD3
:101D2000627AB1439207D20FD20311432963027B37
:101D3000A37AEF21DB070A40DB0E1A430273287FE8
:101D40000840A17AC907C90E0843287770BD027BF5
:101D5000FD210A40027308E011430173037BFB215C
:101D60000B4003732B7F13432B772A7F0A40B9E77D
:101D70003F420F00F0290410000030400000127AAA
:101D800010B5040010D0012C0ED0022C0CD0032C66
:101D90000AD0042C08D0052C06D0062C04D0FF2134
:101DA000DA31064800F0DCFC0549087DC722104006
:101DB0006207920E1043087510BD0000F029041050
:101DC0002000304010B504460648844204D9FF2163
:101DD0001231054800F0C4FCE0050449C00D08803C
:101DE00010BD0000FF010000F02904100000304089
:101DF000704700000FB410B503A9044B044A0298C1
:101E000000F012F910BC08BC04B018476327041096
:101E10000C0300202021020C01D010211046020AE0
:101E200001D010460839020901D01046091F820866
:101E300001D01046891E420801D0881E7047081A3A
:101E40007047000038B51048017A01252943017216
:101E50000E49002008600446FFF78AFD69460870B5
:101E60000878002803D1641CE4B2032CF4D308786A
:101E7000062807D3087800F0E5FC05480570FEF752
:101E800048F9FEE7012038BD000020401400002082
:101E90000C00002002E008C8121F08C1002AFAD175
:101EA00070477047002001E001C1121F002AFBD1DA
:101EB00070470000F0B51FB486B00998089A030D6A
:101EC0000021024314D05148514A181850430514B8
:101ED0001198012810981AD0281A401C00264D4F3E
:101EE0004D49009601910490002812DA444211E015
:101EF0001198012449A3012801D11098C1430698E3
:101F0000119A84600360C26041600BB0F0BD404232
:101F1000E4E70446210500203F4A001C514103919B
:101F2000029012E0E00707D032463B460199009844
:101F3000FEF79EFA0191009032463B461046194644
:101F4000FEF796FA06460F466410002CEAD1049874
:101F5000039B0028029A0999089806DAFEF788FA86
:101F6000019B009AFEF784FA05E0FEF7FBFB019B5C
:101F7000009AFEF7F7FB04460E460022284BFEF7B8
:101F800089FC03D80020C043014607E00022254B0E
:101F900020463146FEF7BAF9FEF75CFC102409E052
:101FA000002C0ADB0A220023FEF7E9FA079B3032F5
:101FB0001A55641E02460A43F2D11122641C079B83
:101FC000121B1C19119B012B03D0012308430ED1B6
:101FD0000AE0084304D0112010900020119077E708
:101FE0001098151A6D1E0BE01098824202DD002336
:101FF0006D1C03E0824201DA00236D1E002BEED03F
:10200000069811998260C16030C07EE701FCFFFF35
:10201000104D0000000014400000F03F30000000B0
:102020000000F0430000E03FFFB597B006460025F2
:1020300018E2252877D100242746FD49049400E0C2
:102040000443761C32780120203A90400842F7D1B0
:1020500030782A280ED002223078014630390929FA
:1020600016D804990A235943303940181443761C72
:102070000490F1E7189802C804911890002904DA36
:102080000120400304434842049002200443761C8C
:1020900030782E2814D1042004437078761C2A2826
:1020A00009D11898761C80C8189009E00A214F437E
:1020B000303FC719761C3078014630390929F5D9E7
:1020C00030786C2810D006DC4C281AD068280ED046
:1020D0006A2817D104E0742813D07A2812D110E0AE
:1020E0000120400504430CE00121090501E0032122
:1020F00009050C437178814203D1012000052418A1
:10210000761C761C3078119066280BD013DC58288A
:102110007DD009DC00287BD04528F6D04628F4D0B5
:1021200047281AD1A5E118E0632835D0642870D07B
:10213000652812D19DE170286CD008DC6728F1D0A9
:1021400069287BD06E280DD06F2806D1BAE073289D
:102150002ED0752871D0782859D01A9A199990479D
:102160006D1C7EE16002400F022809D003280DD0CB
:102170000428189801680DD00D60001D189070E1BA
:102180001898EA1701680D604A60F6E71898016828
:102190000D80F2E70D70F0E718986A460178117229
:1021A000001D18900020507202A80090012005E048
:1021B000189802C8189000200091C04361070DD5FF
:1021C000002101E00199491C0191B94212DA8142D2
:1021D000F8DB009A515C0029F4D10BE0002101E00A
:1021E0000199491C01918142FADB019A0099895CAD
:1021F0000029F5D1019904981A9B471A21463846BF
:10220000199A00F097FA0199401945180BE04FE030
:102210002CE113E04EE0009800990078491C0091F1
:102220001A9A199990470198401E0190401CF2D1CA
:10223000214638461A9B199A10E137E00A200021FE
:10224000009001916002410F022907D0189A01CA3B
:102250001892C2179446032908D00AE01898C01DA6
:10226000C108C90005C91891944607E000B2C21719
:102270009446042902D140B2C1178C46002261461F
:10228000944506DA0A460021404291418C462D21B0
:1022900002E0210504D52B216A461173012103E0D8
:1022A000E10701D02021F7E7029155E00A200AE07A
:1022B000102008E010200090002104200443019128
:1022C000082703E008200021019100906002410FDF
:1022D000022907D0189A01CA1892002294460329AD
:1022E00008D008E01898C01DC108C90005C9189198
:1022F000944603E080B2042900D1C0B200210291CB
:10230000210729D51199702906D0009A1021019B27
:102310004A401A4305D00EE040216A46117301215C
:1023200008E06146014306D030216A4611731199D5
:10233000517302210291009A0821019B4A401A43DD
:102340000AD16146014301D1610705D530216A46B2
:10235000117301217F1E02911199582904D035A1D2
:102360000E910DA90D910DE037A1F9E76146019B92
:10237000009AFEF704F90E9B8C469B5C0D9A521E48
:102380000D92137061460143F0D10D9805A9081A0A
:1023900020300190600703D501200004844300E051
:1023A00001270198874201DD381A00E000200199D9
:1023B00000904118029809180498401A0490E0030C
:1023C00006D421461A9B199A049800F0B3F94519CE
:1023D000002706E003A81A9AC05D199990476D1C62
:1023E0007F1C02988742F5DBE0030CD521461A9B3F
:1023F000199A049800F09EF9451904E01A9A3020C1
:10240000199990476D1C0099481E00900029F5DC31
:1024100008E00D980D990078491C0D911A9A1999A8
:1024200090476D1C0199481E01900029F1DC63E181
:10243000092801003031323334353637383961629A
:10244000636465660000000030313233343536375E
:1024500038394142434445460000000000F05AF933
:102460004519761C3078002800D0E2E528461BB0DC
:10247000F0BD600700D406271898C01DC108C90028
:1024800048680A680831C30FDB071891190001D0AA
:102490009CA108E0210501D59BA104E0E10701D042
:1024A0009AA100E09AA1430011985B081091652859
:1024B0000CD006DC452809D046281DD0472841D13C
:1024C00041E0662818D067283CD13CE00021112F5C
:1024D00001DB112000E0781C0191009008A911A8EF
:1024E000FFF7E8FC139905910021119A15927F1CC2
:1024F00012980197009150E00120C007039001203D
:10250000019008A9009711A8FFF7D4FC139A149919
:1025100005920022119B009212981593059A019240
:10252000002901D0104602E0791C40180190381AA9
:1025300001D5019804E04042401E0090781C0190B3
:10254000C01B029043E0012F00DA01270021112F68
:1025500001DD112000E038460191009008A911A882
:10256000FFF7A8FC13990591119A00211298159272
:102570000091019721070CD40599B94201DB01991B
:1025800000E00191012904DD159A491E515C3029B2
:1025900006D0B84201DA011D05DA0121029115E0E9
:1025A0000199491EEDE7002805DC009941180091CA
:1025B0000199091A03E0019A411C914200DD019141
:1025C0000099401A401C02900120C0070390200788
:1025D00006D402990198814202DB0020C043029098
:1025E00000206946C87707AF012103980337C90760
:1025F000884224D0022011902B20129003980028AA
:102600000CDA404203902D20129007E00A21039833
:10261000FDF7B0FD30317F1E039039701199481ECF
:1026200011900029F2DC03980028EFD1791E12984E
:1026300008703078202108404530BF1E387006A849
:10264000C01BC01D039010980078002800D0012006
:10265000019941180298C01709180398091804989D
:10266000401A401E0490E00306D421461A9B199A92
:10267000049800F05FF8451910980078002803D0FE
:102680001A9A199990476D1CE00324D521461A9B8C
:10269000199A049800F04EF845191CE0009800289B
:1026A00007DB00990598884203DD1598405C19996D
:1026B00001E0199930201A9A904700986D1C401C2F
:1026C00000900298401E0290002804D11A9A2E20F1
:1026D000199990476D1C0199481E01900029DDDC75
:1026E00005E038781A9A7F1C199990476D1C039958
:1026F000481E03900029F4DC21461A9B199A04987D
:10270000ACE600002D0000002B00000020000000BF
:1027100000000000F8B5044600251E461746880450
:1027200004D405E039462020B0476D1C641EF9D55D
:102730002846F8BDFFB50446002581B01E46C803F3
:1027400001D5302700E02027880404D505E038466D
:102750000399B0476D1C641EF9D5284605B0F0BD3D
:10276000FEE710B5C0B2FFF7D3F8012010BD00009E
:1027700088B0FFF773F9FFF7A1F8E1204002FEF7F8
:10278000CBFE0020FFF7A0F810206A46107304214A
:1027900011740820D073012050741D4C5073917334
:1027A000216803A888471C481A4941611B4907232F
:1027B000CA691202120A45042A43CA6100218161D2
:1027C0000361012327225C2102A8FEF769FF684606
:1027D000007AC043800717D1616A05A88847A16ABB
:1027E00006A888470698FDF7B6FE05460E460598EA
:1027F000FDF7B1FE02460B4609A001960095FFF7D2
:10280000F9FA0020FFF77EF8C820FEF76FFED8E740
:10281000D4020020FE7C000000E000E004ED00E0B7
:1028200050524553535552453A20252E3366206D5C
:102830006261722054454D503A20252E3266202781
:10284000430D0A00FEB501240B2813D06846FEF79D
:10285000C7FA69464878897800010843122800D2EF
:1028600000240E480068000705D4002C02D0012087
:10287000FEF71CFEFEBD0925ED062869084E3168ED
:102880002830081A000200120028F3DD002C02D0C4
:102890000120FEF70BFE30686860FEBDC00000201E
:1028A00018000020000100000100000000080000E6
:1028B00001000000200000000400000010000000E3
:1028C00004000000000000020000002040000000A2
:1028D00080000000004000002E2E2F2E2E2F2E2EC6
:1028E0002F2E2E2F2E2E2F2E2E2F4C6962726172BC
:1028F000792F426C75654E5247315F506572697031
:10290000685F4472697665722F7372632F426C75CB
:10291000654E5247315F646D612E63002E2E2F2E5F
:102920002E2F2E2E2F2E2E2F2E2E2F2E2E2F4C6969
:1029300062726172792F426C75654E5247315F50F9
:1029400065726970685F4472697665722F7372632D
:102950002F426C75654E5247315F6770696F2E6309
:10296000000000002E2E2F2E2E2F2E2E2F2E2E2F3B
:102970002E2E2F2E2E2F4C6962726172792F426C8F
:1029800075654E5247315F5065726970685F447279
:10299000697665722F7372632F426C75654E52476C
:1029A000315F6932632E63002E2E2F2E2E2F2E2E96
:1029B0002F2E2E2F2E2E2F2E2E2F4C6962726172EB
:1029C000792F426C75654E5247315F506572697060
:1029D000685F4472697665722F7372632F426C75FB
:1029E000654E5247315F7379734374726C2E630086
:1029F0002E2E2F2E2E2F2E2E2F2E2E2F2E2E2F2EF2
:102A00002E2F4C6962726172792F426C75654E523D
:102A100047315F5065726970685F447269766572AC
:102A20002F7372632F426C75654E5247315F75612B
:102A300072742E6300000000C82A041008000020F1
:102A400004000000941E0410CC2A04100C00002086
:102A500004000000941E0410D02A0410100000206E
:102A600004000000941E0410D42A04101400002056
:102A700004000000941E0410D82A0410180000203E
:102A800004000000941E0410DC2A04103000002012
:102A900004000000941E0410E02A0410C00000206E
:102AA0000C02000002090410E82A0410CC020020E5
:102AB00070000000941E0410582B04103C030020EA
:102AC00020000000A41E0410000000000000000010
:102AD00000000410000000000000000000000000E2
:102AE00001FF01FFE10000000100030004000600F7
:102AF000C512041091130410C9130410E513041037
:102B000000000000000000000000000000000000C5
:102B10000000000025120410791204101D14041086
:102B2000000000005C000000000000000000000049
:102B30000000A040940000A0800000A00100000060
:102B40000000000000000000000000000000000085
:082B500000000000000000007D
:040000051004016181
:00000001FF
